{
  "abi": [
    {
      "inputs": [
        {
          "internalType": "string",
          "name": "_name",
          "type": "string"
        },
        {
          "internalType": "string",
          "name": "_symbol",
          "type": "string"
        },
        {
          "internalType": "uint8",
          "name": "_decimals",
          "type": "uint8"
        }
      ],
      "stateMutability": "nonpayable",
      "type": "constructor"
    },
    {
      "anonymous": false,
      "inputs": [
        {
          "indexed": true,
          "internalType": "address",
          "name": "owner",
          "type": "address"
        },
        {
          "indexed": true,
          "internalType": "address",
          "name": "spender",
          "type": "address"
        },
        {
          "indexed": false,
          "internalType": "uint256",
          "name": "amount",
          "type": "uint256"
        }
      ],
      "name": "Approval",
      "type": "event"
    },
    {
      "anonymous": false,
      "inputs": [
        {
          "indexed": false,
          "internalType": "address",
          "name": "newAdmin",
          "type": "address"
        }
      ],
      "name": "LogNewAdmin",
      "type": "event"
    },
    {
      "anonymous": false,
      "inputs": [
        {
          "indexed": false,
          "internalType": "string[]",
          "name": "namesOfParticipants",
          "type": "string[]"
        },
        {
          "indexed": false,
          "internalType": "address[]",
          "name": "tokens",
          "type": "address[]"
        },
        {
          "indexed": false,
          "internalType": "uint128[]",
          "name": "price",
          "type": "uint128[]"
        },
        {
          "indexed": false,
          "internalType": "address[]",
          "name": "users",
          "type": "address[]"
        },
        {
          "indexed": false,
          "internalType": "uint256[]",
          "name": "targets",
          "type": "uint256[]"
        },
        {
          "indexed": false,
          "internalType": "uint32",
          "name": "cliff",
          "type": "uint32"
        },
        {
          "indexed": false,
          "internalType": "uint32",
          "name": "vestingTime",
          "type": "uint32"
        }
      ],
      "name": "LogNewCollectiveInitialized",
      "type": "event"
    },
    {
      "anonymous": false,
      "inputs": [
        {
          "indexed": false,
          "internalType": "uint256",
          "name": "time",
          "type": "uint256"
        }
      ],
      "name": "LogNewPoolInitialized",
      "type": "event"
    },
    {
      "anonymous": false,
      "inputs": [
        {
          "indexed": false,
          "internalType": "address",
          "name": "user",
          "type": "address"
        },
        {
          "indexed": false,
          "internalType": "uint256",
          "name": "share",
          "type": "uint256"
        },
        {
          "indexed": false,
          "internalType": "address[]",
          "name": "tokens",
          "type": "address[]"
        },
        {
          "indexed": false,
          "internalType": "uint256[]",
          "name": "amounts",
          "type": "uint256[]"
        }
      ],
      "name": "LogTokensClaimed",
      "type": "event"
    },
    {
      "anonymous": false,
      "inputs": [
        {
          "indexed": false,
          "internalType": "address",
          "name": "user",
          "type": "address"
        },
        {
          "indexed": false,
          "internalType": "uint256",
          "name": "_assetValue",
          "type": "uint256"
        },
        {
          "indexed": false,
          "internalType": "uint256",
          "name": "_depositedShare",
          "type": "uint256"
        },
        {
          "indexed": false,
          "internalType": "uint256",
          "name": "_lastCheckpointTWAP",
          "type": "uint256"
        },
        {
          "indexed": false,
          "internalType": "uint256",
          "name": "_lastCheckpointTime",
          "type": "uint256"
        },
        {
          "indexed": false,
          "internalType": "uint256",
          "name": "_lastCheckpointPercentageVested",
          "type": "uint256"
        }
      ],
      "name": "LogTokensStaked",
      "type": "event"
    },
    {
      "anonymous": false,
      "inputs": [
        {
          "indexed": false,
          "internalType": "address",
          "name": "user",
          "type": "address"
        },
        {
          "indexed": false,
          "internalType": "uint256",
          "name": "_assetValue",
          "type": "uint256"
        },
        {
          "indexed": false,
          "internalType": "uint256",
          "name": "_unstakedShare",
          "type": "uint256"
        },
        {
          "indexed": false,
          "internalType": "uint256",
          "name": "_lastCheckpointTWAP",
          "type": "uint256"
        },
        {
          "indexed": false,
          "internalType": "uint256",
          "name": "_lastCheckpointTime",
          "type": "uint256"
        },
        {
          "indexed": false,
          "internalType": "uint256",
          "name": "_lastCheckpointPercentageVested",
          "type": "uint256"
        }
      ],
      "name": "LogTokensUnstaked",
      "type": "event"
    },
    {
      "anonymous": false,
      "inputs": [
        {
          "indexed": true,
          "internalType": "address",
          "name": "from",
          "type": "address"
        },
        {
          "indexed": true,
          "internalType": "address",
          "name": "to",
          "type": "address"
        },
        {
          "indexed": false,
          "internalType": "uint256",
          "name": "amount",
          "type": "uint256"
        }
      ],
      "name": "Transfer",
      "type": "event"
    },
    {
      "inputs": [],
      "name": "BP",
      "outputs": [
        {
          "internalType": "uint32",
          "name": "",
          "type": "uint32"
        }
      ],
      "stateMutability": "view",
      "type": "function"
    },
    {
      "inputs": [],
      "name": "DOMAIN_SEPARATOR",
      "outputs": [
        {
          "internalType": "bytes32",
          "name": "",
          "type": "bytes32"
        }
      ],
      "stateMutability": "view",
      "type": "function"
    },
    {
      "inputs": [],
      "name": "PERMIT_TYPEHASH",
      "outputs": [
        {
          "internalType": "bytes32",
          "name": "",
          "type": "bytes32"
        }
      ],
      "stateMutability": "view",
      "type": "function"
    },
    {
      "inputs": [],
      "name": "VEST_MULTIPLIER",
      "outputs": [
        {
          "internalType": "uint256",
          "name": "",
          "type": "uint256"
        }
      ],
      "stateMutability": "view",
      "type": "function"
    },
    {
      "inputs": [],
      "name": "admin",
      "outputs": [
        {
          "internalType": "address",
          "name": "",
          "type": "address"
        }
      ],
      "stateMutability": "view",
      "type": "function"
    },
    {
      "inputs": [
        {
          "internalType": "address",
          "name": "",
          "type": "address"
        },
        {
          "internalType": "address",
          "name": "",
          "type": "address"
        }
      ],
      "name": "allowance",
      "outputs": [
        {
          "internalType": "uint256",
          "name": "",
          "type": "uint256"
        }
      ],
      "stateMutability": "view",
      "type": "function"
    },
    {
      "inputs": [
        {
          "internalType": "address",
          "name": "spender",
          "type": "address"
        },
        {
          "internalType": "uint256",
          "name": "amount",
          "type": "uint256"
        }
      ],
      "name": "approve",
      "outputs": [
        {
          "internalType": "bool",
          "name": "",
          "type": "bool"
        }
      ],
      "stateMutability": "nonpayable",
      "type": "function"
    },
    {
      "inputs": [
        {
          "internalType": "address",
          "name": "",
          "type": "address"
        }
      ],
      "name": "balanceOf",
      "outputs": [
        {
          "internalType": "uint256",
          "name": "",
          "type": "uint256"
        }
      ],
      "stateMutability": "view",
      "type": "function"
    },
    {
      "inputs": [
        {
          "internalType": "address",
          "name": "_staker",
          "type": "address"
        }
      ],
      "name": "calculateShareToClaim",
      "outputs": [
        {
          "internalType": "uint256",
          "name": "",
          "type": "uint256"
        }
      ],
      "stateMutability": "view",
      "type": "function"
    },
    {
      "inputs": [
        {
          "internalType": "address payable",
          "name": "_to",
          "type": "address"
        }
      ],
      "name": "cancel",
      "outputs": [],
      "stateMutability": "nonpayable",
      "type": "function"
    },
    {
      "inputs": [],
      "name": "claim",
      "outputs": [
        {
          "internalType": "uint256",
          "name": "share",
          "type": "uint256"
        }
      ],
      "stateMutability": "nonpayable",
      "type": "function"
    },
    {
      "inputs": [],
      "name": "collectiveInfo",
      "outputs": [
        {
          "internalType": "uint32",
          "name": "vestingTime",
          "type": "uint32"
        },
        {
          "internalType": "uint32",
          "name": "cliff",
          "type": "uint32"
        },
        {
          "internalType": "uint32",
          "name": "collectiveStart",
          "type": "uint32"
        }
      ],
      "stateMutability": "view",
      "type": "function"
    },
    {
      "inputs": [],
      "name": "decimals",
      "outputs": [
        {
          "internalType": "uint8",
          "name": "",
          "type": "uint8"
        }
      ],
      "stateMutability": "view",
      "type": "function"
    },
    {
      "inputs": [
        {
          "internalType": "address",
          "name": "_staker",
          "type": "address"
        }
      ],
      "name": "getClaimable",
      "outputs": [
        {
          "internalType": "uint256[]",
          "name": "",
          "type": "uint256[]"
        }
      ],
      "stateMutability": "view",
      "type": "function"
    },
    {
      "inputs": [],
      "name": "getVestingPercent",
      "outputs": [
        {
          "internalType": "uint256",
          "name": "",
          "type": "uint256"
        }
      ],
      "stateMutability": "view",
      "type": "function"
    },
    {
      "inputs": [
        {
          "internalType": "string[]",
          "name": "_namesOfParticipants",
          "type": "string[]"
        },
        {
          "components": [
            {
              "internalType": "uint32",
              "name": "vestingTime",
              "type": "uint32"
            },
            {
              "internalType": "uint32",
              "name": "cliff",
              "type": "uint32"
            },
            {
              "internalType": "uint32",
              "name": "collectiveStart",
              "type": "uint32"
            }
          ],
          "internalType": "struct BuidlCollective.Collective",
          "name": "_collectiveInfo",
          "type": "tuple"
        },
        {
          "internalType": "address[]",
          "name": "_tokens",
          "type": "address[]"
        },
        {
          "internalType": "uint128[]",
          "name": "_prices",
          "type": "uint128[]"
        },
        {
          "internalType": "address[]",
          "name": "_users",
          "type": "address[]"
        },
        {
          "internalType": "uint256[]",
          "name": "_targets",
          "type": "uint256[]"
        }
      ],
      "name": "initialize",
      "outputs": [],
      "stateMutability": "nonpayable",
      "type": "function"
    },
    {
      "inputs": [],
      "name": "lastCheckpoint",
      "outputs": [
        {
          "internalType": "uint256",
          "name": "",
          "type": "uint256"
        }
      ],
      "stateMutability": "view",
      "type": "function"
    },
    {
      "inputs": [],
      "name": "lastTWAP",
      "outputs": [
        {
          "internalType": "uint256",
          "name": "",
          "type": "uint256"
        }
      ],
      "stateMutability": "view",
      "type": "function"
    },
    {
      "inputs": [],
      "name": "name",
      "outputs": [
        {
          "internalType": "string",
          "name": "",
          "type": "string"
        }
      ],
      "stateMutability": "view",
      "type": "function"
    },
    {
      "inputs": [
        {
          "internalType": "uint256",
          "name": "",
          "type": "uint256"
        }
      ],
      "name": "namesOfParticipants",
      "outputs": [
        {
          "internalType": "string",
          "name": "",
          "type": "string"
        }
      ],
      "stateMutability": "view",
      "type": "function"
    },
    {
      "inputs": [],
      "name": "noOfTokens",
      "outputs": [
        {
          "internalType": "uint256",
          "name": "",
          "type": "uint256"
        }
      ],
      "stateMutability": "view",
      "type": "function"
    },
    {
      "inputs": [
        {
          "internalType": "address",
          "name": "",
          "type": "address"
        }
      ],
      "name": "nonces",
      "outputs": [
        {
          "internalType": "uint256",
          "name": "",
          "type": "uint256"
        }
      ],
      "stateMutability": "view",
      "type": "function"
    },
    {
      "inputs": [
        {
          "internalType": "address",
          "name": "owner",
          "type": "address"
        },
        {
          "internalType": "address",
          "name": "spender",
          "type": "address"
        },
        {
          "internalType": "uint256",
          "name": "value",
          "type": "uint256"
        },
        {
          "internalType": "uint256",
          "name": "deadline",
          "type": "uint256"
        },
        {
          "internalType": "uint8",
          "name": "v",
          "type": "uint8"
        },
        {
          "internalType": "bytes32",
          "name": "r",
          "type": "bytes32"
        },
        {
          "internalType": "bytes32",
          "name": "s",
          "type": "bytes32"
        }
      ],
      "name": "permit",
      "outputs": [],
      "stateMutability": "nonpayable",
      "type": "function"
    },
    {
      "inputs": [],
      "name": "pokeApproval",
      "outputs": [
        {
          "internalType": "bool[]",
          "name": "",
          "type": "bool[]"
        }
      ],
      "stateMutability": "view",
      "type": "function"
    },
    {
      "inputs": [
        {
          "internalType": "uint256",
          "name": "_tokenId",
          "type": "uint256"
        }
      ],
      "name": "readToken",
      "outputs": [
        {
          "internalType": "address",
          "name": "",
          "type": "address"
        },
        {
          "components": [
            {
              "internalType": "uint256",
              "name": "target",
              "type": "uint256"
            },
            {
              "internalType": "uint128",
              "name": "price",
              "type": "uint128"
            },
            {
              "internalType": "address",
              "name": "user",
              "type": "address"
            }
          ],
          "internalType": "struct BuidlCollective.TokenInfo",
          "name": "",
          "type": "tuple"
        }
      ],
      "stateMutability": "view",
      "type": "function"
    },
    {
      "inputs": [],
      "name": "releaseFactor",
      "outputs": [
        {
          "internalType": "uint256",
          "name": "",
          "type": "uint256"
        }
      ],
      "stateMutability": "view",
      "type": "function"
    },
    {
      "inputs": [
        {
          "internalType": "uint256",
          "name": "_assetValue",
          "type": "uint256"
        }
      ],
      "name": "stake",
      "outputs": [],
      "stateMutability": "nonpayable",
      "type": "function"
    },
    {
      "inputs": [],
      "name": "startCollective",
      "outputs": [],
      "stateMutability": "nonpayable",
      "type": "function"
    },
    {
      "inputs": [],
      "name": "symbol",
      "outputs": [
        {
          "internalType": "string",
          "name": "",
          "type": "string"
        }
      ],
      "stateMutability": "view",
      "type": "function"
    },
    {
      "inputs": [
        {
          "internalType": "address",
          "name": "",
          "type": "address"
        }
      ],
      "name": "tokenInfo",
      "outputs": [
        {
          "internalType": "uint256",
          "name": "target",
          "type": "uint256"
        },
        {
          "internalType": "uint128",
          "name": "price",
          "type": "uint128"
        },
        {
          "internalType": "address",
          "name": "user",
          "type": "address"
        }
      ],
      "stateMutability": "view",
      "type": "function"
    },
    {
      "inputs": [
        {
          "internalType": "uint256",
          "name": "",
          "type": "uint256"
        }
      ],
      "name": "tokens",
      "outputs": [
        {
          "internalType": "address",
          "name": "",
          "type": "address"
        }
      ],
      "stateMutability": "view",
      "type": "function"
    },
    {
      "inputs": [],
      "name": "totalAssets",
      "outputs": [
        {
          "internalType": "uint256",
          "name": "",
          "type": "uint256"
        }
      ],
      "stateMutability": "view",
      "type": "function"
    },
    {
      "inputs": [],
      "name": "totalStaked",
      "outputs": [
        {
          "internalType": "uint256",
          "name": "",
          "type": "uint256"
        }
      ],
      "stateMutability": "view",
      "type": "function"
    },
    {
      "inputs": [],
      "name": "totalSupply",
      "outputs": [
        {
          "internalType": "uint256",
          "name": "",
          "type": "uint256"
        }
      ],
      "stateMutability": "view",
      "type": "function"
    },
    {
      "inputs": [
        {
          "internalType": "address",
          "name": "to",
          "type": "address"
        },
        {
          "internalType": "uint256",
          "name": "amount",
          "type": "uint256"
        }
      ],
      "name": "transfer",
      "outputs": [
        {
          "internalType": "bool",
          "name": "",
          "type": "bool"
        }
      ],
      "stateMutability": "nonpayable",
      "type": "function"
    },
    {
      "inputs": [
        {
          "internalType": "address",
          "name": "from",
          "type": "address"
        },
        {
          "internalType": "address",
          "name": "to",
          "type": "address"
        },
        {
          "internalType": "uint256",
          "name": "amount",
          "type": "uint256"
        }
      ],
      "name": "transferFrom",
      "outputs": [
        {
          "internalType": "bool",
          "name": "",
          "type": "bool"
        }
      ],
      "stateMutability": "nonpayable",
      "type": "function"
    },
    {
      "inputs": [
        {
          "internalType": "uint256",
          "name": "_assetValueLeft",
          "type": "uint256"
        }
      ],
      "name": "unstake",
      "outputs": [],
      "stateMutability": "nonpayable",
      "type": "function"
    },
    {
      "inputs": [],
      "name": "unstakeAll",
      "outputs": [],
      "stateMutability": "nonpayable",
      "type": "function"
    },
    {
      "inputs": [
        {
          "internalType": "uint256",
          "name": "_assetValueLeft",
          "type": "uint256"
        }
      ],
      "name": "unstakeWithoutClaim",
      "outputs": [],
      "stateMutability": "nonpayable",
      "type": "function"
    },
    {
      "inputs": [
        {
          "internalType": "address",
          "name": "_newAdmin",
          "type": "address"
        }
      ],
      "name": "updateAdmin",
      "outputs": [],
      "stateMutability": "nonpayable",
      "type": "function"
    },
    {
      "inputs": [
        {
          "internalType": "address",
          "name": "",
          "type": "address"
        }
      ],
      "name": "userInfo",
      "outputs": [
        {
          "internalType": "uint256",
          "name": "depositedShare",
          "type": "uint256"
        },
        {
          "internalType": "uint256",
          "name": "lastCheckpointTWAP",
          "type": "uint256"
        },
        {
          "internalType": "uint256",
          "name": "lastCheckpointTime",
          "type": "uint256"
        },
        {
          "internalType": "uint256",
          "name": "lastCheckpointPercentageVested",
          "type": "uint256"
        }
      ],
      "stateMutability": "view",
      "type": "function"
    }
  ],
  "bytecode": "60e06040526203f480600d553480156200001857600080fd5b5060405162003638380380620036388339810160408190526200003b91620002fe565b8282828260009080519060200190620000569291906200018b565b5081516200006c9060019060208501906200018b565b5060ff81166080524660a05262000082620000ef565b60c0525050600680546201000033810262010000600160b01b0319909216919091179182905560405191046001600160a01b031681527f39e7d4b9ba48f55a740a5192809dbc498fa12724c030b37dab126a3f6774c0f3915060200160405180910390a150505062000464565b60007f8b73c3c69bb8fe3d512ecc4cf759cc79239f7b179b0ffacaa9a75d522b39400f6000604051620001239190620003c0565b6040805191829003822060208301939093528101919091527fc89efdaa54c0f20c7adf612882df0950f5a951637e0307cdcb4c672f298b8bc660608201524660808201523060a082015260c00160405160208183030381529060405280519060200120905090565b828054620001999062000383565b90600052602060002090601f016020900481019282620001bd576000855562000208565b82601f10620001d857805160ff191683800117855562000208565b8280016001018555821562000208579182015b8281111562000208578251825591602001919060010190620001eb565b50620002169291506200021a565b5090565b5b808211156200021657600081556001016200021b565b634e487b7160e01b600052604160045260246000fd5b600082601f8301126200025957600080fd5b81516001600160401b038082111562000276576200027662000231565b604051601f8301601f19908116603f01168101908282118183101715620002a157620002a162000231565b81604052838152602092508683858801011115620002be57600080fd5b600091505b83821015620002e25785820183015181830184015290820190620002c3565b83821115620002f45760008385830101525b9695505050505050565b6000806000606084860312156200031457600080fd5b83516001600160401b03808211156200032c57600080fd5b6200033a8783880162000247565b945060208601519150808211156200035157600080fd5b50620003608682870162000247565b925050604084015160ff811681146200037857600080fd5b809150509250925092565b600181811c908216806200039857607f821691505b60208210811415620003ba57634e487b7160e01b600052602260045260246000fd5b50919050565b600080835481600182811c915080831680620003dd57607f831692505b6020808410821415620003fe57634e487b7160e01b86526022600452602486fd5b818015620004155760018114620004275762000456565b60ff1986168952848901965062000456565b60008a81526020902060005b868110156200044e5781548b82015290850190830162000433565b505084890196505b509498975050505050505050565b60805160a05160c0516131a4620004946000396000610f8301526000610f4e0152600061038401526131a46000f3fe608060405234801561001057600080fd5b50600436106102535760003560e01c806370a0823111610146578063a9059cbb116100c3578063dd62ed3e11610087578063dd62ed3e14610593578063e0c9802f146105be578063e2f273bd1461060b578063f5dab7111461061e578063f851a4401461068b578063fed45587146106a457600080fd5b8063a9059cbb14610509578063a93206881461051c578063d32e81a51461056e578063d505accf14610577578063d77a1d3a1461058a57600080fd5b806395d89b411161010a57806395d89b411461049b5780639cfdbd5e146104a3578063a4c8b46b146104c1578063a583024b146104d6578063a694fc3a146104f657600080fd5b806370a082311461043b5780637a55ff211461045b5780637d9fce4d146104635780637ecebe0014610472578063817b1cd21461049257600080fd5b8063313ce567116101d45780634c33fe94116101985780634c33fe94146103d95780634e71d92d146103ec5780634f64b2be146103f45780635da69cb61461041f5780636b9542921461042857600080fd5b8063313ce5671461037f57806335322f37146103b85780633644e515146103c057806336e9b344146103c85780634ae99d30146103d157600080fd5b80631959a0021161021b5780631959a002146102c85780631ae69fb81461031d57806323b872dd146103325780632e17de781461034557806330adf81f1461035857600080fd5b806301c0c3e51461025857806301e1d1141461027e57806306fdde0314610287578063095ea7b31461029c57806318160ddd146102bf575b600080fd5b61026b61026636600461265a565b6106b7565b6040519081526020015b60405180910390f35b61026b600b5481565b61028f6109dd565b60405161027591906126c4565b6102af6102aa3660046126d7565b610a6b565b6040519015158152602001610275565b61026b60025481565b6102fd6102d636600461265a565b600e6020526000908152604090208054600182015460028301546003909301549192909184565b604080519485526020850193909352918301526060820152608001610275565b61033061032b366004612703565b610ad8565b005b6102af61034036600461271c565b610c62565b610330610353366004612703565b610d42565b61026b7f6e71edae12b1b97f4d1f60370fef10105fa2faae0126114a169c64845d6126c981565b6103a67f000000000000000000000000000000000000000000000000000000000000000081565b60405160ff9091168152602001610275565b610330610dcb565b61026b610f4a565b61026b60085481565b610330610fa5565b6103306103e736600461265a565b6112e3565b61026b61131c565b610407610402366004612703565b61139c565b6040516001600160a01b039091168152602001610275565b61026b600d5481565b610330610436366004612a74565b6113c6565b61026b61044936600461265a565b60036020526000908152604090205481565b61026b611712565b61026b670de0b6b3a764000081565b61026b61048036600461265a565b60056020526000908152604090205481565b61026b60115481565b61028f611802565b6104ac61271081565b60405163ffffffff9091168152602001610275565b6104c961180f565b6040516102759190612b57565b6104e96104e436600461265a565b6119f4565b6040516102759190612bd8565b610330610504366004612703565b611a9c565b6102af6105173660046126d7565b611d1b565b61052f61052a366004612703565b611d81565b604080516001600160a01b03938416815282516020808301919091528301516001600160801b0316818301529101519091166060820152608001610275565b61026b600f5481565b610330610585366004612bfa565b611e12565b61026b60105481565b61026b6105a1366004612c6b565b600460209081526000928352604080842090915290825290205481565b600c546105e49063ffffffff80821691600160201b8104821691600160401b9091041683565b6040805163ffffffff94851681529284166020840152921691810191909152606001610275565b61033061061936600461265a565b612063565b61065f61062c36600461265a565b600a6020526000908152604090208054600182015460029092015490916001600160801b0316906001600160a01b031683565b604080519384526001600160801b0390921660208401526001600160a01b031690820152606001610275565b600654610407906201000090046001600160a01b031681565b61028f6106b2366004612703565b6120de565b6001600160a01b0381166000908152600e602052604081206002015442116106e157506000919050565b600c546107049063ffffffff600160201b8204811691600160401b900416612cba565b63ffffffff16421161071857506000919050565b6001600160a01b0382166000908152600e602052604081206003015461073c611712565b6107469190612ce2565b600c5490915060009061076f9063ffffffff600160201b8204811691600160401b900416612cba565b6001600160a01b0385166000908152600e602052604090206002015463ffffffff91909116116107c4576001600160a01b0384166000908152600e60205260409020600201546107bf9042612ce2565b6107f3565b600c5463ffffffff600160401b82048116916107e991600160201b9091041642612ce2565b6107f39190612ce2565b600c5490915060009061081c9063ffffffff600160201b8204811691600160401b900416612cba565b63ffffffff16600f541061089657600b54600f5461083a9042612ce2565b60115461084a9061271090612cf9565b6108549190612cf9565b61085e9190612d18565b6001600160a01b0386166000908152600e60205260409020600101546010546108879190612ce2565b6108919190612d3a565b610923565b600b54600c546108bc9063ffffffff600160201b8204811691600160401b900416612cba565b6108cc9063ffffffff1642612ce2565b6011546108dc9061271090612cf9565b6108e69190612cf9565b6108f09190612d18565b6001600160a01b0386166000908152600e60205260409020600101546010546109199190612ce2565b6109239190612d3a565b905060006109318383612d18565b9050806109445750600095945050505050565b6001600160a01b0386166000908152600e6020526040812054829061096c9061271090612cf9565b6109769190612d18565b90506000670de0b6b3a76400006127106109908489612cf9565b61099a9190612d18565b6109a49190612d18565b9050600d5485106109ba57979650505050505050565b600d546109c78683612cf9565b6109d19190612d18565b98975050505050505050565b600080546109ea90612d52565b80601f0160208091040260200160405190810160405280929190818152602001828054610a1690612d52565b8015610a635780601f10610a3857610100808354040283529160200191610a63565b820191906000526020600020905b815481529060010190602001808311610a4657829003601f168201915b505050505081565b3360008181526004602090815260408083206001600160a01b038716808552925280832085905551919290917f8c5be1e5ebec7d5bd14f71427d1e84f3dd0314c0f7b2291e5b200ac8c7c3b92590610ac69086815260200190565b60405180910390a35060015b92915050565b600b54600090670de0b6b3a7640000610af361271085612cf9565b610afd9190612cf9565b610b079190612d18565b336000908152600e6020526040902054909150811115610b675760405162461bcd60e51b8152602060048201526016602482015275554e5354414b4520414d4f554e5420544f4f2042494760501b60448201526064015b60405180910390fd5b336000908152600e602052604081208054839290610b86908490612ce2565b909155505060405163a9059cbb60e01b815233600482015260248101839052309063a9059cbb906044016020604051808303816000875af1158015610bcf573d6000803e3d6000fd5b505050506040513d601f19601f82011682018060405250810190610bf39190612d8d565b507f2504fcba4204cc42c3da7919528d55ab40c2be512fe40edc8153edc4c5bf2f4433838360105442610c24611712565b604080516001600160a01b0390971687526020870195909552938501929092526060840152608083015260a082015260c00160405180910390a15050565b6001600160a01b03831660009081526004602090815260408083203384529091528120546000198114610cbe57610c998382612ce2565b6001600160a01b03861660009081526004602090815260408083203384529091529020555b6001600160a01b03851660009081526003602052604081208054859290610ce6908490612ce2565b90915550506001600160a01b038085166000818152600360205260409081902080548701905551909187169060008051602061314f83398151915290610d2f9087815260200190565b60405180910390a3506001949350505050565b600f54421115610dbf57600b54600f54610d5c9042612ce2565b601154610d6c9061271090612cf9565b610d769190612cf9565b610d809190612d18565b60106000828254610d919190612d3a565b909155505042600f55610da333612109565b50600b54600090670de0b6b3a7640000610af361271085612cf9565b610da333612109565b50565b600f54421115610f3457600b54600f54610de59042612ce2565b601154610df59061271090612cf9565b610dff9190612cf9565b610e099190612d18565b60106000828254610e1a9190612d3a565b909155505042600f55336000908152600e6020526040902054610e3957565b610e4233612109565b50336000908152600e6020526040812054600b5490919061271090670de0b6b3a764000090610e719085612cf9565b610e7b9190612d18565b610e859190612d18565b60405163a9059cbb60e01b815233600482015260248101829052909150309063a9059cbb906044016020604051808303816000875af1158015610ecc573d6000803e3d6000fd5b505050506040513d601f19601f82011682018060405250810190610ef09190612d8d565b50336000818152600e60205260408120556010547f2504fcba4204cc42c3da7919528d55ab40c2be512fe40edc8153edc4c5bf2f4491908390859042610c24611712565b336000908152600e6020526040902054610e3957565b60007f00000000000000000000000000000000000000000000000000000000000000004614610f8057610f7b612397565b905090565b507f000000000000000000000000000000000000000000000000000000000000000090565b6006546201000090046001600160a01b03163314610fc257600080fd5b60065460ff1615610fd257600080fd5b6006805460ff1916600117905560098054604080516020808402820181019092528281526000939092909183018282801561103657602002820191906000526020600020905b81546001600160a01b03168152600190910190602001808311611018575b50505050509050611060604080516060810182526000808252602082018190529181019190915290565b6000805b835181101561125f57600a600085838151811061108357611083612daf565b6020908102919091018101516001600160a01b0390811683528282019390935260409182016000208251606081018452815480825260018301546001600160801b03169382018490526002909201549094169284018390528751939650928790859081106110f3576110f3612daf565b60209081029190910101516040516323b872dd60e01b81526001600160a01b03848116600483015230602483015260448201869052909116906323b872dd906064016020604051808303816000875af1158015611154573d6000803e3d6000fd5b505050506040513d601f19601f820116820180604052508101906111789190612d8d565b50600087858151811061118d5761118d612daf565b60200260200101516001600160a01b031663313ce5676040518163ffffffff1660e01b8152600401602060405180830381865afa1580156111d2573d6000803e3d6000fd5b505050506040513d601f19601f820116820180604052508101906111f69190612dc5565b61120190600a612ec6565b6112146001600160801b03841686612cf9565b61122690670de0b6b3a7640000612cf9565b6112309190612d18565b905061123c8187612d3a565b95506112488382612431565b50505050808061125790612ed5565b915050611064565b50600c805463ffffffff60401b1916600160401b4263ffffffff9081168202929092179283905561129d92600160201b810483169291900416612cba565b63ffffffff16600f55600b8190556040514281527f83aaee11563f280eac61ebd060f088ce7577d5e823efa6c78de1cfec8167605d9060200160405180910390a1505050565b6006546201000090046001600160a01b0316331461130057600080fd5b60065460ff161561131057600080fd5b806001600160a01b0316ff5b6000600f5442111561138a57600b54600f546113389042612ce2565b6011546113489061271090612cf9565b6113529190612cf9565b61135c9190612d18565b6010600082825461136d9190612d3a565b909155505042600f55600061138133612109565b91506113999050565b600061139533612109565b9150505b90565b600981815481106113ac57600080fd5b6000918252602090912001546001600160a01b0316905081565b600654610100900460ff16156113db57600080fd5b60068054620100003302610100600160b01b0319909116176101001790558451600c80546020880151604089015163ffffffff908116600160401b0263ffffffff60401b19908116928216600160201b0267ffffffffffffffff1990941691909516179190911792909216919091179055835160005b818110156116ad57600a600087838151811061146f5761146f612daf565b6020908102919091018101516001600160a01b03168252810191909152604001600020600101546001600160801b0316156114f65760405162461bcd60e51b815260206004820152602160248201527f544f4b454e204144445245535320414c524541445920494e495449414c495a456044820152601160fa1b6064820152608401610b5e565b600788828151811061150a5761150a612daf565b6020908102919091018101518254600181018455600093845292829020815161153c94919091019291909101906125ac565b506000604051806060016040528085848151811061155c5761155c612daf565b6020026020010151815260200187848151811061157b5761157b612daf565b60200260200101516001600160801b031681526020018684815181106115a3576115a3612daf565b60200260200101516001600160a01b0316815250905080600a60008985815181106115d0576115d0612daf565b6020908102919091018101516001600160a01b03908116835282820193909352604091820160002084518155908401516001820180546fffffffffffffffffffffffffffffffff19166001600160801b03909216919091179055920151600290920180546001600160a01b03191692909116919091179055865160099088908490811061165f5761165f612daf565b60209081029190910181015182546001810184556000938452919092200180546001600160a01b0319166001600160a01b0390921691909117905550806116a581612ed5565b915050611451565b50600954600855600c546040517f489170cfe0f7fcdd8410d20d8a81df8f038624bbcd9814cca42d477e9d1bb46991611701918a91899189918991899163ffffffff600160201b8204811692911690612f62565b60405180910390a150505050505050565b600c54600090600160401b900463ffffffff168061173257600091505090565b600c5463ffffffff1660006117478342613030565b600c5490915063ffffffff8083169161176991600160201b9091041684612cba565b63ffffffff161161179057611788670de0b6b3a7640000612710612cf9565b935050505090565b600c5463ffffffff600160201b9091048116908216116117b4576000935050505090565b600c5463ffffffff80841691612710916117d691600160201b90041684613030565b6117ee9063ffffffff16670de0b6b3a7640000612cf9565b6117f89190612cf9565b6117889190612d18565b600180546109ea90612d52565b60095460609060009067ffffffffffffffff8111156118305761183061275d565b604051908082528060200260200182016040528015611859578160200160208202803683370190505b50905060008060005b6009548110156119eb57600a60006009838154811061188357611883612daf565b60009182526020808320909101546001600160a01b03908116845290830193909352604090910190206002015460098054919092169450829081106118ca576118ca612daf565b600091825260209091200154604051636eb1769f60e11b81526001600160a01b0385811660048301523060248301529091169063dd62ed3e90604401602060405180830381865afa158015611923573d6000803e3d6000fd5b505050506040513d601f19601f820116820180604052508101906119479190613055565b9150600a60006009838154811061196057611960612daf565b60009182526020808320909101546001600160a01b0316835282019290925260400190205482106119b457600184828151811061199f5761199f612daf565b911515602092830291909101909101526119d9565b60008482815181106119c8576119c8612daf565b911515602092830291909101909101525b806119e381612ed5565b915050611862565b50919392505050565b60606000611a01836106b7565b60095490915060009067ffffffffffffffff811115611a2257611a2261275d565b604051908082528060200260200182016040528015611a4b578160200160208202803683370190505b50905060005b600954811015611a9457611a65838261248b565b828281518110611a7757611a77612daf565b602090810291909101015280611a8c81612ed5565b915050611a51565b509392505050565b600f54421115611cc057600b54600f54611ab69042612ce2565b601154611ac69061271090612cf9565b611ad09190612cf9565b611ada9190612d18565b60106000828254611aeb9190612d3a565b909155505042600f55336000818152600360205260409020543090831115611b4f5760405162461bcd60e51b81526020600482015260176024820152760aaa68aa440848298829c868a409c9ea8408a9c9eaa8e9604b1b6044820152606401610b5e565b6001600160a01b03808316600090815260036020526040808220805487900390559183168152908120805485019055600b54670de0b6b3a7640000611b9661271087612cf9565b611ba09190612cf9565b611baa9190612d18565b601054909150426000611bbb611712565b60408051608081018252868152602080820187815282840187815260608401868152336000908152600e909452948320845181559151600183015551600282015592516003909301929092556011805493945090928a9290611c1e908490612d3a565b92505081905550856001600160a01b0316876001600160a01b031660008051602061314f8339815191528a604051611c5891815260200190565b60405180910390a360408051338152602081018a9052908101869052606081018590526080810184905260a081018390527f9dfa08abae6c607453d7ef936fd3d42c4afc359dcfa226a49be696604a2468459060c00160405180910390a15050505050505050565b336000818152600360205260409020543090831115611b4f5760405162461bcd60e51b81526020600482015260176024820152760aaa68aa440848298829c868a409c9ea8408a9c9eaa8e9604b1b6044820152606401610b5e565b33600090815260036020526040812080548391908390611d3c908490612ce2565b90915550506001600160a01b0383166000818152600360205260409081902080548501905551339060008051602061314f83398151915290610ac69086815260200190565b60408051606081018252600080825260208201819052918101829052600060098481548110611db257611db2612daf565b60009182526020808320909101546001600160a01b03908116808452600a835260409384902084516060810186528154815260018201546001600160801b0316948101949094526002015490911692820192909252909590945092505050565b42841015611e625760405162461bcd60e51b815260206004820152601760248201527f5045524d49545f444541444c494e455f455850495245440000000000000000006044820152606401610b5e565b6000611e6c610f4a565b6001600160a01b0389811660008181526005602090815260409182902080546001810190915582517f6e71edae12b1b97f4d1f60370fef10105fa2faae0126114a169c64845d6126c98184015280840194909452938c166060840152608083018b905260a083019390935260c08083018a90528151808403909101815260e08301909152805192019190912061190160f01b6101008301526101028201929092526101228101919091526101420160408051601f198184030181528282528051602091820120600080855291840180845281905260ff88169284019290925260608301869052608083018590529092509060019060a0016020604051602081039080840390855afa158015611f85573d6000803e3d6000fd5b5050604051601f1901519150506001600160a01b03811615801590611fbb5750886001600160a01b0316816001600160a01b0316145b611ff85760405162461bcd60e51b815260206004820152600e60248201526d24a72b20a624a22fa9a4a3a722a960911b6044820152606401610b5e565b6001600160a01b0390811660009081526004602090815260408083208b8516808552908352928190208a905551898152919350918a16917f8c5be1e5ebec7d5bd14f71427d1e84f3dd0314c0f7b2291e5b200ac8c7c3b925910160405180910390a350505050505050565b6006546201000090046001600160a01b0316331461208057600080fd5b6006805462010000600160b01b031916620100006001600160a01b038416908102919091179091556040519081527f39e7d4b9ba48f55a740a5192809dbc498fa12724c030b37dab126a3f6774c0f39060200160405180910390a150565b600781815481106120ee57600080fd5b9060005260206000200160009150905080546109ea90612d52565b600080612115836106b7565b90506000600980548060200260200160405190810160405280929190818152602001828054801561216f57602002820191906000526020600020905b81546001600160a01b03168152600190910190602001808311612151575b505050505090506000815167ffffffffffffffff8111156121925761219261275d565b6040519080825280602002602001820160405280156121bb578160200160208202803683370190505b509050821561238f576010546001600160a01b0386166000908152600e60205260409020600101556121eb611712565b6001600160a01b0386166000908152600e602052604081206003810192909255426002830155815485929190612222908490612ce2565b9091555050600b54600090670de0b6b3a7640000906122419086612cf9565b61224b9190612d18565b9050600061225b61271083612d18565b9050612267308261254a565b60005b845181101561234657600061227f878361248b565b90508085838151811061229457612294612daf565b6020026020010181815250508582815181106122b2576122b2612daf565b602090810291909101015160405163a9059cbb60e01b81526001600160a01b038b81166004830152602482018490529091169063a9059cbb906044016020604051808303816000875af115801561230d573d6000803e3d6000fd5b505050506040513d601f19601f820116820180604052508101906123319190612d8d565b5050808061233e90612ed5565b91505061226a565b507fbbfaf902cec9107d8131a7888c2b89c5e5820ff6319b992657e8eaa9a36feced8786868660405161237c949392919061306e565b60405180910390a1509295945050505050565b505050919050565b60007f8b73c3c69bb8fe3d512ecc4cf759cc79239f7b179b0ffacaa9a75d522b39400f60006040516123c991906130b2565b6040805191829003822060208301939093528101919091527fc89efdaa54c0f20c7adf612882df0950f5a951637e0307cdcb4c672f298b8bc660608201524660808201523060a082015260c00160405160208183030381529060405280519060200120905090565b80600260008282546124439190612d3a565b90915550506001600160a01b03821660008181526003602090815260408083208054860190555184815260008051602061314f83398151915291015b60405180910390a35050565b60095460009082106124d65760405162461bcd60e51b81526020600482015260146024820152731d1bdad95b92590813d5550813d1881093d5539160621b6044820152606401610b5e565b61271063ffffffff16670de0b6b3a764000084600a60006009878154811061250057612500612daf565b60009182526020808320909101546001600160a01b0316835282019290925260400190205461252f9190612cf9565b6125399190612d18565b6125439190612d18565b9392505050565b6001600160a01b03821660009081526003602052604081208054839290612572908490612ce2565b90915550506002805482900390556040518181526000906001600160a01b0384169060008051602061314f8339815191529060200161247f565b8280546125b890612d52565b90600052602060002090601f0160209004810192826125da5760008555612620565b82601f106125f357805160ff1916838001178555612620565b82800160010185558215612620579182015b82811115612620578251825591602001919060010190612605565b5061262c929150612630565b5090565b5b8082111561262c5760008155600101612631565b6001600160a01b0381168114610dc857600080fd5b60006020828403121561266c57600080fd5b813561254381612645565b6000815180845260005b8181101561269d57602081850181015186830182015201612681565b818111156126af576000602083870101525b50601f01601f19169290920160200192915050565b6020815260006125436020830184612677565b600080604083850312156126ea57600080fd5b82356126f581612645565b946020939093013593505050565b60006020828403121561271557600080fd5b5035919050565b60008060006060848603121561273157600080fd5b833561273c81612645565b9250602084013561274c81612645565b929592945050506040919091013590565b634e487b7160e01b600052604160045260246000fd5b604051601f8201601f1916810167ffffffffffffffff8111828210171561279c5761279c61275d565b604052919050565b600067ffffffffffffffff8211156127be576127be61275d565b5060051b60200190565b6000601f83818401126127da57600080fd5b823560206127ef6127ea836127a4565b612773565b82815260059290921b8501810191818101908784111561280e57600080fd5b8287015b848110156128a557803567ffffffffffffffff808211156128335760008081fd5b818a0191508a603f8301126128485760008081fd5b8582013560408282111561285e5761285e61275d565b61286f828b01601f19168901612773565b92508183528c818386010111156128865760008081fd5b8181850189850137506000908201870152845250918301918301612812565b50979650505050505050565b803563ffffffff811681146128c557600080fd5b919050565b6000606082840312156128dc57600080fd5b6040516060810181811067ffffffffffffffff821117156128ff576128ff61275d565b60405290508061290e836128b1565b815261291c602084016128b1565b602082015261292d604084016128b1565b60408201525092915050565b600082601f83011261294a57600080fd5b8135602061295a6127ea836127a4565b82815260059290921b8401810191818101908684111561297957600080fd5b8286015b8481101561299d57803561299081612645565b835291830191830161297d565b509695505050505050565b600082601f8301126129b957600080fd5b813560206129c96127ea836127a4565b82815260059290921b840181019181810190868411156129e857600080fd5b8286015b8481101561299d5780356001600160801b0381168114612a0c5760008081fd5b83529183019183016129ec565b600082601f830112612a2a57600080fd5b81356020612a3a6127ea836127a4565b82815260059290921b84018101918181019086841115612a5957600080fd5b8286015b8481101561299d5780358352918301918301612a5d565b6000806000806000806101008789031215612a8e57600080fd5b863567ffffffffffffffff80821115612aa657600080fd5b612ab28a838b016127c8565b9750612ac18a60208b016128ca565b96506080890135915080821115612ad757600080fd5b612ae38a838b01612939565b955060a0890135915080821115612af957600080fd5b612b058a838b016129a8565b945060c0890135915080821115612b1b57600080fd5b612b278a838b01612939565b935060e0890135915080821115612b3d57600080fd5b50612b4a89828a01612a19565b9150509295509295509295565b6020808252825182820181905260009190848201906040850190845b81811015612b91578351151583529284019291840191600101612b73565b50909695505050505050565b600081518084526020808501945080840160005b83811015612bcd57815187529582019590820190600101612bb1565b509495945050505050565b6020815260006125436020830184612b9d565b60ff81168114610dc857600080fd5b600080600080600080600060e0888a031215612c1557600080fd5b8735612c2081612645565b96506020880135612c3081612645565b955060408801359450606088013593506080880135612c4e81612beb565b9699959850939692959460a0840135945060c09093013592915050565b60008060408385031215612c7e57600080fd5b8235612c8981612645565b91506020830135612c9981612645565b809150509250929050565b634e487b7160e01b600052601160045260246000fd5b600063ffffffff808316818516808303821115612cd957612cd9612ca4565b01949350505050565b600082821015612cf457612cf4612ca4565b500390565b6000816000190483118215151615612d1357612d13612ca4565b500290565b600082612d3557634e487b7160e01b600052601260045260246000fd5b500490565b60008219821115612d4d57612d4d612ca4565b500190565b600181811c90821680612d6657607f821691505b60208210811415612d8757634e487b7160e01b600052602260045260246000fd5b50919050565b600060208284031215612d9f57600080fd5b8151801515811461254357600080fd5b634e487b7160e01b600052603260045260246000fd5b600060208284031215612dd757600080fd5b815161254381612beb565b600181815b80851115612e1d578160001904821115612e0357612e03612ca4565b80851615612e1057918102915b93841c9390800290612de7565b509250929050565b600082612e3457506001610ad2565b81612e4157506000610ad2565b8160018114612e575760028114612e6157612e7d565b6001915050610ad2565b60ff841115612e7257612e72612ca4565b50506001821b610ad2565b5060208310610133831016604e8410600b8410161715612ea0575081810a610ad2565b612eaa8383612de2565b8060001904821115612ebe57612ebe612ca4565b029392505050565b600061254360ff841683612e25565b6000600019821415612ee957612ee9612ca4565b5060010190565b600081518084526020808501945080840160005b83811015612bcd5781516001600160a01b031687529582019590820190600101612f04565b600081518084526020808501945080840160005b83811015612bcd5781516001600160801b031687529582019590820190600101612f3d565b60e08082528851908201819052600090610100600582901b8401810191908401906020808d01855b83811015612fb85760ff19888703018552612fa6868351612677565b95509382019390820190600101612f8a565b505085840381870152505050612fce818a612ef0565b90508281036040840152612fe28189612f29565b90508281036060840152612ff68188612ef0565b9050828103608084015261300a8187612b9d565b91505061301f60a083018563ffffffff169052565b63ffffffff831660c08301526109d1565b600063ffffffff8381169083168181101561304d5761304d612ca4565b039392505050565b60006020828403121561306757600080fd5b5051919050565b60018060a01b03851681528360208201526080604082015260006130956080830185612ef0565b82810360608401526130a78185612b9d565b979650505050505050565b600080835481600182811c9150808316806130ce57607f831692505b60208084108214156130ee57634e487b7160e01b86526022600452602486fd5b818015613102576001811461311357613140565b60ff19861689528489019650613140565b60008a81526020902060005b868110156131385781548b82015290850190830161311f565b505084890196505b50949897505050505050505056feddf252ad1be2c89b69c2b068fc378daa952ba7f163c4a11628f55a4df523b3efa26469706673582212209d50f51d2562bcf6326132389f7d29d0b87dd67f993b2478bf2fb924496e7fea64736f6c634300080a0033",
  "bytecodeSha1": "18f7f38ec57c8a7a20fbdf787c24f7ce5d1a27d1",
  "compiler": {
    "evm_version": "istanbul",
    "optimizer": {
      "enabled": true,
      "runs": 200
    },
    "version": "0.8.10+commit.fc410830"
  },
  "contractName": "BuidlCollective",
  "language": "Solidity",
  "natspec": {
    "kind": "dev",
    "methods": {
      "calculateShareToClaim(address)": {
        "details": "releaseFactor plays a role in slowly releasing the vested amounts",
        "notice": "calculate the shares (in BPs) to claim for a particular user     updated = true means updateCheckpoint is run aldy, used in state transition function     updated = false means updateCheckpoint is not run, used in view function",
        "params": {
          "_staker": "address of the staker"
        },
        "returns": {
          "_0": "percentage of shares (in BPs)"
        }
      },
      "cancel(address)": {
        "notice": "admin function to cancel a collective, only before startCollective()",
        "params": {
          "_to": "address to send back the eth during contract deployment"
        }
      },
      "claim()": {
        "notice": "claim would convert the ERC20 representation tokens into the underlying tokens based on the claimable quota."
      },
      "getClaimable(address)": {
        "notice": "function to read a staker's claimable",
        "params": {
          "_staker": "address of staker"
        },
        "returns": {
          "_0": "the amounts of underlying tokens"
        }
      },
      "getVestingPercent()": {
        "notice": "helper function to calculate the percentage (in BPs) of share vested in the vesting schedule",
        "returns": {
          "_0": "percentage of shares (in BPs) * VEST_MULTIPLIER"
        }
      },
      "initialize(string[],(uint32,uint32,uint32),address[],uint128[],address[],uint256[])": {
        "notice": "admin function to initialize a collective  this version assumes 1 tokens are sent in by 1 address",
        "params": {
          "_collectiveInfo": "defines vestingPeriod and cliff, startTime would be override in startCollective()",
          "_namesOfParticipants": "name of participants",
          "_prices": "price of each tokens, would be used for calculating shares with _targets",
          "_targets": "tokens amounts  TODO: change name and symbol of token => name of collective",
          "_tokens": "name of participants",
          "_users": "address of users to pull funds during startCollective()"
        }
      },
      "pokeApproval()": {
        "notice": "only when all tokens involved return true can the admin start the collective ",
        "returns": {
          "_0": "return if tokens approval is completed for each tokens involved"
        }
      },
      "readToken(uint256)": {
        "notice": "function to read a defined tokens' address and specification in the collective",
        "params": {
          "_tokenId": "position of the token during initialize()"
        }
      },
      "stake(uint256)": {
        "notice": "staking ERC20 representation tokens would slowly convert your representation tokens to the underlying tokens     if the vesting schedule has already started. ",
        "params": {
          "_assetValue": "the amount of ERC20 representation tokens to stake"
        }
      },
      "startCollective()": {
        "notice": "admin function to start the collective     during starting the contract would pull the predefined quantities of tokens      from the users defined in initialize()     any user defined in the initialize() that has not done approve in advance for their tokens     would lead to failure of this function"
      },
      "unstake(uint256)": {
        "details": "the unstake amount should be the remainder of claimable since the function would call claim first.",
        "notice": "unstake and withdraw the ERC20 representation tokens that are previously staked     if any of them is not converted to underlying tokens.",
        "params": {
          "_assetValueLeft": "the amount of ERC20 representation tokens to unstake"
        }
      },
      "unstakeAll()": {
        "notice": "unstake and withdraw ALL the ERC20 representation tokens that are previously staked     if any of them is not converted to underlying tokens."
      },
      "unstakeWithoutClaim(uint256)": {
        "details": "the unstake amount can be as big as the previously staked amount",
        "notice": "unstake and withdraw the ERC20 representation tokens that are previously staked     without claiming, essentially forsaking the claimable",
        "params": {
          "_assetValueLeft": "the amount of ERC20 representation tokens to unstake"
        }
      },
      "updateAdmin(address)": {
        "notice": "admin function to transfer admin ownership",
        "params": {
          "_newAdmin": "address of new admin"
        }
      }
    },
    "notice": "Create a uniform vesting schedule for multiple underlying tokens, which can be redeemed gradually through staking the ERC20 representation LP token.     ###############################################     BuidlCollective Specification     The BuidlCollective provides a way for co-vesting to be implemented on the block chain,         allowing multiple parties who seek to co-vest their tokens to initialize a collective,         providing approval for their corresponding liquid tokens, and start the vesting sychronously.          After the covesting is started, underlying tokens would be released according to the schedule and          be allocated to the staked ERC20 representation LP proportionally. Each LP tokens are guarantteed the          same amount of underlying tokens.      LP tokens can be freely transferred but would need to undergo staking in order to convert to the underlying tokens.     If 100% of representation LP tokens are staked, then the staked LP tokens are converted to underlying tokens     just like the vesting schedule     If 50% of representation LP tokens are staked, then the staked LP tokens are converted to underlying tokens     with half of the vesting time needed.      There is a 3-day releaseFactor that adjusts the rate staking position can claim their underlying tokens.     If a staked position can convert LP to 1% of the underlying tokens by staking 5 days. Since 5 days is more      than the releaseFactor (3-day), 1% full amount is converted.      If a staked position can convert LP to 1% of the underlying tokens by staking 1.5 days. Since 1.5 days is less     than the releaseFactor (3-day), pro-rated amount is converted, in this case, 1.5/3 * 1% = 0.5% is converted.     ###############################################",
    "title": "BuidlCollective",
    "version": 1
  },
  "opcodes": "PUSH1 0x80 PUSH1 0x40 MSTORE CALLVALUE DUP1 ISZERO PUSH2 0x10 JUMPI PUSH1 0x0 DUP1 REVERT JUMPDEST POP PUSH1 0x4 CALLDATASIZE LT PUSH2 0x253 JUMPI PUSH1 0x0 CALLDATALOAD PUSH1 0xE0 SHR DUP1 PUSH4 0x70A08231 GT PUSH2 0x146 JUMPI DUP1 PUSH4 0xA9059CBB GT PUSH2 0xC3 JUMPI DUP1 PUSH4 0xDD62ED3E GT PUSH2 0x87 JUMPI DUP1 PUSH4 0xDD62ED3E EQ PUSH2 0x593 JUMPI DUP1 PUSH4 0xE0C9802F EQ PUSH2 0x5BE JUMPI DUP1 PUSH4 0xE2F273BD EQ PUSH2 0x60B JUMPI DUP1 PUSH4 0xF5DAB711 EQ PUSH2 0x61E JUMPI DUP1 PUSH4 0xF851A440 EQ PUSH2 0x68B JUMPI DUP1 PUSH4 0xFED45587 EQ PUSH2 0x6A4 JUMPI PUSH1 0x0 DUP1 REVERT JUMPDEST DUP1 PUSH4 0xA9059CBB EQ PUSH2 0x509 JUMPI DUP1 PUSH4 0xA9320688 EQ PUSH2 0x51C JUMPI DUP1 PUSH4 0xD32E81A5 EQ PUSH2 0x56E JUMPI DUP1 PUSH4 0xD505ACCF EQ PUSH2 0x577 JUMPI DUP1 PUSH4 0xD77A1D3A EQ PUSH2 0x58A JUMPI PUSH1 0x0 DUP1 REVERT JUMPDEST DUP1 PUSH4 0x95D89B41 GT PUSH2 0x10A JUMPI DUP1 PUSH4 0x95D89B41 EQ PUSH2 0x49B JUMPI DUP1 PUSH4 0x9CFDBD5E EQ PUSH2 0x4A3 JUMPI DUP1 PUSH4 0xA4C8B46B EQ PUSH2 0x4C1 JUMPI DUP1 PUSH4 0xA583024B EQ PUSH2 0x4D6 JUMPI DUP1 PUSH4 0xA694FC3A EQ PUSH2 0x4F6 JUMPI PUSH1 0x0 DUP1 REVERT JUMPDEST DUP1 PUSH4 0x70A08231 EQ PUSH2 0x43B JUMPI DUP1 PUSH4 0x7A55FF21 EQ PUSH2 0x45B JUMPI DUP1 PUSH4 0x7D9FCE4D EQ PUSH2 0x463 JUMPI DUP1 PUSH4 0x7ECEBE00 EQ PUSH2 0x472 JUMPI DUP1 PUSH4 0x817B1CD2 EQ PUSH2 0x492 JUMPI PUSH1 0x0 DUP1 REVERT JUMPDEST DUP1 PUSH4 0x313CE567 GT PUSH2 0x1D4 JUMPI DUP1 PUSH4 0x4C33FE94 GT PUSH2 0x198 JUMPI DUP1 PUSH4 0x4C33FE94 EQ PUSH2 0x3D9 JUMPI DUP1 PUSH4 0x4E71D92D EQ PUSH2 0x3EC JUMPI DUP1 PUSH4 0x4F64B2BE EQ PUSH2 0x3F4 JUMPI DUP1 PUSH4 0x5DA69CB6 EQ PUSH2 0x41F JUMPI DUP1 PUSH4 0x6B954292 EQ PUSH2 0x428 JUMPI PUSH1 0x0 DUP1 REVERT JUMPDEST DUP1 PUSH4 0x313CE567 EQ PUSH2 0x37F JUMPI DUP1 PUSH4 0x35322F37 EQ PUSH2 0x3B8 JUMPI DUP1 PUSH4 0x3644E515 EQ PUSH2 0x3C0 JUMPI DUP1 PUSH4 0x36E9B344 EQ PUSH2 0x3C8 JUMPI DUP1 PUSH4 0x4AE99D30 EQ PUSH2 0x3D1 JUMPI PUSH1 0x0 DUP1 REVERT JUMPDEST DUP1 PUSH4 0x1959A002 GT PUSH2 0x21B JUMPI DUP1 PUSH4 0x1959A002 EQ PUSH2 0x2C8 JUMPI DUP1 PUSH4 0x1AE69FB8 EQ PUSH2 0x31D JUMPI DUP1 PUSH4 0x23B872DD EQ PUSH2 0x332 JUMPI DUP1 PUSH4 0x2E17DE78 EQ PUSH2 0x345 JUMPI DUP1 PUSH4 0x30ADF81F EQ PUSH2 0x358 JUMPI PUSH1 0x0 DUP1 REVERT JUMPDEST DUP1 PUSH4 0x1C0C3E5 EQ PUSH2 0x258 JUMPI DUP1 PUSH4 0x1E1D114 EQ PUSH2 0x27E JUMPI DUP1 PUSH4 0x6FDDE03 EQ PUSH2 0x287 JUMPI DUP1 PUSH4 0x95EA7B3 EQ PUSH2 0x29C JUMPI DUP1 PUSH4 0x18160DDD EQ PUSH2 0x2BF JUMPI JUMPDEST PUSH1 0x0 DUP1 REVERT JUMPDEST PUSH2 0x26B PUSH2 0x266 CALLDATASIZE PUSH1 0x4 PUSH2 0x265A JUMP JUMPDEST PUSH2 0x6B7 JUMP JUMPDEST PUSH1 0x40 MLOAD SWAP1 DUP2 MSTORE PUSH1 0x20 ADD JUMPDEST PUSH1 0x40 MLOAD DUP1 SWAP2 SUB SWAP1 RETURN JUMPDEST PUSH2 0x26B PUSH1 0xB SLOAD DUP2 JUMP JUMPDEST PUSH2 0x28F PUSH2 0x9DD JUMP JUMPDEST PUSH1 0x40 MLOAD PUSH2 0x275 SWAP2 SWAP1 PUSH2 0x26C4 JUMP JUMPDEST PUSH2 0x2AF PUSH2 0x2AA CALLDATASIZE PUSH1 0x4 PUSH2 0x26D7 JUMP JUMPDEST PUSH2 0xA6B JUMP JUMPDEST PUSH1 0x40 MLOAD SWAP1 ISZERO ISZERO DUP2 MSTORE PUSH1 0x20 ADD PUSH2 0x275 JUMP JUMPDEST PUSH2 0x26B PUSH1 0x2 SLOAD DUP2 JUMP JUMPDEST PUSH2 0x2FD PUSH2 0x2D6 CALLDATASIZE PUSH1 0x4 PUSH2 0x265A JUMP JUMPDEST PUSH1 0xE PUSH1 0x20 MSTORE PUSH1 0x0 SWAP1 DUP2 MSTORE PUSH1 0x40 SWAP1 KECCAK256 DUP1 SLOAD PUSH1 0x1 DUP3 ADD SLOAD PUSH1 0x2 DUP4 ADD SLOAD PUSH1 0x3 SWAP1 SWAP4 ADD SLOAD SWAP2 SWAP3 SWAP1 SWAP2 DUP5 JUMP JUMPDEST PUSH1 0x40 DUP1 MLOAD SWAP5 DUP6 MSTORE PUSH1 0x20 DUP6 ADD SWAP4 SWAP1 SWAP4 MSTORE SWAP2 DUP4 ADD MSTORE PUSH1 0x60 DUP3 ADD MSTORE PUSH1 0x80 ADD PUSH2 0x275 JUMP JUMPDEST PUSH2 0x330 PUSH2 0x32B CALLDATASIZE PUSH1 0x4 PUSH2 0x2703 JUMP JUMPDEST PUSH2 0xAD8 JUMP JUMPDEST STOP JUMPDEST PUSH2 0x2AF PUSH2 0x340 CALLDATASIZE PUSH1 0x4 PUSH2 0x271C JUMP JUMPDEST PUSH2 0xC62 JUMP JUMPDEST PUSH2 0x330 PUSH2 0x353 CALLDATASIZE PUSH1 0x4 PUSH2 0x2703 JUMP JUMPDEST PUSH2 0xD42 JUMP JUMPDEST PUSH2 0x26B PUSH32 0x6E71EDAE12B1B97F4D1F60370FEF10105FA2FAAE0126114A169C64845D6126C9 DUP2 JUMP JUMPDEST PUSH2 0x3A6 PUSH32 0x0 DUP2 JUMP JUMPDEST PUSH1 0x40 MLOAD PUSH1 0xFF SWAP1 SWAP2 AND DUP2 MSTORE PUSH1 0x20 ADD PUSH2 0x275 JUMP JUMPDEST PUSH2 0x330 PUSH2 0xDCB JUMP JUMPDEST PUSH2 0x26B PUSH2 0xF4A JUMP JUMPDEST PUSH2 0x26B PUSH1 0x8 SLOAD DUP2 JUMP JUMPDEST PUSH2 0x330 PUSH2 0xFA5 JUMP JUMPDEST PUSH2 0x330 PUSH2 0x3E7 CALLDATASIZE PUSH1 0x4 PUSH2 0x265A JUMP JUMPDEST PUSH2 0x12E3 JUMP JUMPDEST PUSH2 0x26B PUSH2 0x131C JUMP JUMPDEST PUSH2 0x407 PUSH2 0x402 CALLDATASIZE PUSH1 0x4 PUSH2 0x2703 JUMP JUMPDEST PUSH2 0x139C JUMP JUMPDEST PUSH1 0x40 MLOAD PUSH1 0x1 PUSH1 0x1 PUSH1 0xA0 SHL SUB SWAP1 SWAP2 AND DUP2 MSTORE PUSH1 0x20 ADD PUSH2 0x275 JUMP JUMPDEST PUSH2 0x26B PUSH1 0xD SLOAD DUP2 JUMP JUMPDEST PUSH2 0x330 PUSH2 0x436 CALLDATASIZE PUSH1 0x4 PUSH2 0x2A74 JUMP JUMPDEST PUSH2 0x13C6 JUMP JUMPDEST PUSH2 0x26B PUSH2 0x449 CALLDATASIZE PUSH1 0x4 PUSH2 0x265A JUMP JUMPDEST PUSH1 0x3 PUSH1 0x20 MSTORE PUSH1 0x0 SWAP1 DUP2 MSTORE PUSH1 0x40 SWAP1 KECCAK256 SLOAD DUP2 JUMP JUMPDEST PUSH2 0x26B PUSH2 0x1712 JUMP JUMPDEST PUSH2 0x26B PUSH8 0xDE0B6B3A7640000 DUP2 JUMP JUMPDEST PUSH2 0x26B PUSH2 0x480 CALLDATASIZE PUSH1 0x4 PUSH2 0x265A JUMP JUMPDEST PUSH1 0x5 PUSH1 0x20 MSTORE PUSH1 0x0 SWAP1 DUP2 MSTORE PUSH1 0x40 SWAP1 KECCAK256 SLOAD DUP2 JUMP JUMPDEST PUSH2 0x26B PUSH1 0x11 SLOAD DUP2 JUMP JUMPDEST PUSH2 0x28F PUSH2 0x1802 JUMP JUMPDEST PUSH2 0x4AC PUSH2 0x2710 DUP2 JUMP JUMPDEST PUSH1 0x40 MLOAD PUSH4 0xFFFFFFFF SWAP1 SWAP2 AND DUP2 MSTORE PUSH1 0x20 ADD PUSH2 0x275 JUMP JUMPDEST PUSH2 0x4C9 PUSH2 0x180F JUMP JUMPDEST PUSH1 0x40 MLOAD PUSH2 0x275 SWAP2 SWAP1 PUSH2 0x2B57 JUMP JUMPDEST PUSH2 0x4E9 PUSH2 0x4E4 CALLDATASIZE PUSH1 0x4 PUSH2 0x265A JUMP JUMPDEST PUSH2 0x19F4 JUMP JUMPDEST PUSH1 0x40 MLOAD PUSH2 0x275 SWAP2 SWAP1 PUSH2 0x2BD8 JUMP JUMPDEST PUSH2 0x330 PUSH2 0x504 CALLDATASIZE PUSH1 0x4 PUSH2 0x2703 JUMP JUMPDEST PUSH2 0x1A9C JUMP JUMPDEST PUSH2 0x2AF PUSH2 0x517 CALLDATASIZE PUSH1 0x4 PUSH2 0x26D7 JUMP JUMPDEST PUSH2 0x1D1B JUMP JUMPDEST PUSH2 0x52F PUSH2 0x52A CALLDATASIZE PUSH1 0x4 PUSH2 0x2703 JUMP JUMPDEST PUSH2 0x1D81 JUMP JUMPDEST PUSH1 0x40 DUP1 MLOAD PUSH1 0x1 PUSH1 0x1 PUSH1 0xA0 SHL SUB SWAP4 DUP5 AND DUP2 MSTORE DUP3 MLOAD PUSH1 0x20 DUP1 DUP4 ADD SWAP2 SWAP1 SWAP2 MSTORE DUP4 ADD MLOAD PUSH1 0x1 PUSH1 0x1 PUSH1 0x80 SHL SUB AND DUP2 DUP4 ADD MSTORE SWAP2 ADD MLOAD SWAP1 SWAP2 AND PUSH1 0x60 DUP3 ADD MSTORE PUSH1 0x80 ADD PUSH2 0x275 JUMP JUMPDEST PUSH2 0x26B PUSH1 0xF SLOAD DUP2 JUMP JUMPDEST PUSH2 0x330 PUSH2 0x585 CALLDATASIZE PUSH1 0x4 PUSH2 0x2BFA JUMP JUMPDEST PUSH2 0x1E12 JUMP JUMPDEST PUSH2 0x26B PUSH1 0x10 SLOAD DUP2 JUMP JUMPDEST PUSH2 0x26B PUSH2 0x5A1 CALLDATASIZE PUSH1 0x4 PUSH2 0x2C6B JUMP JUMPDEST PUSH1 0x4 PUSH1 0x20 SWAP1 DUP2 MSTORE PUSH1 0x0 SWAP3 DUP4 MSTORE PUSH1 0x40 DUP1 DUP5 KECCAK256 SWAP1 SWAP2 MSTORE SWAP1 DUP3 MSTORE SWAP1 KECCAK256 SLOAD DUP2 JUMP JUMPDEST PUSH1 0xC SLOAD PUSH2 0x5E4 SWAP1 PUSH4 0xFFFFFFFF DUP1 DUP3 AND SWAP2 PUSH1 0x1 PUSH1 0x20 SHL DUP2 DIV DUP3 AND SWAP2 PUSH1 0x1 PUSH1 0x40 SHL SWAP1 SWAP2 DIV AND DUP4 JUMP JUMPDEST PUSH1 0x40 DUP1 MLOAD PUSH4 0xFFFFFFFF SWAP5 DUP6 AND DUP2 MSTORE SWAP3 DUP5 AND PUSH1 0x20 DUP5 ADD MSTORE SWAP3 AND SWAP2 DUP2 ADD SWAP2 SWAP1 SWAP2 MSTORE PUSH1 0x60 ADD PUSH2 0x275 JUMP JUMPDEST PUSH2 0x330 PUSH2 0x619 CALLDATASIZE PUSH1 0x4 PUSH2 0x265A JUMP JUMPDEST PUSH2 0x2063 JUMP JUMPDEST PUSH2 0x65F PUSH2 0x62C CALLDATASIZE PUSH1 0x4 PUSH2 0x265A JUMP JUMPDEST PUSH1 0xA PUSH1 0x20 MSTORE PUSH1 0x0 SWAP1 DUP2 MSTORE PUSH1 0x40 SWAP1 KECCAK256 DUP1 SLOAD PUSH1 0x1 DUP3 ADD SLOAD PUSH1 0x2 SWAP1 SWAP3 ADD SLOAD SWAP1 SWAP2 PUSH1 0x1 PUSH1 0x1 PUSH1 0x80 SHL SUB AND SWAP1 PUSH1 0x1 PUSH1 0x1 PUSH1 0xA0 SHL SUB AND DUP4 JUMP JUMPDEST PUSH1 0x40 DUP1 MLOAD SWAP4 DUP5 MSTORE PUSH1 0x1 PUSH1 0x1 PUSH1 0x80 SHL SUB SWAP1 SWAP3 AND PUSH1 0x20 DUP5 ADD MSTORE PUSH1 0x1 PUSH1 0x1 PUSH1 0xA0 SHL SUB AND SWAP1 DUP3 ADD MSTORE PUSH1 0x60 ADD PUSH2 0x275 JUMP JUMPDEST PUSH1 0x6 SLOAD PUSH2 0x407 SWAP1 PUSH3 0x10000 SWAP1 DIV PUSH1 0x1 PUSH1 0x1 PUSH1 0xA0 SHL SUB AND DUP2 JUMP JUMPDEST PUSH2 0x28F PUSH2 0x6B2 CALLDATASIZE PUSH1 0x4 PUSH2 0x2703 JUMP JUMPDEST PUSH2 0x20DE JUMP JUMPDEST PUSH1 0x1 PUSH1 0x1 PUSH1 0xA0 SHL SUB DUP2 AND PUSH1 0x0 SWAP1 DUP2 MSTORE PUSH1 0xE PUSH1 0x20 MSTORE PUSH1 0x40 DUP2 KECCAK256 PUSH1 0x2 ADD SLOAD TIMESTAMP GT PUSH2 0x6E1 JUMPI POP PUSH1 0x0 SWAP2 SWAP1 POP JUMP JUMPDEST PUSH1 0xC SLOAD PUSH2 0x704 SWAP1 PUSH4 0xFFFFFFFF PUSH1 0x1 PUSH1 0x20 SHL DUP3 DIV DUP2 AND SWAP2 PUSH1 0x1 PUSH1 0x40 SHL SWAP1 DIV AND PUSH2 0x2CBA JUMP JUMPDEST PUSH4 0xFFFFFFFF AND TIMESTAMP GT PUSH2 0x718 JUMPI POP PUSH1 0x0 SWAP2 SWAP1 POP JUMP JUMPDEST PUSH1 0x1 PUSH1 0x1 PUSH1 0xA0 SHL SUB DUP3 AND PUSH1 0x0 SWAP1 DUP2 MSTORE PUSH1 0xE PUSH1 0x20 MSTORE PUSH1 0x40 DUP2 KECCAK256 PUSH1 0x3 ADD SLOAD PUSH2 0x73C PUSH2 0x1712 JUMP JUMPDEST PUSH2 0x746 SWAP2 SWAP1 PUSH2 0x2CE2 JUMP JUMPDEST PUSH1 0xC SLOAD SWAP1 SWAP2 POP PUSH1 0x0 SWAP1 PUSH2 0x76F SWAP1 PUSH4 0xFFFFFFFF PUSH1 0x1 PUSH1 0x20 SHL DUP3 DIV DUP2 AND SWAP2 PUSH1 0x1 PUSH1 0x40 SHL SWAP1 DIV AND PUSH2 0x2CBA JUMP JUMPDEST PUSH1 0x1 PUSH1 0x1 PUSH1 0xA0 SHL SUB DUP6 AND PUSH1 0x0 SWAP1 DUP2 MSTORE PUSH1 0xE PUSH1 0x20 MSTORE PUSH1 0x40 SWAP1 KECCAK256 PUSH1 0x2 ADD SLOAD PUSH4 0xFFFFFFFF SWAP2 SWAP1 SWAP2 AND GT PUSH2 0x7C4 JUMPI PUSH1 0x1 PUSH1 0x1 PUSH1 0xA0 SHL SUB DUP5 AND PUSH1 0x0 SWAP1 DUP2 MSTORE PUSH1 0xE PUSH1 0x20 MSTORE PUSH1 0x40 SWAP1 KECCAK256 PUSH1 0x2 ADD SLOAD PUSH2 0x7BF SWAP1 TIMESTAMP PUSH2 0x2CE2 JUMP JUMPDEST PUSH2 0x7F3 JUMP JUMPDEST PUSH1 0xC SLOAD PUSH4 0xFFFFFFFF PUSH1 0x1 PUSH1 0x40 SHL DUP3 DIV DUP2 AND SWAP2 PUSH2 0x7E9 SWAP2 PUSH1 0x1 PUSH1 0x20 SHL SWAP1 SWAP2 DIV AND TIMESTAMP PUSH2 0x2CE2 JUMP JUMPDEST PUSH2 0x7F3 SWAP2 SWAP1 PUSH2 0x2CE2 JUMP JUMPDEST PUSH1 0xC SLOAD SWAP1 SWAP2 POP PUSH1 0x0 SWAP1 PUSH2 0x81C SWAP1 PUSH4 0xFFFFFFFF PUSH1 0x1 PUSH1 0x20 SHL DUP3 DIV DUP2 AND SWAP2 PUSH1 0x1 PUSH1 0x40 SHL SWAP1 DIV AND PUSH2 0x2CBA JUMP JUMPDEST PUSH4 0xFFFFFFFF AND PUSH1 0xF SLOAD LT PUSH2 0x896 JUMPI PUSH1 0xB SLOAD PUSH1 0xF SLOAD PUSH2 0x83A SWAP1 TIMESTAMP PUSH2 0x2CE2 JUMP JUMPDEST PUSH1 0x11 SLOAD PUSH2 0x84A SWAP1 PUSH2 0x2710 SWAP1 PUSH2 0x2CF9 JUMP JUMPDEST PUSH2 0x854 SWAP2 SWAP1 PUSH2 0x2CF9 JUMP JUMPDEST PUSH2 0x85E SWAP2 SWAP1 PUSH2 0x2D18 JUMP JUMPDEST PUSH1 0x1 PUSH1 0x1 PUSH1 0xA0 SHL SUB DUP7 AND PUSH1 0x0 SWAP1 DUP2 MSTORE PUSH1 0xE PUSH1 0x20 MSTORE PUSH1 0x40 SWAP1 KECCAK256 PUSH1 0x1 ADD SLOAD PUSH1 0x10 SLOAD PUSH2 0x887 SWAP2 SWAP1 PUSH2 0x2CE2 JUMP JUMPDEST PUSH2 0x891 SWAP2 SWAP1 PUSH2 0x2D3A JUMP JUMPDEST PUSH2 0x923 JUMP JUMPDEST PUSH1 0xB SLOAD PUSH1 0xC SLOAD PUSH2 0x8BC SWAP1 PUSH4 0xFFFFFFFF PUSH1 0x1 PUSH1 0x20 SHL DUP3 DIV DUP2 AND SWAP2 PUSH1 0x1 PUSH1 0x40 SHL SWAP1 DIV AND PUSH2 0x2CBA JUMP JUMPDEST PUSH2 0x8CC SWAP1 PUSH4 0xFFFFFFFF AND TIMESTAMP PUSH2 0x2CE2 JUMP JUMPDEST PUSH1 0x11 SLOAD PUSH2 0x8DC SWAP1 PUSH2 0x2710 SWAP1 PUSH2 0x2CF9 JUMP JUMPDEST PUSH2 0x8E6 SWAP2 SWAP1 PUSH2 0x2CF9 JUMP JUMPDEST PUSH2 0x8F0 SWAP2 SWAP1 PUSH2 0x2D18 JUMP JUMPDEST PUSH1 0x1 PUSH1 0x1 PUSH1 0xA0 SHL SUB DUP7 AND PUSH1 0x0 SWAP1 DUP2 MSTORE PUSH1 0xE PUSH1 0x20 MSTORE PUSH1 0x40 SWAP1 KECCAK256 PUSH1 0x1 ADD SLOAD PUSH1 0x10 SLOAD PUSH2 0x919 SWAP2 SWAP1 PUSH2 0x2CE2 JUMP JUMPDEST PUSH2 0x923 SWAP2 SWAP1 PUSH2 0x2D3A JUMP JUMPDEST SWAP1 POP PUSH1 0x0 PUSH2 0x931 DUP4 DUP4 PUSH2 0x2D18 JUMP JUMPDEST SWAP1 POP DUP1 PUSH2 0x944 JUMPI POP PUSH1 0x0 SWAP6 SWAP5 POP POP POP POP POP JUMP JUMPDEST PUSH1 0x1 PUSH1 0x1 PUSH1 0xA0 SHL SUB DUP7 AND PUSH1 0x0 SWAP1 DUP2 MSTORE PUSH1 0xE PUSH1 0x20 MSTORE PUSH1 0x40 DUP2 KECCAK256 SLOAD DUP3 SWAP1 PUSH2 0x96C SWAP1 PUSH2 0x2710 SWAP1 PUSH2 0x2CF9 JUMP JUMPDEST PUSH2 0x976 SWAP2 SWAP1 PUSH2 0x2D18 JUMP JUMPDEST SWAP1 POP PUSH1 0x0 PUSH8 0xDE0B6B3A7640000 PUSH2 0x2710 PUSH2 0x990 DUP5 DUP10 PUSH2 0x2CF9 JUMP JUMPDEST PUSH2 0x99A SWAP2 SWAP1 PUSH2 0x2D18 JUMP JUMPDEST PUSH2 0x9A4 SWAP2 SWAP1 PUSH2 0x2D18 JUMP JUMPDEST SWAP1 POP PUSH1 0xD SLOAD DUP6 LT PUSH2 0x9BA JUMPI SWAP8 SWAP7 POP POP POP POP POP POP POP JUMP JUMPDEST PUSH1 0xD SLOAD PUSH2 0x9C7 DUP7 DUP4 PUSH2 0x2CF9 JUMP JUMPDEST PUSH2 0x9D1 SWAP2 SWAP1 PUSH2 0x2D18 JUMP JUMPDEST SWAP9 SWAP8 POP POP POP POP POP POP POP POP JUMP JUMPDEST PUSH1 0x0 DUP1 SLOAD PUSH2 0x9EA SWAP1 PUSH2 0x2D52 JUMP JUMPDEST DUP1 PUSH1 0x1F ADD PUSH1 0x20 DUP1 SWAP2 DIV MUL PUSH1 0x20 ADD PUSH1 0x40 MLOAD SWAP1 DUP2 ADD PUSH1 0x40 MSTORE DUP1 SWAP3 SWAP2 SWAP1 DUP2 DUP2 MSTORE PUSH1 0x20 ADD DUP3 DUP1 SLOAD PUSH2 0xA16 SWAP1 PUSH2 0x2D52 JUMP JUMPDEST DUP1 ISZERO PUSH2 0xA63 JUMPI DUP1 PUSH1 0x1F LT PUSH2 0xA38 JUMPI PUSH2 0x100 DUP1 DUP4 SLOAD DIV MUL DUP4 MSTORE SWAP2 PUSH1 0x20 ADD SWAP2 PUSH2 0xA63 JUMP JUMPDEST DUP3 ADD SWAP2 SWAP1 PUSH1 0x0 MSTORE PUSH1 0x20 PUSH1 0x0 KECCAK256 SWAP1 JUMPDEST DUP2 SLOAD DUP2 MSTORE SWAP1 PUSH1 0x1 ADD SWAP1 PUSH1 0x20 ADD DUP1 DUP4 GT PUSH2 0xA46 JUMPI DUP3 SWAP1 SUB PUSH1 0x1F AND DUP3 ADD SWAP2 JUMPDEST POP POP POP POP POP DUP2 JUMP JUMPDEST CALLER PUSH1 0x0 DUP2 DUP2 MSTORE PUSH1 0x4 PUSH1 0x20 SWAP1 DUP2 MSTORE PUSH1 0x40 DUP1 DUP4 KECCAK256 PUSH1 0x1 PUSH1 0x1 PUSH1 0xA0 SHL SUB DUP8 AND DUP1 DUP6 MSTORE SWAP3 MSTORE DUP1 DUP4 KECCAK256 DUP6 SWAP1 SSTORE MLOAD SWAP2 SWAP3 SWAP1 SWAP2 PUSH32 0x8C5BE1E5EBEC7D5BD14F71427D1E84F3DD0314C0F7B2291E5B200AC8C7C3B925 SWAP1 PUSH2 0xAC6 SWAP1 DUP7 DUP2 MSTORE PUSH1 0x20 ADD SWAP1 JUMP JUMPDEST PUSH1 0x40 MLOAD DUP1 SWAP2 SUB SWAP1 LOG3 POP PUSH1 0x1 JUMPDEST SWAP3 SWAP2 POP POP JUMP JUMPDEST PUSH1 0xB SLOAD PUSH1 0x0 SWAP1 PUSH8 0xDE0B6B3A7640000 PUSH2 0xAF3 PUSH2 0x2710 DUP6 PUSH2 0x2CF9 JUMP JUMPDEST PUSH2 0xAFD SWAP2 SWAP1 PUSH2 0x2CF9 JUMP JUMPDEST PUSH2 0xB07 SWAP2 SWAP1 PUSH2 0x2D18 JUMP JUMPDEST CALLER PUSH1 0x0 SWAP1 DUP2 MSTORE PUSH1 0xE PUSH1 0x20 MSTORE PUSH1 0x40 SWAP1 KECCAK256 SLOAD SWAP1 SWAP2 POP DUP2 GT ISZERO PUSH2 0xB67 JUMPI PUSH1 0x40 MLOAD PUSH3 0x461BCD PUSH1 0xE5 SHL DUP2 MSTORE PUSH1 0x20 PUSH1 0x4 DUP3 ADD MSTORE PUSH1 0x16 PUSH1 0x24 DUP3 ADD MSTORE PUSH22 0x554E5354414B4520414D4F554E5420544F4F20424947 PUSH1 0x50 SHL PUSH1 0x44 DUP3 ADD MSTORE PUSH1 0x64 ADD JUMPDEST PUSH1 0x40 MLOAD DUP1 SWAP2 SUB SWAP1 REVERT JUMPDEST CALLER PUSH1 0x0 SWAP1 DUP2 MSTORE PUSH1 0xE PUSH1 0x20 MSTORE PUSH1 0x40 DUP2 KECCAK256 DUP1 SLOAD DUP4 SWAP3 SWAP1 PUSH2 0xB86 SWAP1 DUP5 SWAP1 PUSH2 0x2CE2 JUMP JUMPDEST SWAP1 SWAP2 SSTORE POP POP PUSH1 0x40 MLOAD PUSH4 0xA9059CBB PUSH1 0xE0 SHL DUP2 MSTORE CALLER PUSH1 0x4 DUP3 ADD MSTORE PUSH1 0x24 DUP2 ADD DUP4 SWAP1 MSTORE ADDRESS SWAP1 PUSH4 0xA9059CBB SWAP1 PUSH1 0x44 ADD PUSH1 0x20 PUSH1 0x40 MLOAD DUP1 DUP4 SUB DUP2 PUSH1 0x0 DUP8 GAS CALL ISZERO DUP1 ISZERO PUSH2 0xBCF JUMPI RETURNDATASIZE PUSH1 0x0 DUP1 RETURNDATACOPY RETURNDATASIZE PUSH1 0x0 REVERT JUMPDEST POP POP POP POP PUSH1 0x40 MLOAD RETURNDATASIZE PUSH1 0x1F NOT PUSH1 0x1F DUP3 ADD AND DUP3 ADD DUP1 PUSH1 0x40 MSTORE POP DUP2 ADD SWAP1 PUSH2 0xBF3 SWAP2 SWAP1 PUSH2 0x2D8D JUMP JUMPDEST POP PUSH32 0x2504FCBA4204CC42C3DA7919528D55AB40C2BE512FE40EDC8153EDC4C5BF2F44 CALLER DUP4 DUP4 PUSH1 0x10 SLOAD TIMESTAMP PUSH2 0xC24 PUSH2 0x1712 JUMP JUMPDEST PUSH1 0x40 DUP1 MLOAD PUSH1 0x1 PUSH1 0x1 PUSH1 0xA0 SHL SUB SWAP1 SWAP8 AND DUP8 MSTORE PUSH1 0x20 DUP8 ADD SWAP6 SWAP1 SWAP6 MSTORE SWAP4 DUP6 ADD SWAP3 SWAP1 SWAP3 MSTORE PUSH1 0x60 DUP5 ADD MSTORE PUSH1 0x80 DUP4 ADD MSTORE PUSH1 0xA0 DUP3 ADD MSTORE PUSH1 0xC0 ADD PUSH1 0x40 MLOAD DUP1 SWAP2 SUB SWAP1 LOG1 POP POP JUMP JUMPDEST PUSH1 0x1 PUSH1 0x1 PUSH1 0xA0 SHL SUB DUP4 AND PUSH1 0x0 SWAP1 DUP2 MSTORE PUSH1 0x4 PUSH1 0x20 SWAP1 DUP2 MSTORE PUSH1 0x40 DUP1 DUP4 KECCAK256 CALLER DUP5 MSTORE SWAP1 SWAP2 MSTORE DUP2 KECCAK256 SLOAD PUSH1 0x0 NOT DUP2 EQ PUSH2 0xCBE JUMPI PUSH2 0xC99 DUP4 DUP3 PUSH2 0x2CE2 JUMP JUMPDEST PUSH1 0x1 PUSH1 0x1 PUSH1 0xA0 SHL SUB DUP7 AND PUSH1 0x0 SWAP1 DUP2 MSTORE PUSH1 0x4 PUSH1 0x20 SWAP1 DUP2 MSTORE PUSH1 0x40 DUP1 DUP4 KECCAK256 CALLER DUP5 MSTORE SWAP1 SWAP2 MSTORE SWAP1 KECCAK256 SSTORE JUMPDEST PUSH1 0x1 PUSH1 0x1 PUSH1 0xA0 SHL SUB DUP6 AND PUSH1 0x0 SWAP1 DUP2 MSTORE PUSH1 0x3 PUSH1 0x20 MSTORE PUSH1 0x40 DUP2 KECCAK256 DUP1 SLOAD DUP6 SWAP3 SWAP1 PUSH2 0xCE6 SWAP1 DUP5 SWAP1 PUSH2 0x2CE2 JUMP JUMPDEST SWAP1 SWAP2 SSTORE POP POP PUSH1 0x1 PUSH1 0x1 PUSH1 0xA0 SHL SUB DUP1 DUP6 AND PUSH1 0x0 DUP2 DUP2 MSTORE PUSH1 0x3 PUSH1 0x20 MSTORE PUSH1 0x40 SWAP1 DUP2 SWAP1 KECCAK256 DUP1 SLOAD DUP8 ADD SWAP1 SSTORE MLOAD SWAP1 SWAP2 DUP8 AND SWAP1 PUSH1 0x0 DUP1 MLOAD PUSH1 0x20 PUSH2 0x314F DUP4 CODECOPY DUP2 MLOAD SWAP2 MSTORE SWAP1 PUSH2 0xD2F SWAP1 DUP8 DUP2 MSTORE PUSH1 0x20 ADD SWAP1 JUMP JUMPDEST PUSH1 0x40 MLOAD DUP1 SWAP2 SUB SWAP1 LOG3 POP PUSH1 0x1 SWAP5 SWAP4 POP POP POP POP JUMP JUMPDEST PUSH1 0xF SLOAD TIMESTAMP GT ISZERO PUSH2 0xDBF JUMPI PUSH1 0xB SLOAD PUSH1 0xF SLOAD PUSH2 0xD5C SWAP1 TIMESTAMP PUSH2 0x2CE2 JUMP JUMPDEST PUSH1 0x11 SLOAD PUSH2 0xD6C SWAP1 PUSH2 0x2710 SWAP1 PUSH2 0x2CF9 JUMP JUMPDEST PUSH2 0xD76 SWAP2 SWAP1 PUSH2 0x2CF9 JUMP JUMPDEST PUSH2 0xD80 SWAP2 SWAP1 PUSH2 0x2D18 JUMP JUMPDEST PUSH1 0x10 PUSH1 0x0 DUP3 DUP3 SLOAD PUSH2 0xD91 SWAP2 SWAP1 PUSH2 0x2D3A JUMP JUMPDEST SWAP1 SWAP2 SSTORE POP POP TIMESTAMP PUSH1 0xF SSTORE PUSH2 0xDA3 CALLER PUSH2 0x2109 JUMP JUMPDEST POP PUSH1 0xB SLOAD PUSH1 0x0 SWAP1 PUSH8 0xDE0B6B3A7640000 PUSH2 0xAF3 PUSH2 0x2710 DUP6 PUSH2 0x2CF9 JUMP JUMPDEST PUSH2 0xDA3 CALLER PUSH2 0x2109 JUMP JUMPDEST POP JUMP JUMPDEST PUSH1 0xF SLOAD TIMESTAMP GT ISZERO PUSH2 0xF34 JUMPI PUSH1 0xB SLOAD PUSH1 0xF SLOAD PUSH2 0xDE5 SWAP1 TIMESTAMP PUSH2 0x2CE2 JUMP JUMPDEST PUSH1 0x11 SLOAD PUSH2 0xDF5 SWAP1 PUSH2 0x2710 SWAP1 PUSH2 0x2CF9 JUMP JUMPDEST PUSH2 0xDFF SWAP2 SWAP1 PUSH2 0x2CF9 JUMP JUMPDEST PUSH2 0xE09 SWAP2 SWAP1 PUSH2 0x2D18 JUMP JUMPDEST PUSH1 0x10 PUSH1 0x0 DUP3 DUP3 SLOAD PUSH2 0xE1A SWAP2 SWAP1 PUSH2 0x2D3A JUMP JUMPDEST SWAP1 SWAP2 SSTORE POP POP TIMESTAMP PUSH1 0xF SSTORE CALLER PUSH1 0x0 SWAP1 DUP2 MSTORE PUSH1 0xE PUSH1 0x20 MSTORE PUSH1 0x40 SWAP1 KECCAK256 SLOAD PUSH2 0xE39 JUMPI JUMP JUMPDEST PUSH2 0xE42 CALLER PUSH2 0x2109 JUMP JUMPDEST POP CALLER PUSH1 0x0 SWAP1 DUP2 MSTORE PUSH1 0xE PUSH1 0x20 MSTORE PUSH1 0x40 DUP2 KECCAK256 SLOAD PUSH1 0xB SLOAD SWAP1 SWAP2 SWAP1 PUSH2 0x2710 SWAP1 PUSH8 0xDE0B6B3A7640000 SWAP1 PUSH2 0xE71 SWAP1 DUP6 PUSH2 0x2CF9 JUMP JUMPDEST PUSH2 0xE7B SWAP2 SWAP1 PUSH2 0x2D18 JUMP JUMPDEST PUSH2 0xE85 SWAP2 SWAP1 PUSH2 0x2D18 JUMP JUMPDEST PUSH1 0x40 MLOAD PUSH4 0xA9059CBB PUSH1 0xE0 SHL DUP2 MSTORE CALLER PUSH1 0x4 DUP3 ADD MSTORE PUSH1 0x24 DUP2 ADD DUP3 SWAP1 MSTORE SWAP1 SWAP2 POP ADDRESS SWAP1 PUSH4 0xA9059CBB SWAP1 PUSH1 0x44 ADD PUSH1 0x20 PUSH1 0x40 MLOAD DUP1 DUP4 SUB DUP2 PUSH1 0x0 DUP8 GAS CALL ISZERO DUP1 ISZERO PUSH2 0xECC JUMPI RETURNDATASIZE PUSH1 0x0 DUP1 RETURNDATACOPY RETURNDATASIZE PUSH1 0x0 REVERT JUMPDEST POP POP POP POP PUSH1 0x40 MLOAD RETURNDATASIZE PUSH1 0x1F NOT PUSH1 0x1F DUP3 ADD AND DUP3 ADD DUP1 PUSH1 0x40 MSTORE POP DUP2 ADD SWAP1 PUSH2 0xEF0 SWAP2 SWAP1 PUSH2 0x2D8D JUMP JUMPDEST POP CALLER PUSH1 0x0 DUP2 DUP2 MSTORE PUSH1 0xE PUSH1 0x20 MSTORE PUSH1 0x40 DUP2 KECCAK256 SSTORE PUSH1 0x10 SLOAD PUSH32 0x2504FCBA4204CC42C3DA7919528D55AB40C2BE512FE40EDC8153EDC4C5BF2F44 SWAP2 SWAP1 DUP4 SWAP1 DUP6 SWAP1 TIMESTAMP PUSH2 0xC24 PUSH2 0x1712 JUMP JUMPDEST CALLER PUSH1 0x0 SWAP1 DUP2 MSTORE PUSH1 0xE PUSH1 0x20 MSTORE PUSH1 0x40 SWAP1 KECCAK256 SLOAD PUSH2 0xE39 JUMPI JUMP JUMPDEST PUSH1 0x0 PUSH32 0x0 CHAINID EQ PUSH2 0xF80 JUMPI PUSH2 0xF7B PUSH2 0x2397 JUMP JUMPDEST SWAP1 POP SWAP1 JUMP JUMPDEST POP PUSH32 0x0 SWAP1 JUMP JUMPDEST PUSH1 0x6 SLOAD PUSH3 0x10000 SWAP1 DIV PUSH1 0x1 PUSH1 0x1 PUSH1 0xA0 SHL SUB AND CALLER EQ PUSH2 0xFC2 JUMPI PUSH1 0x0 DUP1 REVERT JUMPDEST PUSH1 0x6 SLOAD PUSH1 0xFF AND ISZERO PUSH2 0xFD2 JUMPI PUSH1 0x0 DUP1 REVERT JUMPDEST PUSH1 0x6 DUP1 SLOAD PUSH1 0xFF NOT AND PUSH1 0x1 OR SWAP1 SSTORE PUSH1 0x9 DUP1 SLOAD PUSH1 0x40 DUP1 MLOAD PUSH1 0x20 DUP1 DUP5 MUL DUP3 ADD DUP2 ADD SWAP1 SWAP3 MSTORE DUP3 DUP2 MSTORE PUSH1 0x0 SWAP4 SWAP1 SWAP3 SWAP1 SWAP2 DUP4 ADD DUP3 DUP3 DUP1 ISZERO PUSH2 0x1036 JUMPI PUSH1 0x20 MUL DUP3 ADD SWAP2 SWAP1 PUSH1 0x0 MSTORE PUSH1 0x20 PUSH1 0x0 KECCAK256 SWAP1 JUMPDEST DUP2 SLOAD PUSH1 0x1 PUSH1 0x1 PUSH1 0xA0 SHL SUB AND DUP2 MSTORE PUSH1 0x1 SWAP1 SWAP2 ADD SWAP1 PUSH1 0x20 ADD DUP1 DUP4 GT PUSH2 0x1018 JUMPI JUMPDEST POP POP POP POP POP SWAP1 POP PUSH2 0x1060 PUSH1 0x40 DUP1 MLOAD PUSH1 0x60 DUP2 ADD DUP3 MSTORE PUSH1 0x0 DUP1 DUP3 MSTORE PUSH1 0x20 DUP3 ADD DUP2 SWAP1 MSTORE SWAP2 DUP2 ADD SWAP2 SWAP1 SWAP2 MSTORE SWAP1 JUMP JUMPDEST PUSH1 0x0 DUP1 JUMPDEST DUP4 MLOAD DUP2 LT ISZERO PUSH2 0x125F JUMPI PUSH1 0xA PUSH1 0x0 DUP6 DUP4 DUP2 MLOAD DUP2 LT PUSH2 0x1083 JUMPI PUSH2 0x1083 PUSH2 0x2DAF JUMP JUMPDEST PUSH1 0x20 SWAP1 DUP2 MUL SWAP2 SWAP1 SWAP2 ADD DUP2 ADD MLOAD PUSH1 0x1 PUSH1 0x1 PUSH1 0xA0 SHL SUB SWAP1 DUP2 AND DUP4 MSTORE DUP3 DUP3 ADD SWAP4 SWAP1 SWAP4 MSTORE PUSH1 0x40 SWAP2 DUP3 ADD PUSH1 0x0 KECCAK256 DUP3 MLOAD PUSH1 0x60 DUP2 ADD DUP5 MSTORE DUP2 SLOAD DUP1 DUP3 MSTORE PUSH1 0x1 DUP4 ADD SLOAD PUSH1 0x1 PUSH1 0x1 PUSH1 0x80 SHL SUB AND SWAP4 DUP3 ADD DUP5 SWAP1 MSTORE PUSH1 0x2 SWAP1 SWAP3 ADD SLOAD SWAP1 SWAP5 AND SWAP3 DUP5 ADD DUP4 SWAP1 MSTORE DUP8 MLOAD SWAP4 SWAP7 POP SWAP3 DUP8 SWAP1 DUP6 SWAP1 DUP2 LT PUSH2 0x10F3 JUMPI PUSH2 0x10F3 PUSH2 0x2DAF JUMP JUMPDEST PUSH1 0x20 SWAP1 DUP2 MUL SWAP2 SWAP1 SWAP2 ADD ADD MLOAD PUSH1 0x40 MLOAD PUSH4 0x23B872DD PUSH1 0xE0 SHL DUP2 MSTORE PUSH1 0x1 PUSH1 0x1 PUSH1 0xA0 SHL SUB DUP5 DUP2 AND PUSH1 0x4 DUP4 ADD MSTORE ADDRESS PUSH1 0x24 DUP4 ADD MSTORE PUSH1 0x44 DUP3 ADD DUP7 SWAP1 MSTORE SWAP1 SWAP2 AND SWAP1 PUSH4 0x23B872DD SWAP1 PUSH1 0x64 ADD PUSH1 0x20 PUSH1 0x40 MLOAD DUP1 DUP4 SUB DUP2 PUSH1 0x0 DUP8 GAS CALL ISZERO DUP1 ISZERO PUSH2 0x1154 JUMPI RETURNDATASIZE PUSH1 0x0 DUP1 RETURNDATACOPY RETURNDATASIZE PUSH1 0x0 REVERT JUMPDEST POP POP POP POP PUSH1 0x40 MLOAD RETURNDATASIZE PUSH1 0x1F NOT PUSH1 0x1F DUP3 ADD AND DUP3 ADD DUP1 PUSH1 0x40 MSTORE POP DUP2 ADD SWAP1 PUSH2 0x1178 SWAP2 SWAP1 PUSH2 0x2D8D JUMP JUMPDEST POP PUSH1 0x0 DUP8 DUP6 DUP2 MLOAD DUP2 LT PUSH2 0x118D JUMPI PUSH2 0x118D PUSH2 0x2DAF JUMP JUMPDEST PUSH1 0x20 MUL PUSH1 0x20 ADD ADD MLOAD PUSH1 0x1 PUSH1 0x1 PUSH1 0xA0 SHL SUB AND PUSH4 0x313CE567 PUSH1 0x40 MLOAD DUP2 PUSH4 0xFFFFFFFF AND PUSH1 0xE0 SHL DUP2 MSTORE PUSH1 0x4 ADD PUSH1 0x20 PUSH1 0x40 MLOAD DUP1 DUP4 SUB DUP2 DUP7 GAS STATICCALL ISZERO DUP1 ISZERO PUSH2 0x11D2 JUMPI RETURNDATASIZE PUSH1 0x0 DUP1 RETURNDATACOPY RETURNDATASIZE PUSH1 0x0 REVERT JUMPDEST POP POP POP POP PUSH1 0x40 MLOAD RETURNDATASIZE PUSH1 0x1F NOT PUSH1 0x1F DUP3 ADD AND DUP3 ADD DUP1 PUSH1 0x40 MSTORE POP DUP2 ADD SWAP1 PUSH2 0x11F6 SWAP2 SWAP1 PUSH2 0x2DC5 JUMP JUMPDEST PUSH2 0x1201 SWAP1 PUSH1 0xA PUSH2 0x2EC6 JUMP JUMPDEST PUSH2 0x1214 PUSH1 0x1 PUSH1 0x1 PUSH1 0x80 SHL SUB DUP5 AND DUP7 PUSH2 0x2CF9 JUMP JUMPDEST PUSH2 0x1226 SWAP1 PUSH8 0xDE0B6B3A7640000 PUSH2 0x2CF9 JUMP JUMPDEST PUSH2 0x1230 SWAP2 SWAP1 PUSH2 0x2D18 JUMP JUMPDEST SWAP1 POP PUSH2 0x123C DUP2 DUP8 PUSH2 0x2D3A JUMP JUMPDEST SWAP6 POP PUSH2 0x1248 DUP4 DUP3 PUSH2 0x2431 JUMP JUMPDEST POP POP POP POP DUP1 DUP1 PUSH2 0x1257 SWAP1 PUSH2 0x2ED5 JUMP JUMPDEST SWAP2 POP POP PUSH2 0x1064 JUMP JUMPDEST POP PUSH1 0xC DUP1 SLOAD PUSH4 0xFFFFFFFF PUSH1 0x40 SHL NOT AND PUSH1 0x1 PUSH1 0x40 SHL TIMESTAMP PUSH4 0xFFFFFFFF SWAP1 DUP2 AND DUP3 MUL SWAP3 SWAP1 SWAP3 OR SWAP3 DUP4 SWAP1 SSTORE PUSH2 0x129D SWAP3 PUSH1 0x1 PUSH1 0x20 SHL DUP2 DIV DUP4 AND SWAP3 SWAP2 SWAP1 DIV AND PUSH2 0x2CBA JUMP JUMPDEST PUSH4 0xFFFFFFFF AND PUSH1 0xF SSTORE PUSH1 0xB DUP2 SWAP1 SSTORE PUSH1 0x40 MLOAD TIMESTAMP DUP2 MSTORE PUSH32 0x83AAEE11563F280EAC61EBD060F088CE7577D5E823EFA6C78DE1CFEC8167605D SWAP1 PUSH1 0x20 ADD PUSH1 0x40 MLOAD DUP1 SWAP2 SUB SWAP1 LOG1 POP POP POP JUMP JUMPDEST PUSH1 0x6 SLOAD PUSH3 0x10000 SWAP1 DIV PUSH1 0x1 PUSH1 0x1 PUSH1 0xA0 SHL SUB AND CALLER EQ PUSH2 0x1300 JUMPI PUSH1 0x0 DUP1 REVERT JUMPDEST PUSH1 0x6 SLOAD PUSH1 0xFF AND ISZERO PUSH2 0x1310 JUMPI PUSH1 0x0 DUP1 REVERT JUMPDEST DUP1 PUSH1 0x1 PUSH1 0x1 PUSH1 0xA0 SHL SUB AND SELFDESTRUCT JUMPDEST PUSH1 0x0 PUSH1 0xF SLOAD TIMESTAMP GT ISZERO PUSH2 0x138A JUMPI PUSH1 0xB SLOAD PUSH1 0xF SLOAD PUSH2 0x1338 SWAP1 TIMESTAMP PUSH2 0x2CE2 JUMP JUMPDEST PUSH1 0x11 SLOAD PUSH2 0x1348 SWAP1 PUSH2 0x2710 SWAP1 PUSH2 0x2CF9 JUMP JUMPDEST PUSH2 0x1352 SWAP2 SWAP1 PUSH2 0x2CF9 JUMP JUMPDEST PUSH2 0x135C SWAP2 SWAP1 PUSH2 0x2D18 JUMP JUMPDEST PUSH1 0x10 PUSH1 0x0 DUP3 DUP3 SLOAD PUSH2 0x136D SWAP2 SWAP1 PUSH2 0x2D3A JUMP JUMPDEST SWAP1 SWAP2 SSTORE POP POP TIMESTAMP PUSH1 0xF SSTORE PUSH1 0x0 PUSH2 0x1381 CALLER PUSH2 0x2109 JUMP JUMPDEST SWAP2 POP PUSH2 0x1399 SWAP1 POP JUMP JUMPDEST PUSH1 0x0 PUSH2 0x1395 CALLER PUSH2 0x2109 JUMP JUMPDEST SWAP2 POP POP JUMPDEST SWAP1 JUMP JUMPDEST PUSH1 0x9 DUP2 DUP2 SLOAD DUP2 LT PUSH2 0x13AC JUMPI PUSH1 0x0 DUP1 REVERT JUMPDEST PUSH1 0x0 SWAP2 DUP3 MSTORE PUSH1 0x20 SWAP1 SWAP2 KECCAK256 ADD SLOAD PUSH1 0x1 PUSH1 0x1 PUSH1 0xA0 SHL SUB AND SWAP1 POP DUP2 JUMP JUMPDEST PUSH1 0x6 SLOAD PUSH2 0x100 SWAP1 DIV PUSH1 0xFF AND ISZERO PUSH2 0x13DB JUMPI PUSH1 0x0 DUP1 REVERT JUMPDEST PUSH1 0x6 DUP1 SLOAD PUSH3 0x10000 CALLER MUL PUSH2 0x100 PUSH1 0x1 PUSH1 0xB0 SHL SUB NOT SWAP1 SWAP2 AND OR PUSH2 0x100 OR SWAP1 SSTORE DUP5 MLOAD PUSH1 0xC DUP1 SLOAD PUSH1 0x20 DUP9 ADD MLOAD PUSH1 0x40 DUP10 ADD MLOAD PUSH4 0xFFFFFFFF SWAP1 DUP2 AND PUSH1 0x1 PUSH1 0x40 SHL MUL PUSH4 0xFFFFFFFF PUSH1 0x40 SHL NOT SWAP1 DUP2 AND SWAP3 DUP3 AND PUSH1 0x1 PUSH1 0x20 SHL MUL PUSH8 0xFFFFFFFFFFFFFFFF NOT SWAP1 SWAP5 AND SWAP2 SWAP1 SWAP6 AND OR SWAP2 SWAP1 SWAP2 OR SWAP3 SWAP1 SWAP3 AND SWAP2 SWAP1 SWAP2 OR SWAP1 SSTORE DUP4 MLOAD PUSH1 0x0 JUMPDEST DUP2 DUP2 LT ISZERO PUSH2 0x16AD JUMPI PUSH1 0xA PUSH1 0x0 DUP8 DUP4 DUP2 MLOAD DUP2 LT PUSH2 0x146F JUMPI PUSH2 0x146F PUSH2 0x2DAF JUMP JUMPDEST PUSH1 0x20 SWAP1 DUP2 MUL SWAP2 SWAP1 SWAP2 ADD DUP2 ADD MLOAD PUSH1 0x1 PUSH1 0x1 PUSH1 0xA0 SHL SUB AND DUP3 MSTORE DUP2 ADD SWAP2 SWAP1 SWAP2 MSTORE PUSH1 0x40 ADD PUSH1 0x0 KECCAK256 PUSH1 0x1 ADD SLOAD PUSH1 0x1 PUSH1 0x1 PUSH1 0x80 SHL SUB AND ISZERO PUSH2 0x14F6 JUMPI PUSH1 0x40 MLOAD PUSH3 0x461BCD PUSH1 0xE5 SHL DUP2 MSTORE PUSH1 0x20 PUSH1 0x4 DUP3 ADD MSTORE PUSH1 0x21 PUSH1 0x24 DUP3 ADD MSTORE PUSH32 0x544F4B454E204144445245535320414C524541445920494E495449414C495A45 PUSH1 0x44 DUP3 ADD MSTORE PUSH1 0x11 PUSH1 0xFA SHL PUSH1 0x64 DUP3 ADD MSTORE PUSH1 0x84 ADD PUSH2 0xB5E JUMP JUMPDEST PUSH1 0x7 DUP9 DUP3 DUP2 MLOAD DUP2 LT PUSH2 0x150A JUMPI PUSH2 0x150A PUSH2 0x2DAF JUMP JUMPDEST PUSH1 0x20 SWAP1 DUP2 MUL SWAP2 SWAP1 SWAP2 ADD DUP2 ADD MLOAD DUP3 SLOAD PUSH1 0x1 DUP2 ADD DUP5 SSTORE PUSH1 0x0 SWAP4 DUP5 MSTORE SWAP3 DUP3 SWAP1 KECCAK256 DUP2 MLOAD PUSH2 0x153C SWAP5 SWAP2 SWAP1 SWAP2 ADD SWAP3 SWAP2 SWAP1 SWAP2 ADD SWAP1 PUSH2 0x25AC JUMP JUMPDEST POP PUSH1 0x0 PUSH1 0x40 MLOAD DUP1 PUSH1 0x60 ADD PUSH1 0x40 MSTORE DUP1 DUP6 DUP5 DUP2 MLOAD DUP2 LT PUSH2 0x155C JUMPI PUSH2 0x155C PUSH2 0x2DAF JUMP JUMPDEST PUSH1 0x20 MUL PUSH1 0x20 ADD ADD MLOAD DUP2 MSTORE PUSH1 0x20 ADD DUP8 DUP5 DUP2 MLOAD DUP2 LT PUSH2 0x157B JUMPI PUSH2 0x157B PUSH2 0x2DAF JUMP JUMPDEST PUSH1 0x20 MUL PUSH1 0x20 ADD ADD MLOAD PUSH1 0x1 PUSH1 0x1 PUSH1 0x80 SHL SUB AND DUP2 MSTORE PUSH1 0x20 ADD DUP7 DUP5 DUP2 MLOAD DUP2 LT PUSH2 0x15A3 JUMPI PUSH2 0x15A3 PUSH2 0x2DAF JUMP JUMPDEST PUSH1 0x20 MUL PUSH1 0x20 ADD ADD MLOAD PUSH1 0x1 PUSH1 0x1 PUSH1 0xA0 SHL SUB AND DUP2 MSTORE POP SWAP1 POP DUP1 PUSH1 0xA PUSH1 0x0 DUP10 DUP6 DUP2 MLOAD DUP2 LT PUSH2 0x15D0 JUMPI PUSH2 0x15D0 PUSH2 0x2DAF JUMP JUMPDEST PUSH1 0x20 SWAP1 DUP2 MUL SWAP2 SWAP1 SWAP2 ADD DUP2 ADD MLOAD PUSH1 0x1 PUSH1 0x1 PUSH1 0xA0 SHL SUB SWAP1 DUP2 AND DUP4 MSTORE DUP3 DUP3 ADD SWAP4 SWAP1 SWAP4 MSTORE PUSH1 0x40 SWAP2 DUP3 ADD PUSH1 0x0 KECCAK256 DUP5 MLOAD DUP2 SSTORE SWAP1 DUP5 ADD MLOAD PUSH1 0x1 DUP3 ADD DUP1 SLOAD PUSH16 0xFFFFFFFFFFFFFFFFFFFFFFFFFFFFFFFF NOT AND PUSH1 0x1 PUSH1 0x1 PUSH1 0x80 SHL SUB SWAP1 SWAP3 AND SWAP2 SWAP1 SWAP2 OR SWAP1 SSTORE SWAP3 ADD MLOAD PUSH1 0x2 SWAP1 SWAP3 ADD DUP1 SLOAD PUSH1 0x1 PUSH1 0x1 PUSH1 0xA0 SHL SUB NOT AND SWAP3 SWAP1 SWAP2 AND SWAP2 SWAP1 SWAP2 OR SWAP1 SSTORE DUP7 MLOAD PUSH1 0x9 SWAP1 DUP9 SWAP1 DUP5 SWAP1 DUP2 LT PUSH2 0x165F JUMPI PUSH2 0x165F PUSH2 0x2DAF JUMP JUMPDEST PUSH1 0x20 SWAP1 DUP2 MUL SWAP2 SWAP1 SWAP2 ADD DUP2 ADD MLOAD DUP3 SLOAD PUSH1 0x1 DUP2 ADD DUP5 SSTORE PUSH1 0x0 SWAP4 DUP5 MSTORE SWAP2 SWAP1 SWAP3 KECCAK256 ADD DUP1 SLOAD PUSH1 0x1 PUSH1 0x1 PUSH1 0xA0 SHL SUB NOT AND PUSH1 0x1 PUSH1 0x1 PUSH1 0xA0 SHL SUB SWAP1 SWAP3 AND SWAP2 SWAP1 SWAP2 OR SWAP1 SSTORE POP DUP1 PUSH2 0x16A5 DUP2 PUSH2 0x2ED5 JUMP JUMPDEST SWAP2 POP POP PUSH2 0x1451 JUMP JUMPDEST POP PUSH1 0x9 SLOAD PUSH1 0x8 SSTORE PUSH1 0xC SLOAD PUSH1 0x40 MLOAD PUSH32 0x489170CFE0F7FCDD8410D20D8A81DF8F038624BBCD9814CCA42D477E9D1BB469 SWAP2 PUSH2 0x1701 SWAP2 DUP11 SWAP2 DUP10 SWAP2 DUP10 SWAP2 DUP10 SWAP2 DUP10 SWAP2 PUSH4 0xFFFFFFFF PUSH1 0x1 PUSH1 0x20 SHL DUP3 DIV DUP2 AND SWAP3 SWAP2 AND SWAP1 PUSH2 0x2F62 JUMP JUMPDEST PUSH1 0x40 MLOAD DUP1 SWAP2 SUB SWAP1 LOG1 POP POP POP POP POP POP POP JUMP JUMPDEST PUSH1 0xC SLOAD PUSH1 0x0 SWAP1 PUSH1 0x1 PUSH1 0x40 SHL SWAP1 DIV PUSH4 0xFFFFFFFF AND DUP1 PUSH2 0x1732 JUMPI PUSH1 0x0 SWAP2 POP POP SWAP1 JUMP JUMPDEST PUSH1 0xC SLOAD PUSH4 0xFFFFFFFF AND PUSH1 0x0 PUSH2 0x1747 DUP4 TIMESTAMP PUSH2 0x3030 JUMP JUMPDEST PUSH1 0xC SLOAD SWAP1 SWAP2 POP PUSH4 0xFFFFFFFF DUP1 DUP4 AND SWAP2 PUSH2 0x1769 SWAP2 PUSH1 0x1 PUSH1 0x20 SHL SWAP1 SWAP2 DIV AND DUP5 PUSH2 0x2CBA JUMP JUMPDEST PUSH4 0xFFFFFFFF AND GT PUSH2 0x1790 JUMPI PUSH2 0x1788 PUSH8 0xDE0B6B3A7640000 PUSH2 0x2710 PUSH2 0x2CF9 JUMP JUMPDEST SWAP4 POP POP POP POP SWAP1 JUMP JUMPDEST PUSH1 0xC SLOAD PUSH4 0xFFFFFFFF PUSH1 0x1 PUSH1 0x20 SHL SWAP1 SWAP2 DIV DUP2 AND SWAP1 DUP3 AND GT PUSH2 0x17B4 JUMPI PUSH1 0x0 SWAP4 POP POP POP POP SWAP1 JUMP JUMPDEST PUSH1 0xC SLOAD PUSH4 0xFFFFFFFF DUP1 DUP5 AND SWAP2 PUSH2 0x2710 SWAP2 PUSH2 0x17D6 SWAP2 PUSH1 0x1 PUSH1 0x20 SHL SWAP1 DIV AND DUP5 PUSH2 0x3030 JUMP JUMPDEST PUSH2 0x17EE SWAP1 PUSH4 0xFFFFFFFF AND PUSH8 0xDE0B6B3A7640000 PUSH2 0x2CF9 JUMP JUMPDEST PUSH2 0x17F8 SWAP2 SWAP1 PUSH2 0x2CF9 JUMP JUMPDEST PUSH2 0x1788 SWAP2 SWAP1 PUSH2 0x2D18 JUMP JUMPDEST PUSH1 0x1 DUP1 SLOAD PUSH2 0x9EA SWAP1 PUSH2 0x2D52 JUMP JUMPDEST PUSH1 0x9 SLOAD PUSH1 0x60 SWAP1 PUSH1 0x0 SWAP1 PUSH8 0xFFFFFFFFFFFFFFFF DUP2 GT ISZERO PUSH2 0x1830 JUMPI PUSH2 0x1830 PUSH2 0x275D JUMP JUMPDEST PUSH1 0x40 MLOAD SWAP1 DUP1 DUP3 MSTORE DUP1 PUSH1 0x20 MUL PUSH1 0x20 ADD DUP3 ADD PUSH1 0x40 MSTORE DUP1 ISZERO PUSH2 0x1859 JUMPI DUP2 PUSH1 0x20 ADD PUSH1 0x20 DUP3 MUL DUP1 CALLDATASIZE DUP4 CALLDATACOPY ADD SWAP1 POP JUMPDEST POP SWAP1 POP PUSH1 0x0 DUP1 PUSH1 0x0 JUMPDEST PUSH1 0x9 SLOAD DUP2 LT ISZERO PUSH2 0x19EB JUMPI PUSH1 0xA PUSH1 0x0 PUSH1 0x9 DUP4 DUP2 SLOAD DUP2 LT PUSH2 0x1883 JUMPI PUSH2 0x1883 PUSH2 0x2DAF JUMP JUMPDEST PUSH1 0x0 SWAP2 DUP3 MSTORE PUSH1 0x20 DUP1 DUP4 KECCAK256 SWAP1 SWAP2 ADD SLOAD PUSH1 0x1 PUSH1 0x1 PUSH1 0xA0 SHL SUB SWAP1 DUP2 AND DUP5 MSTORE SWAP1 DUP4 ADD SWAP4 SWAP1 SWAP4 MSTORE PUSH1 0x40 SWAP1 SWAP2 ADD SWAP1 KECCAK256 PUSH1 0x2 ADD SLOAD PUSH1 0x9 DUP1 SLOAD SWAP2 SWAP1 SWAP3 AND SWAP5 POP DUP3 SWAP1 DUP2 LT PUSH2 0x18CA JUMPI PUSH2 0x18CA PUSH2 0x2DAF JUMP JUMPDEST PUSH1 0x0 SWAP2 DUP3 MSTORE PUSH1 0x20 SWAP1 SWAP2 KECCAK256 ADD SLOAD PUSH1 0x40 MLOAD PUSH4 0x6EB1769F PUSH1 0xE1 SHL DUP2 MSTORE PUSH1 0x1 PUSH1 0x1 PUSH1 0xA0 SHL SUB DUP6 DUP2 AND PUSH1 0x4 DUP4 ADD MSTORE ADDRESS PUSH1 0x24 DUP4 ADD MSTORE SWAP1 SWAP2 AND SWAP1 PUSH4 0xDD62ED3E SWAP1 PUSH1 0x44 ADD PUSH1 0x20 PUSH1 0x40 MLOAD DUP1 DUP4 SUB DUP2 DUP7 GAS STATICCALL ISZERO DUP1 ISZERO PUSH2 0x1923 JUMPI RETURNDATASIZE PUSH1 0x0 DUP1 RETURNDATACOPY RETURNDATASIZE PUSH1 0x0 REVERT JUMPDEST POP POP POP POP PUSH1 0x40 MLOAD RETURNDATASIZE PUSH1 0x1F NOT PUSH1 0x1F DUP3 ADD AND DUP3 ADD DUP1 PUSH1 0x40 MSTORE POP DUP2 ADD SWAP1 PUSH2 0x1947 SWAP2 SWAP1 PUSH2 0x3055 JUMP JUMPDEST SWAP2 POP PUSH1 0xA PUSH1 0x0 PUSH1 0x9 DUP4 DUP2 SLOAD DUP2 LT PUSH2 0x1960 JUMPI PUSH2 0x1960 PUSH2 0x2DAF JUMP JUMPDEST PUSH1 0x0 SWAP2 DUP3 MSTORE PUSH1 0x20 DUP1 DUP4 KECCAK256 SWAP1 SWAP2 ADD SLOAD PUSH1 0x1 PUSH1 0x1 PUSH1 0xA0 SHL SUB AND DUP4 MSTORE DUP3 ADD SWAP3 SWAP1 SWAP3 MSTORE PUSH1 0x40 ADD SWAP1 KECCAK256 SLOAD DUP3 LT PUSH2 0x19B4 JUMPI PUSH1 0x1 DUP5 DUP3 DUP2 MLOAD DUP2 LT PUSH2 0x199F JUMPI PUSH2 0x199F PUSH2 0x2DAF JUMP JUMPDEST SWAP2 ISZERO ISZERO PUSH1 0x20 SWAP3 DUP4 MUL SWAP2 SWAP1 SWAP2 ADD SWAP1 SWAP2 ADD MSTORE PUSH2 0x19D9 JUMP JUMPDEST PUSH1 0x0 DUP5 DUP3 DUP2 MLOAD DUP2 LT PUSH2 0x19C8 JUMPI PUSH2 0x19C8 PUSH2 0x2DAF JUMP JUMPDEST SWAP2 ISZERO ISZERO PUSH1 0x20 SWAP3 DUP4 MUL SWAP2 SWAP1 SWAP2 ADD SWAP1 SWAP2 ADD MSTORE JUMPDEST DUP1 PUSH2 0x19E3 DUP2 PUSH2 0x2ED5 JUMP JUMPDEST SWAP2 POP POP PUSH2 0x1862 JUMP JUMPDEST POP SWAP2 SWAP4 SWAP3 POP POP POP JUMP JUMPDEST PUSH1 0x60 PUSH1 0x0 PUSH2 0x1A01 DUP4 PUSH2 0x6B7 JUMP JUMPDEST PUSH1 0x9 SLOAD SWAP1 SWAP2 POP PUSH1 0x0 SWAP1 PUSH8 0xFFFFFFFFFFFFFFFF DUP2 GT ISZERO PUSH2 0x1A22 JUMPI PUSH2 0x1A22 PUSH2 0x275D JUMP JUMPDEST PUSH1 0x40 MLOAD SWAP1 DUP1 DUP3 MSTORE DUP1 PUSH1 0x20 MUL PUSH1 0x20 ADD DUP3 ADD PUSH1 0x40 MSTORE DUP1 ISZERO PUSH2 0x1A4B JUMPI DUP2 PUSH1 0x20 ADD PUSH1 0x20 DUP3 MUL DUP1 CALLDATASIZE DUP4 CALLDATACOPY ADD SWAP1 POP JUMPDEST POP SWAP1 POP PUSH1 0x0 JUMPDEST PUSH1 0x9 SLOAD DUP2 LT ISZERO PUSH2 0x1A94 JUMPI PUSH2 0x1A65 DUP4 DUP3 PUSH2 0x248B JUMP JUMPDEST DUP3 DUP3 DUP2 MLOAD DUP2 LT PUSH2 0x1A77 JUMPI PUSH2 0x1A77 PUSH2 0x2DAF JUMP JUMPDEST PUSH1 0x20 SWAP1 DUP2 MUL SWAP2 SWAP1 SWAP2 ADD ADD MSTORE DUP1 PUSH2 0x1A8C DUP2 PUSH2 0x2ED5 JUMP JUMPDEST SWAP2 POP POP PUSH2 0x1A51 JUMP JUMPDEST POP SWAP4 SWAP3 POP POP POP JUMP JUMPDEST PUSH1 0xF SLOAD TIMESTAMP GT ISZERO PUSH2 0x1CC0 JUMPI PUSH1 0xB SLOAD PUSH1 0xF SLOAD PUSH2 0x1AB6 SWAP1 TIMESTAMP PUSH2 0x2CE2 JUMP JUMPDEST PUSH1 0x11 SLOAD PUSH2 0x1AC6 SWAP1 PUSH2 0x2710 SWAP1 PUSH2 0x2CF9 JUMP JUMPDEST PUSH2 0x1AD0 SWAP2 SWAP1 PUSH2 0x2CF9 JUMP JUMPDEST PUSH2 0x1ADA SWAP2 SWAP1 PUSH2 0x2D18 JUMP JUMPDEST PUSH1 0x10 PUSH1 0x0 DUP3 DUP3 SLOAD PUSH2 0x1AEB SWAP2 SWAP1 PUSH2 0x2D3A JUMP JUMPDEST SWAP1 SWAP2 SSTORE POP POP TIMESTAMP PUSH1 0xF SSTORE CALLER PUSH1 0x0 DUP2 DUP2 MSTORE PUSH1 0x3 PUSH1 0x20 MSTORE PUSH1 0x40 SWAP1 KECCAK256 SLOAD ADDRESS SWAP1 DUP4 GT ISZERO PUSH2 0x1B4F JUMPI PUSH1 0x40 MLOAD PUSH3 0x461BCD PUSH1 0xE5 SHL DUP2 MSTORE PUSH1 0x20 PUSH1 0x4 DUP3 ADD MSTORE PUSH1 0x17 PUSH1 0x24 DUP3 ADD MSTORE PUSH23 0xAAA68AA440848298829C868A409C9EA8408A9C9EAA8E9 PUSH1 0x4B SHL PUSH1 0x44 DUP3 ADD MSTORE PUSH1 0x64 ADD PUSH2 0xB5E JUMP JUMPDEST PUSH1 0x1 PUSH1 0x1 PUSH1 0xA0 SHL SUB DUP1 DUP4 AND PUSH1 0x0 SWAP1 DUP2 MSTORE PUSH1 0x3 PUSH1 0x20 MSTORE PUSH1 0x40 DUP1 DUP3 KECCAK256 DUP1 SLOAD DUP8 SWAP1 SUB SWAP1 SSTORE SWAP2 DUP4 AND DUP2 MSTORE SWAP1 DUP2 KECCAK256 DUP1 SLOAD DUP6 ADD SWAP1 SSTORE PUSH1 0xB SLOAD PUSH8 0xDE0B6B3A7640000 PUSH2 0x1B96 PUSH2 0x2710 DUP8 PUSH2 0x2CF9 JUMP JUMPDEST PUSH2 0x1BA0 SWAP2 SWAP1 PUSH2 0x2CF9 JUMP JUMPDEST PUSH2 0x1BAA SWAP2 SWAP1 PUSH2 0x2D18 JUMP JUMPDEST PUSH1 0x10 SLOAD SWAP1 SWAP2 POP TIMESTAMP PUSH1 0x0 PUSH2 0x1BBB PUSH2 0x1712 JUMP JUMPDEST PUSH1 0x40 DUP1 MLOAD PUSH1 0x80 DUP2 ADD DUP3 MSTORE DUP7 DUP2 MSTORE PUSH1 0x20 DUP1 DUP3 ADD DUP8 DUP2 MSTORE DUP3 DUP5 ADD DUP8 DUP2 MSTORE PUSH1 0x60 DUP5 ADD DUP7 DUP2 MSTORE CALLER PUSH1 0x0 SWAP1 DUP2 MSTORE PUSH1 0xE SWAP1 SWAP5 MSTORE SWAP5 DUP4 KECCAK256 DUP5 MLOAD DUP2 SSTORE SWAP2 MLOAD PUSH1 0x1 DUP4 ADD SSTORE MLOAD PUSH1 0x2 DUP3 ADD SSTORE SWAP3 MLOAD PUSH1 0x3 SWAP1 SWAP4 ADD SWAP3 SWAP1 SWAP3 SSTORE PUSH1 0x11 DUP1 SLOAD SWAP4 SWAP5 POP SWAP1 SWAP3 DUP11 SWAP3 SWAP1 PUSH2 0x1C1E SWAP1 DUP5 SWAP1 PUSH2 0x2D3A JUMP JUMPDEST SWAP3 POP POP DUP2 SWAP1 SSTORE POP DUP6 PUSH1 0x1 PUSH1 0x1 PUSH1 0xA0 SHL SUB AND DUP8 PUSH1 0x1 PUSH1 0x1 PUSH1 0xA0 SHL SUB AND PUSH1 0x0 DUP1 MLOAD PUSH1 0x20 PUSH2 0x314F DUP4 CODECOPY DUP2 MLOAD SWAP2 MSTORE DUP11 PUSH1 0x40 MLOAD PUSH2 0x1C58 SWAP2 DUP2 MSTORE PUSH1 0x20 ADD SWAP1 JUMP JUMPDEST PUSH1 0x40 MLOAD DUP1 SWAP2 SUB SWAP1 LOG3 PUSH1 0x40 DUP1 MLOAD CALLER DUP2 MSTORE PUSH1 0x20 DUP2 ADD DUP11 SWAP1 MSTORE SWAP1 DUP2 ADD DUP7 SWAP1 MSTORE PUSH1 0x60 DUP2 ADD DUP6 SWAP1 MSTORE PUSH1 0x80 DUP2 ADD DUP5 SWAP1 MSTORE PUSH1 0xA0 DUP2 ADD DUP4 SWAP1 MSTORE PUSH32 0x9DFA08ABAE6C607453D7EF936FD3D42C4AFC359DCFA226A49BE696604A246845 SWAP1 PUSH1 0xC0 ADD PUSH1 0x40 MLOAD DUP1 SWAP2 SUB SWAP1 LOG1 POP POP POP POP POP POP POP POP JUMP JUMPDEST CALLER PUSH1 0x0 DUP2 DUP2 MSTORE PUSH1 0x3 PUSH1 0x20 MSTORE PUSH1 0x40 SWAP1 KECCAK256 SLOAD ADDRESS SWAP1 DUP4 GT ISZERO PUSH2 0x1B4F JUMPI PUSH1 0x40 MLOAD PUSH3 0x461BCD PUSH1 0xE5 SHL DUP2 MSTORE PUSH1 0x20 PUSH1 0x4 DUP3 ADD MSTORE PUSH1 0x17 PUSH1 0x24 DUP3 ADD MSTORE PUSH23 0xAAA68AA440848298829C868A409C9EA8408A9C9EAA8E9 PUSH1 0x4B SHL PUSH1 0x44 DUP3 ADD MSTORE PUSH1 0x64 ADD PUSH2 0xB5E JUMP JUMPDEST CALLER PUSH1 0x0 SWAP1 DUP2 MSTORE PUSH1 0x3 PUSH1 0x20 MSTORE PUSH1 0x40 DUP2 KECCAK256 DUP1 SLOAD DUP4 SWAP2 SWAP1 DUP4 SWAP1 PUSH2 0x1D3C SWAP1 DUP5 SWAP1 PUSH2 0x2CE2 JUMP JUMPDEST SWAP1 SWAP2 SSTORE POP POP PUSH1 0x1 PUSH1 0x1 PUSH1 0xA0 SHL SUB DUP4 AND PUSH1 0x0 DUP2 DUP2 MSTORE PUSH1 0x3 PUSH1 0x20 MSTORE PUSH1 0x40 SWAP1 DUP2 SWAP1 KECCAK256 DUP1 SLOAD DUP6 ADD SWAP1 SSTORE MLOAD CALLER SWAP1 PUSH1 0x0 DUP1 MLOAD PUSH1 0x20 PUSH2 0x314F DUP4 CODECOPY DUP2 MLOAD SWAP2 MSTORE SWAP1 PUSH2 0xAC6 SWAP1 DUP7 DUP2 MSTORE PUSH1 0x20 ADD SWAP1 JUMP JUMPDEST PUSH1 0x40 DUP1 MLOAD PUSH1 0x60 DUP2 ADD DUP3 MSTORE PUSH1 0x0 DUP1 DUP3 MSTORE PUSH1 0x20 DUP3 ADD DUP2 SWAP1 MSTORE SWAP2 DUP2 ADD DUP3 SWAP1 MSTORE PUSH1 0x0 PUSH1 0x9 DUP5 DUP2 SLOAD DUP2 LT PUSH2 0x1DB2 JUMPI PUSH2 0x1DB2 PUSH2 0x2DAF JUMP JUMPDEST PUSH1 0x0 SWAP2 DUP3 MSTORE PUSH1 0x20 DUP1 DUP4 KECCAK256 SWAP1 SWAP2 ADD SLOAD PUSH1 0x1 PUSH1 0x1 PUSH1 0xA0 SHL SUB SWAP1 DUP2 AND DUP1 DUP5 MSTORE PUSH1 0xA DUP4 MSTORE PUSH1 0x40 SWAP4 DUP5 SWAP1 KECCAK256 DUP5 MLOAD PUSH1 0x60 DUP2 ADD DUP7 MSTORE DUP2 SLOAD DUP2 MSTORE PUSH1 0x1 DUP3 ADD SLOAD PUSH1 0x1 PUSH1 0x1 PUSH1 0x80 SHL SUB AND SWAP5 DUP2 ADD SWAP5 SWAP1 SWAP5 MSTORE PUSH1 0x2 ADD SLOAD SWAP1 SWAP2 AND SWAP3 DUP3 ADD SWAP3 SWAP1 SWAP3 MSTORE SWAP1 SWAP6 SWAP1 SWAP5 POP SWAP3 POP POP POP JUMP JUMPDEST TIMESTAMP DUP5 LT ISZERO PUSH2 0x1E62 JUMPI PUSH1 0x40 MLOAD PUSH3 0x461BCD PUSH1 0xE5 SHL DUP2 MSTORE PUSH1 0x20 PUSH1 0x4 DUP3 ADD MSTORE PUSH1 0x17 PUSH1 0x24 DUP3 ADD MSTORE PUSH32 0x5045524D49545F444541444C494E455F45585049524544000000000000000000 PUSH1 0x44 DUP3 ADD MSTORE PUSH1 0x64 ADD PUSH2 0xB5E JUMP JUMPDEST PUSH1 0x0 PUSH2 0x1E6C PUSH2 0xF4A JUMP JUMPDEST PUSH1 0x1 PUSH1 0x1 PUSH1 0xA0 SHL SUB DUP10 DUP2 AND PUSH1 0x0 DUP2 DUP2 MSTORE PUSH1 0x5 PUSH1 0x20 SWAP1 DUP2 MSTORE PUSH1 0x40 SWAP2 DUP3 SWAP1 KECCAK256 DUP1 SLOAD PUSH1 0x1 DUP2 ADD SWAP1 SWAP2 SSTORE DUP3 MLOAD PUSH32 0x6E71EDAE12B1B97F4D1F60370FEF10105FA2FAAE0126114A169C64845D6126C9 DUP2 DUP5 ADD MSTORE DUP1 DUP5 ADD SWAP5 SWAP1 SWAP5 MSTORE SWAP4 DUP13 AND PUSH1 0x60 DUP5 ADD MSTORE PUSH1 0x80 DUP4 ADD DUP12 SWAP1 MSTORE PUSH1 0xA0 DUP4 ADD SWAP4 SWAP1 SWAP4 MSTORE PUSH1 0xC0 DUP1 DUP4 ADD DUP11 SWAP1 MSTORE DUP2 MLOAD DUP1 DUP5 SUB SWAP1 SWAP2 ADD DUP2 MSTORE PUSH1 0xE0 DUP4 ADD SWAP1 SWAP2 MSTORE DUP1 MLOAD SWAP3 ADD SWAP2 SWAP1 SWAP2 KECCAK256 PUSH2 0x1901 PUSH1 0xF0 SHL PUSH2 0x100 DUP4 ADD MSTORE PUSH2 0x102 DUP3 ADD SWAP3 SWAP1 SWAP3 MSTORE PUSH2 0x122 DUP2 ADD SWAP2 SWAP1 SWAP2 MSTORE PUSH2 0x142 ADD PUSH1 0x40 DUP1 MLOAD PUSH1 0x1F NOT DUP2 DUP5 SUB ADD DUP2 MSTORE DUP3 DUP3 MSTORE DUP1 MLOAD PUSH1 0x20 SWAP2 DUP3 ADD KECCAK256 PUSH1 0x0 DUP1 DUP6 MSTORE SWAP2 DUP5 ADD DUP1 DUP5 MSTORE DUP2 SWAP1 MSTORE PUSH1 0xFF DUP9 AND SWAP3 DUP5 ADD SWAP3 SWAP1 SWAP3 MSTORE PUSH1 0x60 DUP4 ADD DUP7 SWAP1 MSTORE PUSH1 0x80 DUP4 ADD DUP6 SWAP1 MSTORE SWAP1 SWAP3 POP SWAP1 PUSH1 0x1 SWAP1 PUSH1 0xA0 ADD PUSH1 0x20 PUSH1 0x40 MLOAD PUSH1 0x20 DUP2 SUB SWAP1 DUP1 DUP5 SUB SWAP1 DUP6 GAS STATICCALL ISZERO DUP1 ISZERO PUSH2 0x1F85 JUMPI RETURNDATASIZE PUSH1 0x0 DUP1 RETURNDATACOPY RETURNDATASIZE PUSH1 0x0 REVERT JUMPDEST POP POP PUSH1 0x40 MLOAD PUSH1 0x1F NOT ADD MLOAD SWAP2 POP POP PUSH1 0x1 PUSH1 0x1 PUSH1 0xA0 SHL SUB DUP2 AND ISZERO DUP1 ISZERO SWAP1 PUSH2 0x1FBB JUMPI POP DUP9 PUSH1 0x1 PUSH1 0x1 PUSH1 0xA0 SHL SUB AND DUP2 PUSH1 0x1 PUSH1 0x1 PUSH1 0xA0 SHL SUB AND EQ JUMPDEST PUSH2 0x1FF8 JUMPI PUSH1 0x40 MLOAD PUSH3 0x461BCD PUSH1 0xE5 SHL DUP2 MSTORE PUSH1 0x20 PUSH1 0x4 DUP3 ADD MSTORE PUSH1 0xE PUSH1 0x24 DUP3 ADD MSTORE PUSH14 0x24A72B20A624A22FA9A4A3A722A9 PUSH1 0x91 SHL PUSH1 0x44 DUP3 ADD MSTORE PUSH1 0x64 ADD PUSH2 0xB5E JUMP JUMPDEST PUSH1 0x1 PUSH1 0x1 PUSH1 0xA0 SHL SUB SWAP1 DUP2 AND PUSH1 0x0 SWAP1 DUP2 MSTORE PUSH1 0x4 PUSH1 0x20 SWAP1 DUP2 MSTORE PUSH1 0x40 DUP1 DUP4 KECCAK256 DUP12 DUP6 AND DUP1 DUP6 MSTORE SWAP1 DUP4 MSTORE SWAP3 DUP2 SWAP1 KECCAK256 DUP11 SWAP1 SSTORE MLOAD DUP10 DUP2 MSTORE SWAP2 SWAP4 POP SWAP2 DUP11 AND SWAP2 PUSH32 0x8C5BE1E5EBEC7D5BD14F71427D1E84F3DD0314C0F7B2291E5B200AC8C7C3B925 SWAP2 ADD PUSH1 0x40 MLOAD DUP1 SWAP2 SUB SWAP1 LOG3 POP POP POP POP POP POP POP JUMP JUMPDEST PUSH1 0x6 SLOAD PUSH3 0x10000 SWAP1 DIV PUSH1 0x1 PUSH1 0x1 PUSH1 0xA0 SHL SUB AND CALLER EQ PUSH2 0x2080 JUMPI PUSH1 0x0 DUP1 REVERT JUMPDEST PUSH1 0x6 DUP1 SLOAD PUSH3 0x10000 PUSH1 0x1 PUSH1 0xB0 SHL SUB NOT AND PUSH3 0x10000 PUSH1 0x1 PUSH1 0x1 PUSH1 0xA0 SHL SUB DUP5 AND SWAP1 DUP2 MUL SWAP2 SWAP1 SWAP2 OR SWAP1 SWAP2 SSTORE PUSH1 0x40 MLOAD SWAP1 DUP2 MSTORE PUSH32 0x39E7D4B9BA48F55A740A5192809DBC498FA12724C030B37DAB126A3F6774C0F3 SWAP1 PUSH1 0x20 ADD PUSH1 0x40 MLOAD DUP1 SWAP2 SUB SWAP1 LOG1 POP JUMP JUMPDEST PUSH1 0x7 DUP2 DUP2 SLOAD DUP2 LT PUSH2 0x20EE JUMPI PUSH1 0x0 DUP1 REVERT JUMPDEST SWAP1 PUSH1 0x0 MSTORE PUSH1 0x20 PUSH1 0x0 KECCAK256 ADD PUSH1 0x0 SWAP2 POP SWAP1 POP DUP1 SLOAD PUSH2 0x9EA SWAP1 PUSH2 0x2D52 JUMP JUMPDEST PUSH1 0x0 DUP1 PUSH2 0x2115 DUP4 PUSH2 0x6B7 JUMP JUMPDEST SWAP1 POP PUSH1 0x0 PUSH1 0x9 DUP1 SLOAD DUP1 PUSH1 0x20 MUL PUSH1 0x20 ADD PUSH1 0x40 MLOAD SWAP1 DUP2 ADD PUSH1 0x40 MSTORE DUP1 SWAP3 SWAP2 SWAP1 DUP2 DUP2 MSTORE PUSH1 0x20 ADD DUP3 DUP1 SLOAD DUP1 ISZERO PUSH2 0x216F JUMPI PUSH1 0x20 MUL DUP3 ADD SWAP2 SWAP1 PUSH1 0x0 MSTORE PUSH1 0x20 PUSH1 0x0 KECCAK256 SWAP1 JUMPDEST DUP2 SLOAD PUSH1 0x1 PUSH1 0x1 PUSH1 0xA0 SHL SUB AND DUP2 MSTORE PUSH1 0x1 SWAP1 SWAP2 ADD SWAP1 PUSH1 0x20 ADD DUP1 DUP4 GT PUSH2 0x2151 JUMPI JUMPDEST POP POP POP POP POP SWAP1 POP PUSH1 0x0 DUP2 MLOAD PUSH8 0xFFFFFFFFFFFFFFFF DUP2 GT ISZERO PUSH2 0x2192 JUMPI PUSH2 0x2192 PUSH2 0x275D JUMP JUMPDEST PUSH1 0x40 MLOAD SWAP1 DUP1 DUP3 MSTORE DUP1 PUSH1 0x20 MUL PUSH1 0x20 ADD DUP3 ADD PUSH1 0x40 MSTORE DUP1 ISZERO PUSH2 0x21BB JUMPI DUP2 PUSH1 0x20 ADD PUSH1 0x20 DUP3 MUL DUP1 CALLDATASIZE DUP4 CALLDATACOPY ADD SWAP1 POP JUMPDEST POP SWAP1 POP DUP3 ISZERO PUSH2 0x238F JUMPI PUSH1 0x10 SLOAD PUSH1 0x1 PUSH1 0x1 PUSH1 0xA0 SHL SUB DUP7 AND PUSH1 0x0 SWAP1 DUP2 MSTORE PUSH1 0xE PUSH1 0x20 MSTORE PUSH1 0x40 SWAP1 KECCAK256 PUSH1 0x1 ADD SSTORE PUSH2 0x21EB PUSH2 0x1712 JUMP JUMPDEST PUSH1 0x1 PUSH1 0x1 PUSH1 0xA0 SHL SUB DUP7 AND PUSH1 0x0 SWAP1 DUP2 MSTORE PUSH1 0xE PUSH1 0x20 MSTORE PUSH1 0x40 DUP2 KECCAK256 PUSH1 0x3 DUP2 ADD SWAP3 SWAP1 SWAP3 SSTORE TIMESTAMP PUSH1 0x2 DUP4 ADD SSTORE DUP2 SLOAD DUP6 SWAP3 SWAP2 SWAP1 PUSH2 0x2222 SWAP1 DUP5 SWAP1 PUSH2 0x2CE2 JUMP JUMPDEST SWAP1 SWAP2 SSTORE POP POP PUSH1 0xB SLOAD PUSH1 0x0 SWAP1 PUSH8 0xDE0B6B3A7640000 SWAP1 PUSH2 0x2241 SWAP1 DUP7 PUSH2 0x2CF9 JUMP JUMPDEST PUSH2 0x224B SWAP2 SWAP1 PUSH2 0x2D18 JUMP JUMPDEST SWAP1 POP PUSH1 0x0 PUSH2 0x225B PUSH2 0x2710 DUP4 PUSH2 0x2D18 JUMP JUMPDEST SWAP1 POP PUSH2 0x2267 ADDRESS DUP3 PUSH2 0x254A JUMP JUMPDEST PUSH1 0x0 JUMPDEST DUP5 MLOAD DUP2 LT ISZERO PUSH2 0x2346 JUMPI PUSH1 0x0 PUSH2 0x227F DUP8 DUP4 PUSH2 0x248B JUMP JUMPDEST SWAP1 POP DUP1 DUP6 DUP4 DUP2 MLOAD DUP2 LT PUSH2 0x2294 JUMPI PUSH2 0x2294 PUSH2 0x2DAF JUMP JUMPDEST PUSH1 0x20 MUL PUSH1 0x20 ADD ADD DUP2 DUP2 MSTORE POP POP DUP6 DUP3 DUP2 MLOAD DUP2 LT PUSH2 0x22B2 JUMPI PUSH2 0x22B2 PUSH2 0x2DAF JUMP JUMPDEST PUSH1 0x20 SWAP1 DUP2 MUL SWAP2 SWAP1 SWAP2 ADD ADD MLOAD PUSH1 0x40 MLOAD PUSH4 0xA9059CBB PUSH1 0xE0 SHL DUP2 MSTORE PUSH1 0x1 PUSH1 0x1 PUSH1 0xA0 SHL SUB DUP12 DUP2 AND PUSH1 0x4 DUP4 ADD MSTORE PUSH1 0x24 DUP3 ADD DUP5 SWAP1 MSTORE SWAP1 SWAP2 AND SWAP1 PUSH4 0xA9059CBB SWAP1 PUSH1 0x44 ADD PUSH1 0x20 PUSH1 0x40 MLOAD DUP1 DUP4 SUB DUP2 PUSH1 0x0 DUP8 GAS CALL ISZERO DUP1 ISZERO PUSH2 0x230D JUMPI RETURNDATASIZE PUSH1 0x0 DUP1 RETURNDATACOPY RETURNDATASIZE PUSH1 0x0 REVERT JUMPDEST POP POP POP POP PUSH1 0x40 MLOAD RETURNDATASIZE PUSH1 0x1F NOT PUSH1 0x1F DUP3 ADD AND DUP3 ADD DUP1 PUSH1 0x40 MSTORE POP DUP2 ADD SWAP1 PUSH2 0x2331 SWAP2 SWAP1 PUSH2 0x2D8D JUMP JUMPDEST POP POP DUP1 DUP1 PUSH2 0x233E SWAP1 PUSH2 0x2ED5 JUMP JUMPDEST SWAP2 POP POP PUSH2 0x226A JUMP JUMPDEST POP PUSH32 0xBBFAF902CEC9107D8131A7888C2B89C5E5820FF6319B992657E8EAA9A36FECED DUP8 DUP7 DUP7 DUP7 PUSH1 0x40 MLOAD PUSH2 0x237C SWAP5 SWAP4 SWAP3 SWAP2 SWAP1 PUSH2 0x306E JUMP JUMPDEST PUSH1 0x40 MLOAD DUP1 SWAP2 SUB SWAP1 LOG1 POP SWAP3 SWAP6 SWAP5 POP POP POP POP POP JUMP JUMPDEST POP POP POP SWAP2 SWAP1 POP JUMP JUMPDEST PUSH1 0x0 PUSH32 0x8B73C3C69BB8FE3D512ECC4CF759CC79239F7B179B0FFACAA9A75D522B39400F PUSH1 0x0 PUSH1 0x40 MLOAD PUSH2 0x23C9 SWAP2 SWAP1 PUSH2 0x30B2 JUMP JUMPDEST PUSH1 0x40 DUP1 MLOAD SWAP2 DUP3 SWAP1 SUB DUP3 KECCAK256 PUSH1 0x20 DUP4 ADD SWAP4 SWAP1 SWAP4 MSTORE DUP2 ADD SWAP2 SWAP1 SWAP2 MSTORE PUSH32 0xC89EFDAA54C0F20C7ADF612882DF0950F5A951637E0307CDCB4C672F298B8BC6 PUSH1 0x60 DUP3 ADD MSTORE CHAINID PUSH1 0x80 DUP3 ADD MSTORE ADDRESS PUSH1 0xA0 DUP3 ADD MSTORE PUSH1 0xC0 ADD PUSH1 0x40 MLOAD PUSH1 0x20 DUP2 DUP4 SUB SUB DUP2 MSTORE SWAP1 PUSH1 0x40 MSTORE DUP1 MLOAD SWAP1 PUSH1 0x20 ADD KECCAK256 SWAP1 POP SWAP1 JUMP JUMPDEST DUP1 PUSH1 0x2 PUSH1 0x0 DUP3 DUP3 SLOAD PUSH2 0x2443 SWAP2 SWAP1 PUSH2 0x2D3A JUMP JUMPDEST SWAP1 SWAP2 SSTORE POP POP PUSH1 0x1 PUSH1 0x1 PUSH1 0xA0 SHL SUB DUP3 AND PUSH1 0x0 DUP2 DUP2 MSTORE PUSH1 0x3 PUSH1 0x20 SWAP1 DUP2 MSTORE PUSH1 0x40 DUP1 DUP4 KECCAK256 DUP1 SLOAD DUP7 ADD SWAP1 SSTORE MLOAD DUP5 DUP2 MSTORE PUSH1 0x0 DUP1 MLOAD PUSH1 0x20 PUSH2 0x314F DUP4 CODECOPY DUP2 MLOAD SWAP2 MSTORE SWAP2 ADD JUMPDEST PUSH1 0x40 MLOAD DUP1 SWAP2 SUB SWAP1 LOG3 POP POP JUMP JUMPDEST PUSH1 0x9 SLOAD PUSH1 0x0 SWAP1 DUP3 LT PUSH2 0x24D6 JUMPI PUSH1 0x40 MLOAD PUSH3 0x461BCD PUSH1 0xE5 SHL DUP2 MSTORE PUSH1 0x20 PUSH1 0x4 DUP3 ADD MSTORE PUSH1 0x14 PUSH1 0x24 DUP3 ADD MSTORE PUSH20 0x1D1BDAD95B92590813D5550813D1881093D55391 PUSH1 0x62 SHL PUSH1 0x44 DUP3 ADD MSTORE PUSH1 0x64 ADD PUSH2 0xB5E JUMP JUMPDEST PUSH2 0x2710 PUSH4 0xFFFFFFFF AND PUSH8 0xDE0B6B3A7640000 DUP5 PUSH1 0xA PUSH1 0x0 PUSH1 0x9 DUP8 DUP2 SLOAD DUP2 LT PUSH2 0x2500 JUMPI PUSH2 0x2500 PUSH2 0x2DAF JUMP JUMPDEST PUSH1 0x0 SWAP2 DUP3 MSTORE PUSH1 0x20 DUP1 DUP4 KECCAK256 SWAP1 SWAP2 ADD SLOAD PUSH1 0x1 PUSH1 0x1 PUSH1 0xA0 SHL SUB AND DUP4 MSTORE DUP3 ADD SWAP3 SWAP1 SWAP3 MSTORE PUSH1 0x40 ADD SWAP1 KECCAK256 SLOAD PUSH2 0x252F SWAP2 SWAP1 PUSH2 0x2CF9 JUMP JUMPDEST PUSH2 0x2539 SWAP2 SWAP1 PUSH2 0x2D18 JUMP JUMPDEST PUSH2 0x2543 SWAP2 SWAP1 PUSH2 0x2D18 JUMP JUMPDEST SWAP4 SWAP3 POP POP POP JUMP JUMPDEST PUSH1 0x1 PUSH1 0x1 PUSH1 0xA0 SHL SUB DUP3 AND PUSH1 0x0 SWAP1 DUP2 MSTORE PUSH1 0x3 PUSH1 0x20 MSTORE PUSH1 0x40 DUP2 KECCAK256 DUP1 SLOAD DUP4 SWAP3 SWAP1 PUSH2 0x2572 SWAP1 DUP5 SWAP1 PUSH2 0x2CE2 JUMP JUMPDEST SWAP1 SWAP2 SSTORE POP POP PUSH1 0x2 DUP1 SLOAD DUP3 SWAP1 SUB SWAP1 SSTORE PUSH1 0x40 MLOAD DUP2 DUP2 MSTORE PUSH1 0x0 SWAP1 PUSH1 0x1 PUSH1 0x1 PUSH1 0xA0 SHL SUB DUP5 AND SWAP1 PUSH1 0x0 DUP1 MLOAD PUSH1 0x20 PUSH2 0x314F DUP4 CODECOPY DUP2 MLOAD SWAP2 MSTORE SWAP1 PUSH1 0x20 ADD PUSH2 0x247F JUMP JUMPDEST DUP3 DUP1 SLOAD PUSH2 0x25B8 SWAP1 PUSH2 0x2D52 JUMP JUMPDEST SWAP1 PUSH1 0x0 MSTORE PUSH1 0x20 PUSH1 0x0 KECCAK256 SWAP1 PUSH1 0x1F ADD PUSH1 0x20 SWAP1 DIV DUP2 ADD SWAP3 DUP3 PUSH2 0x25DA JUMPI PUSH1 0x0 DUP6 SSTORE PUSH2 0x2620 JUMP JUMPDEST DUP3 PUSH1 0x1F LT PUSH2 0x25F3 JUMPI DUP1 MLOAD PUSH1 0xFF NOT AND DUP4 DUP1 ADD OR DUP6 SSTORE PUSH2 0x2620 JUMP JUMPDEST DUP3 DUP1 ADD PUSH1 0x1 ADD DUP6 SSTORE DUP3 ISZERO PUSH2 0x2620 JUMPI SWAP2 DUP3 ADD JUMPDEST DUP3 DUP2 GT ISZERO PUSH2 0x2620 JUMPI DUP3 MLOAD DUP3 SSTORE SWAP2 PUSH1 0x20 ADD SWAP2 SWAP1 PUSH1 0x1 ADD SWAP1 PUSH2 0x2605 JUMP JUMPDEST POP PUSH2 0x262C SWAP3 SWAP2 POP PUSH2 0x2630 JUMP JUMPDEST POP SWAP1 JUMP JUMPDEST JUMPDEST DUP1 DUP3 GT ISZERO PUSH2 0x262C JUMPI PUSH1 0x0 DUP2 SSTORE PUSH1 0x1 ADD PUSH2 0x2631 JUMP JUMPDEST PUSH1 0x1 PUSH1 0x1 PUSH1 0xA0 SHL SUB DUP2 AND DUP2 EQ PUSH2 0xDC8 JUMPI PUSH1 0x0 DUP1 REVERT JUMPDEST PUSH1 0x0 PUSH1 0x20 DUP3 DUP5 SUB SLT ISZERO PUSH2 0x266C JUMPI PUSH1 0x0 DUP1 REVERT JUMPDEST DUP2 CALLDATALOAD PUSH2 0x2543 DUP2 PUSH2 0x2645 JUMP JUMPDEST PUSH1 0x0 DUP2 MLOAD DUP1 DUP5 MSTORE PUSH1 0x0 JUMPDEST DUP2 DUP2 LT ISZERO PUSH2 0x269D JUMPI PUSH1 0x20 DUP2 DUP6 ADD DUP2 ADD MLOAD DUP7 DUP4 ADD DUP3 ADD MSTORE ADD PUSH2 0x2681 JUMP JUMPDEST DUP2 DUP2 GT ISZERO PUSH2 0x26AF JUMPI PUSH1 0x0 PUSH1 0x20 DUP4 DUP8 ADD ADD MSTORE JUMPDEST POP PUSH1 0x1F ADD PUSH1 0x1F NOT AND SWAP3 SWAP1 SWAP3 ADD PUSH1 0x20 ADD SWAP3 SWAP2 POP POP JUMP JUMPDEST PUSH1 0x20 DUP2 MSTORE PUSH1 0x0 PUSH2 0x2543 PUSH1 0x20 DUP4 ADD DUP5 PUSH2 0x2677 JUMP JUMPDEST PUSH1 0x0 DUP1 PUSH1 0x40 DUP4 DUP6 SUB SLT ISZERO PUSH2 0x26EA JUMPI PUSH1 0x0 DUP1 REVERT JUMPDEST DUP3 CALLDATALOAD PUSH2 0x26F5 DUP2 PUSH2 0x2645 JUMP JUMPDEST SWAP5 PUSH1 0x20 SWAP4 SWAP1 SWAP4 ADD CALLDATALOAD SWAP4 POP POP POP JUMP JUMPDEST PUSH1 0x0 PUSH1 0x20 DUP3 DUP5 SUB SLT ISZERO PUSH2 0x2715 JUMPI PUSH1 0x0 DUP1 REVERT JUMPDEST POP CALLDATALOAD SWAP2 SWAP1 POP JUMP JUMPDEST PUSH1 0x0 DUP1 PUSH1 0x0 PUSH1 0x60 DUP5 DUP7 SUB SLT ISZERO PUSH2 0x2731 JUMPI PUSH1 0x0 DUP1 REVERT JUMPDEST DUP4 CALLDATALOAD PUSH2 0x273C DUP2 PUSH2 0x2645 JUMP JUMPDEST SWAP3 POP PUSH1 0x20 DUP5 ADD CALLDATALOAD PUSH2 0x274C DUP2 PUSH2 0x2645 JUMP JUMPDEST SWAP3 SWAP6 SWAP3 SWAP5 POP POP POP PUSH1 0x40 SWAP2 SWAP1 SWAP2 ADD CALLDATALOAD SWAP1 JUMP JUMPDEST PUSH4 0x4E487B71 PUSH1 0xE0 SHL PUSH1 0x0 MSTORE PUSH1 0x41 PUSH1 0x4 MSTORE PUSH1 0x24 PUSH1 0x0 REVERT JUMPDEST PUSH1 0x40 MLOAD PUSH1 0x1F DUP3 ADD PUSH1 0x1F NOT AND DUP2 ADD PUSH8 0xFFFFFFFFFFFFFFFF DUP2 GT DUP3 DUP3 LT OR ISZERO PUSH2 0x279C JUMPI PUSH2 0x279C PUSH2 0x275D JUMP JUMPDEST PUSH1 0x40 MSTORE SWAP2 SWAP1 POP JUMP JUMPDEST PUSH1 0x0 PUSH8 0xFFFFFFFFFFFFFFFF DUP3 GT ISZERO PUSH2 0x27BE JUMPI PUSH2 0x27BE PUSH2 0x275D JUMP JUMPDEST POP PUSH1 0x5 SHL PUSH1 0x20 ADD SWAP1 JUMP JUMPDEST PUSH1 0x0 PUSH1 0x1F DUP4 DUP2 DUP5 ADD SLT PUSH2 0x27DA JUMPI PUSH1 0x0 DUP1 REVERT JUMPDEST DUP3 CALLDATALOAD PUSH1 0x20 PUSH2 0x27EF PUSH2 0x27EA DUP4 PUSH2 0x27A4 JUMP JUMPDEST PUSH2 0x2773 JUMP JUMPDEST DUP3 DUP2 MSTORE PUSH1 0x5 SWAP3 SWAP1 SWAP3 SHL DUP6 ADD DUP2 ADD SWAP2 DUP2 DUP2 ADD SWAP1 DUP8 DUP5 GT ISZERO PUSH2 0x280E JUMPI PUSH1 0x0 DUP1 REVERT JUMPDEST DUP3 DUP8 ADD JUMPDEST DUP5 DUP2 LT ISZERO PUSH2 0x28A5 JUMPI DUP1 CALLDATALOAD PUSH8 0xFFFFFFFFFFFFFFFF DUP1 DUP3 GT ISZERO PUSH2 0x2833 JUMPI PUSH1 0x0 DUP1 DUP2 REVERT JUMPDEST DUP2 DUP11 ADD SWAP2 POP DUP11 PUSH1 0x3F DUP4 ADD SLT PUSH2 0x2848 JUMPI PUSH1 0x0 DUP1 DUP2 REVERT JUMPDEST DUP6 DUP3 ADD CALLDATALOAD PUSH1 0x40 DUP3 DUP3 GT ISZERO PUSH2 0x285E JUMPI PUSH2 0x285E PUSH2 0x275D JUMP JUMPDEST PUSH2 0x286F DUP3 DUP12 ADD PUSH1 0x1F NOT AND DUP10 ADD PUSH2 0x2773 JUMP JUMPDEST SWAP3 POP DUP2 DUP4 MSTORE DUP13 DUP2 DUP4 DUP7 ADD ADD GT ISZERO PUSH2 0x2886 JUMPI PUSH1 0x0 DUP1 DUP2 REVERT JUMPDEST DUP2 DUP2 DUP6 ADD DUP10 DUP6 ADD CALLDATACOPY POP PUSH1 0x0 SWAP1 DUP3 ADD DUP8 ADD MSTORE DUP5 MSTORE POP SWAP2 DUP4 ADD SWAP2 DUP4 ADD PUSH2 0x2812 JUMP JUMPDEST POP SWAP8 SWAP7 POP POP POP POP POP POP POP JUMP JUMPDEST DUP1 CALLDATALOAD PUSH4 0xFFFFFFFF DUP2 AND DUP2 EQ PUSH2 0x28C5 JUMPI PUSH1 0x0 DUP1 REVERT JUMPDEST SWAP2 SWAP1 POP JUMP JUMPDEST PUSH1 0x0 PUSH1 0x60 DUP3 DUP5 SUB SLT ISZERO PUSH2 0x28DC JUMPI PUSH1 0x0 DUP1 REVERT JUMPDEST PUSH1 0x40 MLOAD PUSH1 0x60 DUP2 ADD DUP2 DUP2 LT PUSH8 0xFFFFFFFFFFFFFFFF DUP3 GT OR ISZERO PUSH2 0x28FF JUMPI PUSH2 0x28FF PUSH2 0x275D JUMP JUMPDEST PUSH1 0x40 MSTORE SWAP1 POP DUP1 PUSH2 0x290E DUP4 PUSH2 0x28B1 JUMP JUMPDEST DUP2 MSTORE PUSH2 0x291C PUSH1 0x20 DUP5 ADD PUSH2 0x28B1 JUMP JUMPDEST PUSH1 0x20 DUP3 ADD MSTORE PUSH2 0x292D PUSH1 0x40 DUP5 ADD PUSH2 0x28B1 JUMP JUMPDEST PUSH1 0x40 DUP3 ADD MSTORE POP SWAP3 SWAP2 POP POP JUMP JUMPDEST PUSH1 0x0 DUP3 PUSH1 0x1F DUP4 ADD SLT PUSH2 0x294A JUMPI PUSH1 0x0 DUP1 REVERT JUMPDEST DUP2 CALLDATALOAD PUSH1 0x20 PUSH2 0x295A PUSH2 0x27EA DUP4 PUSH2 0x27A4 JUMP JUMPDEST DUP3 DUP2 MSTORE PUSH1 0x5 SWAP3 SWAP1 SWAP3 SHL DUP5 ADD DUP2 ADD SWAP2 DUP2 DUP2 ADD SWAP1 DUP7 DUP5 GT ISZERO PUSH2 0x2979 JUMPI PUSH1 0x0 DUP1 REVERT JUMPDEST DUP3 DUP7 ADD JUMPDEST DUP5 DUP2 LT ISZERO PUSH2 0x299D JUMPI DUP1 CALLDATALOAD PUSH2 0x2990 DUP2 PUSH2 0x2645 JUMP JUMPDEST DUP4 MSTORE SWAP2 DUP4 ADD SWAP2 DUP4 ADD PUSH2 0x297D JUMP JUMPDEST POP SWAP7 SWAP6 POP POP POP POP POP POP JUMP JUMPDEST PUSH1 0x0 DUP3 PUSH1 0x1F DUP4 ADD SLT PUSH2 0x29B9 JUMPI PUSH1 0x0 DUP1 REVERT JUMPDEST DUP2 CALLDATALOAD PUSH1 0x20 PUSH2 0x29C9 PUSH2 0x27EA DUP4 PUSH2 0x27A4 JUMP JUMPDEST DUP3 DUP2 MSTORE PUSH1 0x5 SWAP3 SWAP1 SWAP3 SHL DUP5 ADD DUP2 ADD SWAP2 DUP2 DUP2 ADD SWAP1 DUP7 DUP5 GT ISZERO PUSH2 0x29E8 JUMPI PUSH1 0x0 DUP1 REVERT JUMPDEST DUP3 DUP7 ADD JUMPDEST DUP5 DUP2 LT ISZERO PUSH2 0x299D JUMPI DUP1 CALLDATALOAD PUSH1 0x1 PUSH1 0x1 PUSH1 0x80 SHL SUB DUP2 AND DUP2 EQ PUSH2 0x2A0C JUMPI PUSH1 0x0 DUP1 DUP2 REVERT JUMPDEST DUP4 MSTORE SWAP2 DUP4 ADD SWAP2 DUP4 ADD PUSH2 0x29EC JUMP JUMPDEST PUSH1 0x0 DUP3 PUSH1 0x1F DUP4 ADD SLT PUSH2 0x2A2A JUMPI PUSH1 0x0 DUP1 REVERT JUMPDEST DUP2 CALLDATALOAD PUSH1 0x20 PUSH2 0x2A3A PUSH2 0x27EA DUP4 PUSH2 0x27A4 JUMP JUMPDEST DUP3 DUP2 MSTORE PUSH1 0x5 SWAP3 SWAP1 SWAP3 SHL DUP5 ADD DUP2 ADD SWAP2 DUP2 DUP2 ADD SWAP1 DUP7 DUP5 GT ISZERO PUSH2 0x2A59 JUMPI PUSH1 0x0 DUP1 REVERT JUMPDEST DUP3 DUP7 ADD JUMPDEST DUP5 DUP2 LT ISZERO PUSH2 0x299D JUMPI DUP1 CALLDATALOAD DUP4 MSTORE SWAP2 DUP4 ADD SWAP2 DUP4 ADD PUSH2 0x2A5D JUMP JUMPDEST PUSH1 0x0 DUP1 PUSH1 0x0 DUP1 PUSH1 0x0 DUP1 PUSH2 0x100 DUP8 DUP10 SUB SLT ISZERO PUSH2 0x2A8E JUMPI PUSH1 0x0 DUP1 REVERT JUMPDEST DUP7 CALLDATALOAD PUSH8 0xFFFFFFFFFFFFFFFF DUP1 DUP3 GT ISZERO PUSH2 0x2AA6 JUMPI PUSH1 0x0 DUP1 REVERT JUMPDEST PUSH2 0x2AB2 DUP11 DUP4 DUP12 ADD PUSH2 0x27C8 JUMP JUMPDEST SWAP8 POP PUSH2 0x2AC1 DUP11 PUSH1 0x20 DUP12 ADD PUSH2 0x28CA JUMP JUMPDEST SWAP7 POP PUSH1 0x80 DUP10 ADD CALLDATALOAD SWAP2 POP DUP1 DUP3 GT ISZERO PUSH2 0x2AD7 JUMPI PUSH1 0x0 DUP1 REVERT JUMPDEST PUSH2 0x2AE3 DUP11 DUP4 DUP12 ADD PUSH2 0x2939 JUMP JUMPDEST SWAP6 POP PUSH1 0xA0 DUP10 ADD CALLDATALOAD SWAP2 POP DUP1 DUP3 GT ISZERO PUSH2 0x2AF9 JUMPI PUSH1 0x0 DUP1 REVERT JUMPDEST PUSH2 0x2B05 DUP11 DUP4 DUP12 ADD PUSH2 0x29A8 JUMP JUMPDEST SWAP5 POP PUSH1 0xC0 DUP10 ADD CALLDATALOAD SWAP2 POP DUP1 DUP3 GT ISZERO PUSH2 0x2B1B JUMPI PUSH1 0x0 DUP1 REVERT JUMPDEST PUSH2 0x2B27 DUP11 DUP4 DUP12 ADD PUSH2 0x2939 JUMP JUMPDEST SWAP4 POP PUSH1 0xE0 DUP10 ADD CALLDATALOAD SWAP2 POP DUP1 DUP3 GT ISZERO PUSH2 0x2B3D JUMPI PUSH1 0x0 DUP1 REVERT JUMPDEST POP PUSH2 0x2B4A DUP10 DUP3 DUP11 ADD PUSH2 0x2A19 JUMP JUMPDEST SWAP2 POP POP SWAP3 SWAP6 POP SWAP3 SWAP6 POP SWAP3 SWAP6 JUMP JUMPDEST PUSH1 0x20 DUP1 DUP3 MSTORE DUP3 MLOAD DUP3 DUP3 ADD DUP2 SWAP1 MSTORE PUSH1 0x0 SWAP2 SWAP1 DUP5 DUP3 ADD SWAP1 PUSH1 0x40 DUP6 ADD SWAP1 DUP5 JUMPDEST DUP2 DUP2 LT ISZERO PUSH2 0x2B91 JUMPI DUP4 MLOAD ISZERO ISZERO DUP4 MSTORE SWAP3 DUP5 ADD SWAP3 SWAP2 DUP5 ADD SWAP2 PUSH1 0x1 ADD PUSH2 0x2B73 JUMP JUMPDEST POP SWAP1 SWAP7 SWAP6 POP POP POP POP POP POP JUMP JUMPDEST PUSH1 0x0 DUP2 MLOAD DUP1 DUP5 MSTORE PUSH1 0x20 DUP1 DUP6 ADD SWAP5 POP DUP1 DUP5 ADD PUSH1 0x0 JUMPDEST DUP4 DUP2 LT ISZERO PUSH2 0x2BCD JUMPI DUP2 MLOAD DUP8 MSTORE SWAP6 DUP3 ADD SWAP6 SWAP1 DUP3 ADD SWAP1 PUSH1 0x1 ADD PUSH2 0x2BB1 JUMP JUMPDEST POP SWAP5 SWAP6 SWAP5 POP POP POP POP POP JUMP JUMPDEST PUSH1 0x20 DUP2 MSTORE PUSH1 0x0 PUSH2 0x2543 PUSH1 0x20 DUP4 ADD DUP5 PUSH2 0x2B9D JUMP JUMPDEST PUSH1 0xFF DUP2 AND DUP2 EQ PUSH2 0xDC8 JUMPI PUSH1 0x0 DUP1 REVERT JUMPDEST PUSH1 0x0 DUP1 PUSH1 0x0 DUP1 PUSH1 0x0 DUP1 PUSH1 0x0 PUSH1 0xE0 DUP9 DUP11 SUB SLT ISZERO PUSH2 0x2C15 JUMPI PUSH1 0x0 DUP1 REVERT JUMPDEST DUP8 CALLDATALOAD PUSH2 0x2C20 DUP2 PUSH2 0x2645 JUMP JUMPDEST SWAP7 POP PUSH1 0x20 DUP9 ADD CALLDATALOAD PUSH2 0x2C30 DUP2 PUSH2 0x2645 JUMP JUMPDEST SWAP6 POP PUSH1 0x40 DUP9 ADD CALLDATALOAD SWAP5 POP PUSH1 0x60 DUP9 ADD CALLDATALOAD SWAP4 POP PUSH1 0x80 DUP9 ADD CALLDATALOAD PUSH2 0x2C4E DUP2 PUSH2 0x2BEB JUMP JUMPDEST SWAP7 SWAP10 SWAP6 SWAP9 POP SWAP4 SWAP7 SWAP3 SWAP6 SWAP5 PUSH1 0xA0 DUP5 ADD CALLDATALOAD SWAP5 POP PUSH1 0xC0 SWAP1 SWAP4 ADD CALLDATALOAD SWAP3 SWAP2 POP POP JUMP JUMPDEST PUSH1 0x0 DUP1 PUSH1 0x40 DUP4 DUP6 SUB SLT ISZERO PUSH2 0x2C7E JUMPI PUSH1 0x0 DUP1 REVERT JUMPDEST DUP3 CALLDATALOAD PUSH2 0x2C89 DUP2 PUSH2 0x2645 JUMP JUMPDEST SWAP2 POP PUSH1 0x20 DUP4 ADD CALLDATALOAD PUSH2 0x2C99 DUP2 PUSH2 0x2645 JUMP JUMPDEST DUP1 SWAP2 POP POP SWAP3 POP SWAP3 SWAP1 POP JUMP JUMPDEST PUSH4 0x4E487B71 PUSH1 0xE0 SHL PUSH1 0x0 MSTORE PUSH1 0x11 PUSH1 0x4 MSTORE PUSH1 0x24 PUSH1 0x0 REVERT JUMPDEST PUSH1 0x0 PUSH4 0xFFFFFFFF DUP1 DUP4 AND DUP2 DUP6 AND DUP1 DUP4 SUB DUP3 GT ISZERO PUSH2 0x2CD9 JUMPI PUSH2 0x2CD9 PUSH2 0x2CA4 JUMP JUMPDEST ADD SWAP5 SWAP4 POP POP POP POP JUMP JUMPDEST PUSH1 0x0 DUP3 DUP3 LT ISZERO PUSH2 0x2CF4 JUMPI PUSH2 0x2CF4 PUSH2 0x2CA4 JUMP JUMPDEST POP SUB SWAP1 JUMP JUMPDEST PUSH1 0x0 DUP2 PUSH1 0x0 NOT DIV DUP4 GT DUP3 ISZERO ISZERO AND ISZERO PUSH2 0x2D13 JUMPI PUSH2 0x2D13 PUSH2 0x2CA4 JUMP JUMPDEST POP MUL SWAP1 JUMP JUMPDEST PUSH1 0x0 DUP3 PUSH2 0x2D35 JUMPI PUSH4 0x4E487B71 PUSH1 0xE0 SHL PUSH1 0x0 MSTORE PUSH1 0x12 PUSH1 0x4 MSTORE PUSH1 0x24 PUSH1 0x0 REVERT JUMPDEST POP DIV SWAP1 JUMP JUMPDEST PUSH1 0x0 DUP3 NOT DUP3 GT ISZERO PUSH2 0x2D4D JUMPI PUSH2 0x2D4D PUSH2 0x2CA4 JUMP JUMPDEST POP ADD SWAP1 JUMP JUMPDEST PUSH1 0x1 DUP2 DUP2 SHR SWAP1 DUP3 AND DUP1 PUSH2 0x2D66 JUMPI PUSH1 0x7F DUP3 AND SWAP2 POP JUMPDEST PUSH1 0x20 DUP3 LT DUP2 EQ ISZERO PUSH2 0x2D87 JUMPI PUSH4 0x4E487B71 PUSH1 0xE0 SHL PUSH1 0x0 MSTORE PUSH1 0x22 PUSH1 0x4 MSTORE PUSH1 0x24 PUSH1 0x0 REVERT JUMPDEST POP SWAP2 SWAP1 POP JUMP JUMPDEST PUSH1 0x0 PUSH1 0x20 DUP3 DUP5 SUB SLT ISZERO PUSH2 0x2D9F JUMPI PUSH1 0x0 DUP1 REVERT JUMPDEST DUP2 MLOAD DUP1 ISZERO ISZERO DUP2 EQ PUSH2 0x2543 JUMPI PUSH1 0x0 DUP1 REVERT JUMPDEST PUSH4 0x4E487B71 PUSH1 0xE0 SHL PUSH1 0x0 MSTORE PUSH1 0x32 PUSH1 0x4 MSTORE PUSH1 0x24 PUSH1 0x0 REVERT JUMPDEST PUSH1 0x0 PUSH1 0x20 DUP3 DUP5 SUB SLT ISZERO PUSH2 0x2DD7 JUMPI PUSH1 0x0 DUP1 REVERT JUMPDEST DUP2 MLOAD PUSH2 0x2543 DUP2 PUSH2 0x2BEB JUMP JUMPDEST PUSH1 0x1 DUP2 DUP2 JUMPDEST DUP1 DUP6 GT ISZERO PUSH2 0x2E1D JUMPI DUP2 PUSH1 0x0 NOT DIV DUP3 GT ISZERO PUSH2 0x2E03 JUMPI PUSH2 0x2E03 PUSH2 0x2CA4 JUMP JUMPDEST DUP1 DUP6 AND ISZERO PUSH2 0x2E10 JUMPI SWAP2 DUP2 MUL SWAP2 JUMPDEST SWAP4 DUP5 SHR SWAP4 SWAP1 DUP1 MUL SWAP1 PUSH2 0x2DE7 JUMP JUMPDEST POP SWAP3 POP SWAP3 SWAP1 POP JUMP JUMPDEST PUSH1 0x0 DUP3 PUSH2 0x2E34 JUMPI POP PUSH1 0x1 PUSH2 0xAD2 JUMP JUMPDEST DUP2 PUSH2 0x2E41 JUMPI POP PUSH1 0x0 PUSH2 0xAD2 JUMP JUMPDEST DUP2 PUSH1 0x1 DUP2 EQ PUSH2 0x2E57 JUMPI PUSH1 0x2 DUP2 EQ PUSH2 0x2E61 JUMPI PUSH2 0x2E7D JUMP JUMPDEST PUSH1 0x1 SWAP2 POP POP PUSH2 0xAD2 JUMP JUMPDEST PUSH1 0xFF DUP5 GT ISZERO PUSH2 0x2E72 JUMPI PUSH2 0x2E72 PUSH2 0x2CA4 JUMP JUMPDEST POP POP PUSH1 0x1 DUP3 SHL PUSH2 0xAD2 JUMP JUMPDEST POP PUSH1 0x20 DUP4 LT PUSH2 0x133 DUP4 LT AND PUSH1 0x4E DUP5 LT PUSH1 0xB DUP5 LT AND OR ISZERO PUSH2 0x2EA0 JUMPI POP DUP2 DUP2 EXP PUSH2 0xAD2 JUMP JUMPDEST PUSH2 0x2EAA DUP4 DUP4 PUSH2 0x2DE2 JUMP JUMPDEST DUP1 PUSH1 0x0 NOT DIV DUP3 GT ISZERO PUSH2 0x2EBE JUMPI PUSH2 0x2EBE PUSH2 0x2CA4 JUMP JUMPDEST MUL SWAP4 SWAP3 POP POP POP JUMP JUMPDEST PUSH1 0x0 PUSH2 0x2543 PUSH1 0xFF DUP5 AND DUP4 PUSH2 0x2E25 JUMP JUMPDEST PUSH1 0x0 PUSH1 0x0 NOT DUP3 EQ ISZERO PUSH2 0x2EE9 JUMPI PUSH2 0x2EE9 PUSH2 0x2CA4 JUMP JUMPDEST POP PUSH1 0x1 ADD SWAP1 JUMP JUMPDEST PUSH1 0x0 DUP2 MLOAD DUP1 DUP5 MSTORE PUSH1 0x20 DUP1 DUP6 ADD SWAP5 POP DUP1 DUP5 ADD PUSH1 0x0 JUMPDEST DUP4 DUP2 LT ISZERO PUSH2 0x2BCD JUMPI DUP2 MLOAD PUSH1 0x1 PUSH1 0x1 PUSH1 0xA0 SHL SUB AND DUP8 MSTORE SWAP6 DUP3 ADD SWAP6 SWAP1 DUP3 ADD SWAP1 PUSH1 0x1 ADD PUSH2 0x2F04 JUMP JUMPDEST PUSH1 0x0 DUP2 MLOAD DUP1 DUP5 MSTORE PUSH1 0x20 DUP1 DUP6 ADD SWAP5 POP DUP1 DUP5 ADD PUSH1 0x0 JUMPDEST DUP4 DUP2 LT ISZERO PUSH2 0x2BCD JUMPI DUP2 MLOAD PUSH1 0x1 PUSH1 0x1 PUSH1 0x80 SHL SUB AND DUP8 MSTORE SWAP6 DUP3 ADD SWAP6 SWAP1 DUP3 ADD SWAP1 PUSH1 0x1 ADD PUSH2 0x2F3D JUMP JUMPDEST PUSH1 0xE0 DUP1 DUP3 MSTORE DUP9 MLOAD SWAP1 DUP3 ADD DUP2 SWAP1 MSTORE PUSH1 0x0 SWAP1 PUSH2 0x100 PUSH1 0x5 DUP3 SWAP1 SHL DUP5 ADD DUP2 ADD SWAP2 SWAP1 DUP5 ADD SWAP1 PUSH1 0x20 DUP1 DUP14 ADD DUP6 JUMPDEST DUP4 DUP2 LT ISZERO PUSH2 0x2FB8 JUMPI PUSH1 0xFF NOT DUP9 DUP8 SUB ADD DUP6 MSTORE PUSH2 0x2FA6 DUP7 DUP4 MLOAD PUSH2 0x2677 JUMP JUMPDEST SWAP6 POP SWAP4 DUP3 ADD SWAP4 SWAP1 DUP3 ADD SWAP1 PUSH1 0x1 ADD PUSH2 0x2F8A JUMP JUMPDEST POP POP DUP6 DUP5 SUB DUP2 DUP8 ADD MSTORE POP POP POP PUSH2 0x2FCE DUP2 DUP11 PUSH2 0x2EF0 JUMP JUMPDEST SWAP1 POP DUP3 DUP2 SUB PUSH1 0x40 DUP5 ADD MSTORE PUSH2 0x2FE2 DUP2 DUP10 PUSH2 0x2F29 JUMP JUMPDEST SWAP1 POP DUP3 DUP2 SUB PUSH1 0x60 DUP5 ADD MSTORE PUSH2 0x2FF6 DUP2 DUP9 PUSH2 0x2EF0 JUMP JUMPDEST SWAP1 POP DUP3 DUP2 SUB PUSH1 0x80 DUP5 ADD MSTORE PUSH2 0x300A DUP2 DUP8 PUSH2 0x2B9D JUMP JUMPDEST SWAP2 POP POP PUSH2 0x301F PUSH1 0xA0 DUP4 ADD DUP6 PUSH4 0xFFFFFFFF AND SWAP1 MSTORE JUMP JUMPDEST PUSH4 0xFFFFFFFF DUP4 AND PUSH1 0xC0 DUP4 ADD MSTORE PUSH2 0x9D1 JUMP JUMPDEST PUSH1 0x0 PUSH4 0xFFFFFFFF DUP4 DUP2 AND SWAP1 DUP4 AND DUP2 DUP2 LT ISZERO PUSH2 0x304D JUMPI PUSH2 0x304D PUSH2 0x2CA4 JUMP JUMPDEST SUB SWAP4 SWAP3 POP POP POP JUMP JUMPDEST PUSH1 0x0 PUSH1 0x20 DUP3 DUP5 SUB SLT ISZERO PUSH2 0x3067 JUMPI PUSH1 0x0 DUP1 REVERT JUMPDEST POP MLOAD SWAP2 SWAP1 POP JUMP JUMPDEST PUSH1 0x1 DUP1 PUSH1 0xA0 SHL SUB DUP6 AND DUP2 MSTORE DUP4 PUSH1 0x20 DUP3 ADD MSTORE PUSH1 0x80 PUSH1 0x40 DUP3 ADD MSTORE PUSH1 0x0 PUSH2 0x3095 PUSH1 0x80 DUP4 ADD DUP6 PUSH2 0x2EF0 JUMP JUMPDEST DUP3 DUP2 SUB PUSH1 0x60 DUP5 ADD MSTORE PUSH2 0x30A7 DUP2 DUP6 PUSH2 0x2B9D JUMP JUMPDEST SWAP8 SWAP7 POP POP POP POP POP POP POP JUMP JUMPDEST PUSH1 0x0 DUP1 DUP4 SLOAD DUP2 PUSH1 0x1 DUP3 DUP2 SHR SWAP2 POP DUP1 DUP4 AND DUP1 PUSH2 0x30CE JUMPI PUSH1 0x7F DUP4 AND SWAP3 POP JUMPDEST PUSH1 0x20 DUP1 DUP5 LT DUP3 EQ ISZERO PUSH2 0x30EE JUMPI PUSH4 0x4E487B71 PUSH1 0xE0 SHL DUP7 MSTORE PUSH1 0x22 PUSH1 0x4 MSTORE PUSH1 0x24 DUP7 REVERT JUMPDEST DUP2 DUP1 ISZERO PUSH2 0x3102 JUMPI PUSH1 0x1 DUP2 EQ PUSH2 0x3113 JUMPI PUSH2 0x3140 JUMP JUMPDEST PUSH1 0xFF NOT DUP7 AND DUP10 MSTORE DUP5 DUP10 ADD SWAP7 POP PUSH2 0x3140 JUMP JUMPDEST PUSH1 0x0 DUP11 DUP2 MSTORE PUSH1 0x20 SWAP1 KECCAK256 PUSH1 0x0 JUMPDEST DUP7 DUP2 LT ISZERO PUSH2 0x3138 JUMPI DUP2 SLOAD DUP12 DUP3 ADD MSTORE SWAP1 DUP6 ADD SWAP1 DUP4 ADD PUSH2 0x311F JUMP JUMPDEST POP POP DUP5 DUP10 ADD SWAP7 POP JUMPDEST POP SWAP5 SWAP9 SWAP8 POP POP POP POP POP POP POP POP JUMP INVALID 0xDD CALLCODE MSTORE 0xAD SHL 0xE2 0xC8 SWAP12 PUSH10 0xC2B068FC378DAA952BA7 CALL PUSH4 0xC4A11628 CREATE2 GAS 0x4D CREATE2 0x23 0xB3 0xEF LOG2 PUSH5 0x6970667358 0x22 SLT KECCAK256 SWAP14 POP CREATE2 SAR 0x25 PUSH3 0xBCF632 PUSH2 0x3238 SWAP16 PUSH30 0x29D0B87DD67F993B2478BF2FB924496E7FEA64736F6C634300080A003300 ",
  "sha1": "6b03b0cb756008c7737a0d12970c72a6361dafb1",
  "source": "pragma solidity ^0.8.0;\n\nimport \"../interfaces/IBuidlCollective.sol\";\nimport {ERC20} from \"./solmate/src/tokens/ERC20.sol\";\n//  ________  ________  ________\n//  |\\   ____\\|\\   __  \\|\\   __  \\\n//  \\ \\  \\___|\\ \\  \\|\\  \\ \\  \\|\\  \\\n//   \\ \\  \\  __\\ \\   _  _\\ \\  \\\\\\  \\\n//    \\ \\  \\|\\  \\ \\  \\\\  \\\\ \\  \\\\\\  \\\n//     \\ \\_______\\ \\__\\\\ _\\\\ \\_______\\\n//      \\|_______|\\|__|\\|__|\\|_______|\n\n// gro protocol: @TODO add the url of the monorepo\n\n/// @title BuidlCollective\n/// @notice Create a uniform vesting schedule for multiple underlying tokens, which can be redeemed gradually through staking the ERC20 representation LP token.\n///     ###############################################\n///     BuidlCollective Specification\n///     The BuidlCollective provides a way for co-vesting to be implemented on the block chain,\n///         allowing multiple parties who seek to co-vest their tokens to initialize a collective,\n///         providing approval for their corresponding liquid tokens, and start the vesting sychronously. \n///         After the covesting is started, underlying tokens would be released according to the schedule and \n///         be allocated to the staked ERC20 representation LP proportionally. Each LP tokens are guarantteed the \n///         same amount of underlying tokens. \n///     LP tokens can be freely transferred but would need to undergo staking in order to convert to the underlying tokens.\n///     If 100% of representation LP tokens are staked, then the staked LP tokens are converted to underlying tokens\n///     just like the vesting schedule\n///     If 50% of representation LP tokens are staked, then the staked LP tokens are converted to underlying tokens\n///     with half of the vesting time needed. \n///\n///     There is a 3-day releaseFactor that adjusts the rate staking position can claim their underlying tokens.\n///     If a staked position can convert LP to 1% of the underlying tokens by staking 5 days. Since 5 days is more \n///     than the releaseFactor (3-day), 1% full amount is converted. \n///     If a staked position can convert LP to 1% of the underlying tokens by staking 1.5 days. Since 1.5 days is less\n///     than the releaseFactor (3-day), pro-rated amount is converted, in this case, 1.5/3 * 1% = 0.5% is converted.\n///     ###############################################\n///\ncontract BuidlCollective is ERC20, IBuidlCollective {\n    /*//////////////////////////////////////////////////////////////\n                        CONSTANTS & IMMUTABLES\n    //////////////////////////////////////////////////////////////*/\n    uint32 public constant BP = 10000;\n    uint256 public constant VEST_MULTIPLIER = 10 ** 18;\n\n    /*//////////////////////////////////////////////////////////////\n                            STRUCT\n    //////////////////////////////////////////////////////////////*/\n    struct Collective {\n        // the period of vesting (in second)\n        uint32 vestingTime;\n        // the added time (in second) upon startCollective() before vesting begins\n        uint32 cliff;\n        // variable to log the startTime, would log the block.timestamp during startCollective()\n        uint32 collectiveStart;\n    }\n\n    struct TokenInfo {\n        // target quantity of the token\n        uint256 target;\n        // target price of the token\n        uint128 price;\n        // user who would provide approval of pulling fund from, would also receive the representation tokens for redeem\n        address user;\n    }\n\n    struct UserInfo {\n        // percentage(bp) multiplied by VEST_MULTIPLIER\n        uint256 depositedShare;\n        // last TWAP during stake/unstake/claim\n        uint256 lastCheckpointTWAP;\n        // last timestamp during stake/unstake/claim\n        uint256 lastCheckpointTime;\n        // last percentageVested for the entire vestingSchedule during stake/unstake/claim\n        uint256 lastCheckpointPercentageVested;\n    }\n\n    /*//////////////////////////////////////////////////////////////\n            COLLECTIVE INITIALIZATION RELATED VARIABLES\n    //////////////////////////////////////////////////////////////*/\n\n    bool collectiveStarted;\n    bool collectiveInitialized;\n\n    address public admin;\n\n    string[] public namesOfParticipants;\n    uint256 public noOfTokens;\n\n    address[] public tokens;\n\n    mapping(address => TokenInfo) public tokenInfo;\n\n    uint256 public totalAssets;\n\n    Collective public collectiveInfo;\n\n    /*//////////////////////////////////////////////////////////////\n                    STAKING RELATED VARIABLES\n    //////////////////////////////////////////////////////////////*/\n    \n    // to adjust rate of claimable get released to staker\n    uint256 public releaseFactor = 86400 * 3;\n    \n    mapping(address => UserInfo) public userInfo;\n    // timestamp for checkpointing\n    uint256 public lastCheckpoint;\n    // a checkpoint number based on percentageStaked(bp) * number of second passed\n    uint256 public lastTWAP;\n    // totalStaked of asset in absolute values\n    uint256 public totalStaked;\n    \n\n    modifier onlyAdmin() {\n        require(msg.sender == admin);\n        _;\n    }\n\n    /// @notice update lastTWAP and lastCheckpoint.\n    ///     this function is called during stake/claim/unstake\n    modifier updateCheckpoint() {\n        if (block.timestamp > lastCheckpoint) {\n            lastTWAP +=\n                (totalStaked * BP * (block.timestamp - lastCheckpoint)) /\n                totalAssets;\n            lastCheckpoint = block.timestamp;\n            _;\n        } else {\n            _;\n        }\n    }\n\n    constructor(\n        string memory _name,\n        string memory _symbol,\n        uint8 _decimals\n    ) ERC20(_name, _symbol, _decimals) {\n        admin = msg.sender;\n        emit LogNewAdmin(admin);\n    }\n\n    /*//////////////////////////////////////////////////////////////\n                            SETTERS\n    //////////////////////////////////////////////////////////////*/\n    ///  @notice admin function to initialize a collective\n    ///  this version assumes 1 tokens are sent in by 1 address\n    ///  @param _namesOfParticipants name of participants\n    ///  @param _collectiveInfo defines vestingPeriod and cliff, startTime would be override in startCollective()\n    ///  @param _tokens name of participants\n    ///  @param _prices price of each tokens, would be used for calculating shares with _targets\n    ///  @param _users address of users to pull funds during startCollective()\n    ///  @param _targets tokens amounts\n    ///  TODO: change name and symbol of token => name of collective\n    function initialize(\n        string[] memory _namesOfParticipants,\n        Collective memory _collectiveInfo,\n        address[] memory _tokens,\n        uint128[] memory _prices,\n        address[] memory _users,\n        uint256[] memory _targets\n    ) external {\n        require(collectiveInitialized == false);\n        collectiveInitialized = true;\n        admin = msg.sender;\n        collectiveInfo = _collectiveInfo;\n        collectiveInfo.collectiveStart = 0;\n        uint256 tokenLength = _tokens.length;\n        for (uint256 i = 0; i < tokenLength; i++) {\n            require(tokenInfo[_tokens[i]].price == 0, \"TOKEN ADDRESS ALREADY INITIALIZED\");\n            namesOfParticipants.push(_namesOfParticipants[i]);\n            TokenInfo memory t = TokenInfo(_targets[i], _prices[i], _users[i]);\n            tokenInfo[_tokens[i]] = t;\n            tokens.push(_tokens[i]);\n        }\n        noOfTokens = tokens.length;\n        emit LogNewCollectiveInitialized(\n            _namesOfParticipants,\n            _tokens,\n            _prices,\n            _users,\n            _targets,\n            collectiveInfo.cliff,\n            collectiveInfo.vestingTime\n        );\n    }\n    ///  @notice admin function to cancel a collective, only before startCollective()\n    ///  @param _to address to send back the eth during contract deployment\n    function cancel(address payable _to) external onlyAdmin {\n        require(collectiveStarted == false);\n        selfdestruct(_to);\n    }\n\n    ///  @notice admin function to transfer admin ownership\n    ///  @param _newAdmin address of new admin\n    function updateAdmin(address _newAdmin) external onlyAdmin {\n        admin = _newAdmin;\n        emit LogNewAdmin(_newAdmin);\n    }\n\n    ///  @notice admin function to start the collective\n    ///     during starting the contract would pull the predefined quantities of tokens \n    ///     from the users defined in initialize()\n    ///     any user defined in the initialize() that has not done approve in advance for their tokens\n    ///     would lead to failure of this function\n    function startCollective() external onlyAdmin {\n        require(collectiveStarted == false);\n        collectiveStarted = true;\n        address[] memory _tokens = tokens;\n        TokenInfo memory _tokenInfo;\n        uint256 _totalAssets;\n        for (uint256 i; i < _tokens.length; i++) {\n            _tokenInfo = tokenInfo[_tokens[i]];\n            uint256 target = _tokenInfo.target;\n            address contributor = _tokenInfo.user;\n            uint128 price = _tokenInfo.price;\n            ERC20(_tokens[i]).transferFrom(contributor, address(this), target);\n            uint256 assetValue = (target * price * 10 ** 18) /\n                10 ** ERC20(_tokens[i]).decimals();\n            _totalAssets += assetValue;\n            _mint(contributor, assetValue);\n        }\n        collectiveInfo.collectiveStart = uint32(block.timestamp);\n        lastCheckpoint = collectiveInfo.collectiveStart + collectiveInfo.cliff;\n        totalAssets = _totalAssets;\n        emit LogNewPoolInitialized(block.timestamp);\n    }\n\n    /*//////////////////////////////////////////////////////////////\n                            VIEW LOGIC\n    //////////////////////////////////////////////////////////////*/\n\n    /// @notice function to read a defined tokens' address and specification in the collective\n    /// @param  _tokenId position of the token during initialize()\n    function readToken(\n        uint256 _tokenId\n    ) public view returns (address, TokenInfo memory) {\n        address tokenAddr = tokens[_tokenId];\n        return (tokenAddr, tokenInfo[tokenAddr]);\n    }\n\n    /// @notice only when all tokens involved return true can the admin start the collective \n    /// @return return if tokens approval is completed for each tokens involved\n    function pokeApproval() public view returns (bool[] memory) {\n        bool[] memory approvals = new bool[](tokens.length);\n        address contributor;\n        uint256 allowance;\n        for (uint256 i; i < tokens.length; i++) {\n            contributor = tokenInfo[tokens[i]].user;\n            allowance = ERC20(tokens[i]).allowance(contributor, address(this));\n            if (allowance >= tokenInfo[tokens[i]].target) {\n                approvals[i] = true;\n            } else {\n                approvals[i] = false;\n            }\n        }\n        return approvals;\n    }\n\n    /// @notice function to read a staker's claimable\n    /// @param  _staker address of staker\n    /// @return the amounts of underlying tokens\n    function getClaimable(address _staker) public view returns (uint256[] memory) {\n        uint256 share = calculateShareToClaim(_staker);\n        uint256[] memory _claimables = new uint256[](tokens.length);\n        for (uint256 i = 0; i < tokens.length; i++) {\n            _claimables[i] = convertShareToToken(share, i);\n        }\n\n        return _claimables;\n    }\n\n    /// @notice calculate the shares (in BPs) to claim for a particular user\n    ///     updated = true means updateCheckpoint is run aldy, used in state transition function\n    ///     updated = false means updateCheckpoint is not run, used in view function\n    /// @param _staker address of the staker\n    /// @return percentage of shares (in BPs)\n    /// @dev releaseFactor plays a role in slowly releasing the vested amounts\n    function calculateShareToClaim(\n        address _staker\n    ) public view returns (uint256) {\n        if (block.timestamp <= userInfo[_staker].lastCheckpointTime) return 0;\n        if (block.timestamp <= (collectiveInfo.collectiveStart + collectiveInfo.cliff)) return 0;\n        uint256 elapsedVestingPercentage = getVestingPercent() -\n            userInfo[_staker].lastCheckpointPercentageVested;\n        \n        uint256 elapsedTime = userInfo[_staker].lastCheckpointTime < (collectiveInfo.collectiveStart + collectiveInfo.cliff) \n        ?   \n        block.timestamp -\n        collectiveInfo.cliff -\n        collectiveInfo.collectiveStart\n        :\n        block.timestamp -\n        userInfo[_staker].lastCheckpointTime;    \n\n        uint256 elapsedTWAP = lastCheckpoint < (collectiveInfo.collectiveStart + collectiveInfo.cliff)\n        ?\n        lastTWAP -\n        userInfo[_staker].lastCheckpointTWAP +\n        (totalStaked * BP * (block.timestamp - (collectiveInfo.collectiveStart + collectiveInfo.cliff))) /\n        totalAssets\n        :\n        lastTWAP -\n        userInfo[_staker].lastCheckpointTWAP +\n        (totalStaked * BP * (block.timestamp - lastCheckpoint)) /\n        totalAssets;\n\n        uint256 avgPercentageStaked = elapsedTWAP / elapsedTime;\n\n        if (avgPercentageStaked == 0) return 0;\n        // user's percentage out of allStaked during the period\n        uint256 userShareOfStaked = (userInfo[_staker].depositedShare * BP) /\n            avgPercentageStaked;\n        // user can get elapsedAmount\n        uint256 userEntitlement = (elapsedVestingPercentage *\n            userShareOfStaked) / BP / VEST_MULTIPLIER;\n\n        if (elapsedTime >= releaseFactor) {\n            return userEntitlement;\n        } else {\n            return (userEntitlement * elapsedTime) / releaseFactor;\n        }\n    }\n\n    /// @notice helper function to calculate the percentage (in BPs) of share vested in the vesting schedule\n    /// @return percentage of shares (in BPs) * VEST_MULTIPLIER\n    function getVestingPercent() public view returns (uint256) {\n        uint32 startTime = collectiveInfo.collectiveStart;\n        if (startTime == 0) return 0;\n        uint32 vestingTime = collectiveInfo.vestingTime;\n        uint32 timePassed = uint32(block.timestamp) - startTime;\n        if ((vestingTime + collectiveInfo.cliff) <= timePassed) return BP * VEST_MULTIPLIER;\n        if (timePassed <= collectiveInfo.cliff) return 0;\n        return VEST_MULTIPLIER * uint256(timePassed - collectiveInfo.cliff) * BP / uint256(vestingTime);\n    }\n\n    /// @notice helper function to calculate the amount of underlying tokens based on the percentage (in BPs) of share \n    /// @param  _share   percentage of shares (in BPs)\n    /// @param  _tokenId position of the tokenId\n    /// @return amount of a particular token\n    function convertShareToToken(\n        uint256 _share,\n        uint256 _tokenId\n    ) internal view returns (uint256) {\n        require(_tokenId < tokens.length, \"tokenId OUT OF BOUND\");\n        return\n            (tokenInfo[tokens[_tokenId]].target * _share) / VEST_MULTIPLIER / BP;\n    }\n\n    /*//////////////////////////////////////////////////////////////\n                        STAKE/CLAIM/UNSTAKE LOGIC\n    //////////////////////////////////////////////////////////////*/\n\n    /// @notice staking ERC20 representation tokens would slowly convert your representation tokens to the underlying tokens\n    ///     if the vesting schedule has already started. \n    /// @param _assetValue the amount of ERC20 representation tokens to stake\n    function stake(uint256 _assetValue) external updateCheckpoint {\n        address from = msg.sender;\n        address to = address(this);\n\n        require(balanceOf[from] >= _assetValue, \"USER BALANCE NOT ENOUGH\");\n        // Cannot overflow because the sum of all user\n        // balances can't exceed the max uint256 value.\n        unchecked {\n            balanceOf[from] -= _assetValue;\n            balanceOf[to] += _assetValue;\n        }\n\n        uint256 _depositedShare = (_assetValue * BP * VEST_MULTIPLIER) /\n            totalAssets;\n        uint256 _lastCheckpointTWAP = lastTWAP;\n        uint256 _lastCheckpointTime = block.timestamp;\n        uint256 _lastCheckpointPercentageVested = getVestingPercent();\n        UserInfo memory _stakePosition = UserInfo(\n            _depositedShare,\n            _lastCheckpointTWAP,\n            _lastCheckpointTime,\n            _lastCheckpointPercentageVested\n        );\n        userInfo[msg.sender] = _stakePosition;\n        totalStaked += _assetValue;\n        emit Transfer(from, to, _assetValue);\n        emit LogTokensStaked(\n            msg.sender,\n            _assetValue,\n            _depositedShare,\n            _lastCheckpointTWAP,\n            _lastCheckpointTime,\n            _lastCheckpointPercentageVested\n        );\n    }\n\n    /// @notice unstake and withdraw the ERC20 representation tokens that are previously staked\n    ///     without claiming, essentially forsaking the claimable\n    /// @param _assetValueLeft the amount of ERC20 representation tokens to unstake\n    /// @dev the unstake amount can be as big as the previously staked amount\n    function unstakeWithoutClaim(uint256 _assetValueLeft) external {\n        uint256 unstakedShare = (_assetValueLeft * BP * VEST_MULTIPLIER) / totalAssets;\n        require(\n            unstakedShare <= userInfo[msg.sender].depositedShare,\n            \"UNSTAKE AMOUNT TOO BIG\"\n        );\n        userInfo[msg.sender].depositedShare -= unstakedShare;\n        ERC20(address(this)).transfer(msg.sender, _assetValueLeft);\n        emit LogTokensUnstaked(msg.sender, _assetValueLeft, unstakedShare, lastTWAP, block.timestamp, getVestingPercent());\n    }\n    \n    /// @notice unstake and withdraw the ERC20 representation tokens that are previously staked\n    ///     if any of them is not converted to underlying tokens.\n    /// @param _assetValueLeft the amount of ERC20 representation tokens to unstake\n    /// @dev the unstake amount should be the remainder of claimable since the function would call claim first.\n    function unstake(uint256 _assetValueLeft) external updateCheckpoint {\n        _claim(msg.sender);\n        uint256 unstakedShare = (_assetValueLeft * BP * VEST_MULTIPLIER) / totalAssets;\n        require(\n            unstakedShare <= userInfo[msg.sender].depositedShare,\n            \"UNSTAKE AMOUNT TOO BIG\"\n        );\n        userInfo[msg.sender].depositedShare -= unstakedShare;\n        ERC20(address(this)).transfer(msg.sender, _assetValueLeft);\n        emit LogTokensUnstaked(msg.sender, _assetValueLeft, unstakedShare, lastTWAP, block.timestamp, getVestingPercent());\n    }\n\n    /// @notice unstake and withdraw ALL the ERC20 representation tokens that are previously staked\n    ///     if any of them is not converted to underlying tokens.\n    function unstakeAll() external updateCheckpoint {\n        if (userInfo[msg.sender].depositedShare == 0) return;\n        _claim(msg.sender);\n        uint256 prevDepositedShare = userInfo[msg.sender].depositedShare;\n        uint256 assetValue = (prevDepositedShare *\n            totalAssets) /\n            VEST_MULTIPLIER /\n            BP;\n        ERC20(address(this)).transfer(msg.sender, assetValue);\n        userInfo[msg.sender].depositedShare = 0;\n        emit LogTokensUnstaked(msg.sender, assetValue, prevDepositedShare, lastTWAP, block.timestamp, getVestingPercent());\n    }\n\n    /// @notice claim would convert the ERC20 representation tokens into the underlying tokens based on the claimable quota.\n    function claim() external updateCheckpoint returns (uint256 share) {\n        uint256 share = _claim(msg.sender);\n        return share;\n    }\n\n    /// @notice internal helper function to claim for a user\n    function _claim(address _staker) internal returns (uint256 share) {\n        // @TODO BP and VEST_MULTIPLIER\n        uint256 share = calculateShareToClaim(_staker);\n        address[] memory _tokens = tokens;\n        uint256[] memory amounts = new uint256[](_tokens.length);\n        if (share > 0) {\n            userInfo[_staker].lastCheckpointTWAP = lastTWAP;\n            userInfo[_staker].lastCheckpointPercentageVested = getVestingPercent();\n            userInfo[_staker].lastCheckpointTime = block.timestamp;\n            userInfo[_staker].depositedShare -= share;\n            uint256 shareToBurn = (share * totalAssets) / VEST_MULTIPLIER;\n            uint256 assetValue = shareToBurn / BP;\n            _burn(address(this), assetValue);\n            for (uint256 i = 0; i < _tokens.length; i++) {\n                uint256 amount = convertShareToToken(share, i);\n                amounts[i] = amount;\n                ERC20(_tokens[i]).transfer(_staker, amount);\n            }\n            emit LogTokensClaimed(_staker, share, _tokens, amounts);\n            return share;\n        }\n    }\n\n}\n",
  "sourcePath": "contracts/BuidlCollective.sol",
  "type": "contract"
}